{
  "_format": "hh-sol-artifact-1",
  "contractName": "UpgradeabilityOwnerStorage",
  "sourceName": "contracts/upgradeability/UpgradeabilityOwnerStorage.sol",
  "abi": [
    {
      "constant": true,
      "inputs": [],
      "name": "upgradeabilityOwner",
      "outputs": [
        {
          "name": "",
          "type": "address"
        }
      ],
      "payable": false,
      "stateMutability": "view",
      "type": "function"
    }
  ],
  "bytecode": "0x608060405234801561001057600080fd5b5060c68061001f6000396000f300608060405260043610603e5763ffffffff7c01000000000000000000000000000000000000000000000000000000006000350416636fde820281146043575b600080fd5b348015604e57600080fd5b506055607e565b6040805173ffffffffffffffffffffffffffffffffffffffff9092168252519081900360200190f35b60005473ffffffffffffffffffffffffffffffffffffffff16905600a165627a7a72305820eba08363c90e0dc2df274f5608668757da8ec2751460bb400c036a3f205099d30029",
  "linkReferences": {},
  "deployedLinkReferences": {}
}