{
  "contracts/BaseBridgeValidators.sol": {
    "BaseBridgeValidators": {
      "abi": [
        {
          "constant": true,
          "inputs": [],
          "name": "validatorCount",
          "outputs": [
            {
              "name": "",
              "type": "uint256"
            }
          ],
          "payable": false,
          "stateMutability": "view",
          "type": "function"
        },
        {
          "constant": true,
          "inputs": [],
          "name": "getBridgeValidatorsInterfacesVersion",
          "outputs": [
            {
              "name": "major",
              "type": "uint64"
            },
            {
              "name": "minor",
              "type": "uint64"
            },
            {
              "name": "patch",
              "type": "uint64"
            }
          ],
          "payable": false,
          "stateMutability": "pure",
          "type": "function"
        },
        {
          "constant": true,
          "inputs": [],
          "name": "isInitialized",
          "outputs": [
            {
              "name": "",
              "type": "bool"
            }
          ],
          "payable": false,
          "stateMutability": "view",
          "type": "function"
        },
        {
          "constant": true,
          "inputs": [],
          "name": "validatorList",
          "outputs": [
            {
              "name": "",
              "type": "address[]"
            }
          ],
          "payable": false,
          "stateMutability": "view",
          "type": "function"
        },
        {
          "constant": false,
          "inputs": [
            {
              "name": "_requiredSignatures",
              "type": "uint256"
            }
          ],
          "name": "setRequiredSignatures",
          "outputs": [],
          "payable": false,
          "stateMutability": "nonpayable",
          "type": "function"
        },
        {
          "constant": true,
          "inputs": [],
          "name": "requiredSignatures",
          "outputs": [
            {
              "name": "",
              "type": "uint256"
            }
          ],
          "payable": false,
          "stateMutability": "view",
          "type": "function"
        },
        {
          "constant": true,
          "inputs": [
            {
              "name": "_address",
              "type": "address"
            }
          ],
          "name": "getNextValidator",
          "outputs": [
            {
              "name": "",
              "type": "address"
            }
          ],
          "payable": false,
          "stateMutability": "view",
          "type": "function"
        },
        {
          "constant": true,
          "inputs": [],
          "name": "owner",
          "outputs": [
            {
              "name": "",
              "type": "address"
            }
          ],
          "payable": false,
          "stateMutability": "view",
          "type": "function"
        },
        {
          "constant": true,
          "inputs": [
            {
              "name": "_validator",
              "type": "address"
            }
          ],
          "name": "isValidatorDuty",
          "outputs": [
            {
              "name": "",
              "type": "bool"
            }
          ],
          "payable": false,
          "stateMutability": "view",
          "type": "function"
        },
        {
          "constant": true,
          "inputs": [],
          "name": "deployedAtBlock",
          "outputs": [
            {
              "name": "",
              "type": "uint256"
            }
          ],
          "payable": false,
          "stateMutability": "view",
          "type": "function"
        },
        {
          "constant": true,
          "inputs": [],
          "name": "F_ADDR",
          "outputs": [
            {
              "name": "",
              "type": "address"
            }
          ],
          "payable": false,
          "stateMutability": "view",
          "type": "function"
        },
        {
          "constant": false,
          "inputs": [
            {
              "name": "newOwner",
              "type": "address"
            }
          ],
          "name": "transferOwnership",
          "outputs": [],
          "payable": false,
          "stateMutability": "nonpayable",
          "type": "function"
        },
        {
          "constant": true,
          "inputs": [
            {
              "name": "_validator",
              "type": "address"
            }
          ],
          "name": "isValidator",
          "outputs": [
            {
              "name": "",
              "type": "bool"
            }
          ],
          "payable": false,
          "stateMutability": "view",
          "type": "function"
        },
        {
          "anonymous": false,
          "inputs": [
            {
              "indexed": true,
              "name": "validator",
              "type": "address"
            }
          ],
          "name": "ValidatorAdded",
          "type": "event"
        },
        {
          "anonymous": false,
          "inputs": [
            {
              "indexed": true,
              "name": "validator",
              "type": "address"
            }
          ],
          "name": "ValidatorRemoved",
          "type": "event"
        },
        {
          "anonymous": false,
          "inputs": [
            {
              "indexed": false,
              "name": "requiredSignatures",
              "type": "uint256"
            }
          ],
          "name": "RequiredSignaturesChanged",
          "type": "event"
        },
        {
          "anonymous": false,
          "inputs": [
            {
              "indexed": false,
              "name": "previousOwner",
              "type": "address"
            },
            {
              "indexed": false,
              "name": "newOwner",
              "type": "address"
            }
          ],
          "name": "OwnershipTransferred",
          "type": "event"
        }
      ],
      "evm": {
        "bytecode": {
          "linkReferences": {},
          "object": "608060405234801561001057600080fd5b506108f3806100206000396000f3006080604052600436106100c45763ffffffff7c01000000000000000000000000000000000000000000000000000000006000350416630f43a67781146100c95780632bda4eee146100f0578063392e53cd146101315780635890ef791461015a5780637d2b9cc0146101bf5780638d068043146101d95780638d37052c146101ee5780638da5cb5b1461022b5780638e4ec60a146102405780639a454b9914610261578063c794c76914610276578063f2fde38b1461028b578063facd743b146102ac575b600080fd5b3480156100d557600080fd5b506100de6102cd565b60408051918252519081900360200190f35b3480156100fc57600080fd5b5061010561031b565b6040805167ffffffffffffffff9485168152928416602084015292168183015290519081900360600190f35b34801561013d57600080fd5b50610146610326565b604080519115158252519081900360200190f35b34801561016657600080fd5b5061016f610377565b60408051602080825283518183015283519192839290830191858101910280838360005b838110156101ab578181015183820152602001610193565b505050509050019250505060405180910390f35b3480156101cb57600080fd5b506101d7600435610445565b005b3480156101e557600080fd5b506100de610507565b3480156101fa57600080fd5b5061020f600160a060020a0360043516610555565b60408051600160a060020a039092168252519081900360200190f35b34801561023757600080fd5b5061020f61063d565b34801561024c57600080fd5b50610146600160a060020a0360043516610694565b34801561026d57600080fd5b506100de61073c565b34801561028257600080fd5b5061020f61078a565b34801561029757600080fd5b506101d7600160a060020a0360043516610795565b3480156102b857600080fd5b50610146600160a060020a03600435166107bd565b7f8656d603d9f985c3483946a92789d52202f49736384ba131cb92f62c4c1aa08260009081526020527f95d17efd9f452ee83a125e41a6180e225f2e2ff7d47d2c1f6cd9b2e14a207ba15490565b600260036000909192565b7f0a6f646cd611241d8073675e00d1a1ff700fbf1b53fcf473de56d1e6e4b714ba60005260046020527f078d888f9b66f3f8bfa10909e31f1e16240db73449f0500afdbbe3a70da457cc5460ff1690565b6060806000806103856102cd565b6040519080825280602002602001820160405280156103ae578160200160208202803883390190505b509250600091506103c5600160a060020a03610555565b9050600160a060020a03811615156103dc57600080fd5b600160a060020a038181161461043d578083838151811015156103fb57fe5b600160a060020a0390921660209283029091019091015261041b81610555565b6001909201919050600160a060020a038116151561043857600080fd5b6103dc565b509092915050565b61044d61063d565b600160a060020a0316331461046157600080fd5b8061046a6102cd565b101561047557600080fd5b80151561048157600080fd5b7fd18ea17c351d6834a0e568067fb71804d2a588d5e26d60f792b1c724b1bd53b1600090815260209081527f8a247e09a5673bd4d93a4e76d8fb9553523aa0d77f51f3d576e7421f5295b9bc8290556040805183815290517f10dbc913050d3180c3b99f7da91fd514af7cbc9c1bb59a0da5d2bc38f0cf395a929181900390910190a150565b7fd18ea17c351d6834a0e568067fb71804d2a588d5e26d60f792b1c724b1bd53b160009081526020527f8a247e09a5673bd4d93a4e76d8fb9553523aa0d77f51f3d576e7421f5295b9bc5490565b6000600260008360405160200180807f76616c696461746f72734c697374000000000000000000000000000000000000815250600e0182600160a060020a0316600160a060020a03166c010000000000000000000000000281526014019150506040516020818303038152906040526040518082805190602001908083835b602083106105f35780518252601f1990920191602091820191016105d4565b51815160209384036101000a6000190180199092169116179052604080519290940182900390912086528501959095529290920160002054600160a060020a031695945050505050565b7f02016836a56b71f0d02689e69e326f4f4c1b9057164ef592671cf0d37c8040c060005260026020527fb7802e97e87ef2842a6cce7da7ffaeaedaa2f61a6a7870b23d9d01fc9b73712e54600160a060020a031690565b600080806106a8600160a060020a03610555565b9050600160a060020a03811615156106bf57600080fd5b600160a060020a03818116146107305783600160a060020a031681600160a060020a0316141561070557816106f26102cd565b438115156106fc57fe5b06149250610735565b61070e81610555565b6001909201919050600160a060020a038116151561072b57600080fd5b6106bf565b600092505b5050919050565b7fb120ceec05576ad0c710bc6e85f1768535e27554458f05dcbb5c65b8c7a749b060009081526020527fe66bef0282a446f9848e2903380099bb6e431483ee78778868f33b4a154c818b5490565b600160a060020a0381565b61079d61063d565b600160a060020a031633146107b157600080fd5b6107ba816107f0565b50565b6000600160a060020a03828116148015906107ea575060006107de83610555565b600160a060020a031614155b92915050565b600160a060020a038116151561080557600080fd5b7f8be0079c531659141344cd1fd0a4f28419497f9722a3daafe3b4186f6b6457e061082e61063d565b60408051600160a060020a03928316815291841660208301528051918290030190a17f02016836a56b71f0d02689e69e326f4f4c1b9057164ef592671cf0d37c8040c060005260026020527fb7802e97e87ef2842a6cce7da7ffaeaedaa2f61a6a7870b23d9d01fc9b73712e805473ffffffffffffffffffffffffffffffffffffffff1916600160a060020a03929092169190911790555600a165627a7a72305820667aa3b69384f97e890b645437780b08d82fff9ea2276b6fe78043ae74944ce30029",
          "opcodes": "PUSH1 0x80 PUSH1 0x40 MSTORE CALLVALUE DUP1 ISZERO PUSH2 0x10 JUMPI PUSH1 0x0 DUP1 REVERT JUMPDEST POP PUSH2 0x8F3 DUP1 PUSH2 0x20 PUSH1 0x0 CODECOPY PUSH1 0x0 RETURN STOP PUSH1 0x80 PUSH1 0x40 MSTORE PUSH1 0x4 CALLDATASIZE LT PUSH2 0xC4 JUMPI PUSH4 0xFFFFFFFF PUSH29 0x100000000000000000000000000000000000000000000000000000000 PUSH1 0x0 CALLDATALOAD DIV AND PUSH4 0xF43A677 DUP2 EQ PUSH2 0xC9 JUMPI DUP1 PUSH4 0x2BDA4EEE EQ PUSH2 0xF0 JUMPI DUP1 PUSH4 0x392E53CD EQ PUSH2 0x131 JUMPI DUP1 PUSH4 0x5890EF79 EQ PUSH2 0x15A JUMPI DUP1 PUSH4 0x7D2B9CC0 EQ PUSH2 0x1BF JUMPI DUP1 PUSH4 0x8D068043 EQ PUSH2 0x1D9 JUMPI DUP1 PUSH4 0x8D37052C EQ PUSH2 0x1EE JUMPI DUP1 PUSH4 0x8DA5CB5B EQ PUSH2 0x22B JUMPI DUP1 PUSH4 0x8E4EC60A EQ PUSH2 0x240 JUMPI DUP1 PUSH4 0x9A454B99 EQ PUSH2 0x261 JUMPI DUP1 PUSH4 0xC794C769 EQ PUSH2 0x276 JUMPI DUP1 PUSH4 0xF2FDE38B EQ PUSH2 0x28B JUMPI DUP1 PUSH4 0xFACD743B EQ PUSH2 0x2AC JUMPI JUMPDEST PUSH1 0x0 DUP1 REVERT JUMPDEST CALLVALUE DUP1 ISZERO PUSH2 0xD5 JUMPI PUSH1 0x0 DUP1 REVERT JUMPDEST POP PUSH2 0xDE PUSH2 0x2CD JUMP JUMPDEST PUSH1 0x40 DUP1 MLOAD SWAP2 DUP3 MSTORE MLOAD SWAP1 DUP2 SWAP1 SUB PUSH1 0x20 ADD SWAP1 RETURN JUMPDEST CALLVALUE DUP1 ISZERO PUSH2 0xFC JUMPI PUSH1 0x0 DUP1 REVERT JUMPDEST POP PUSH2 0x105 PUSH2 0x31B JUMP JUMPDEST PUSH1 0x40 DUP1 MLOAD PUSH8 0xFFFFFFFFFFFFFFFF SWAP5 DUP6 AND DUP2 MSTORE SWAP3 DUP5 AND PUSH1 0x20 DUP5 ADD MSTORE SWAP3 AND DUP2 DUP4 ADD MSTORE SWAP1 MLOAD SWAP1 DUP2 SWAP1 SUB PUSH1 0x60 ADD SWAP1 RETURN JUMPDEST CALLVALUE DUP1 ISZERO PUSH2 0x13D JUMPI PUSH1 0x0 DUP1 REVERT JUMPDEST POP PUSH2 0x146 PUSH2 0x326 JUMP JUMPDEST PUSH1 0x40 DUP1 MLOAD SWAP2 ISZERO ISZERO DUP3 MSTORE MLOAD SWAP1 DUP2 SWAP1 SUB PUSH1 0x20 ADD SWAP1 RETURN JUMPDEST CALLVALUE DUP1 ISZERO PUSH2 0x166 JUMPI PUSH1 0x0 DUP1 REVERT JUMPDEST POP PUSH2 0x16F PUSH2 0x377 JUMP JUMPDEST PUSH1 0x40 DUP1 MLOAD PUSH1 0x20 DUP1 DUP3 MSTORE DUP4 MLOAD DUP2 DUP4 ADD MSTORE DUP4 MLOAD SWAP2 SWAP3 DUP4 SWAP3 SWAP1 DUP4 ADD SWAP2 DUP6 DUP2 ADD SWAP2 MUL DUP1 DUP4 DUP4 PUSH1 0x0 JUMPDEST DUP4 DUP2 LT ISZERO PUSH2 0x1AB JUMPI DUP2 DUP2 ADD MLOAD DUP4 DUP3 ADD MSTORE PUSH1 0x20 ADD PUSH2 0x193 JUMP JUMPDEST POP POP POP POP SWAP1 POP ADD SWAP3 POP POP POP PUSH1 0x40 MLOAD DUP1 SWAP2 SUB SWAP1 RETURN JUMPDEST CALLVALUE DUP1 ISZERO PUSH2 0x1CB JUMPI PUSH1 0x0 DUP1 REVERT JUMPDEST POP PUSH2 0x1D7 PUSH1 0x4 CALLDATALOAD PUSH2 0x445 JUMP JUMPDEST STOP JUMPDEST CALLVALUE DUP1 ISZERO PUSH2 0x1E5 JUMPI PUSH1 0x0 DUP1 REVERT JUMPDEST POP PUSH2 0xDE PUSH2 0x507 JUMP JUMPDEST CALLVALUE DUP1 ISZERO PUSH2 0x1FA JUMPI PUSH1 0x0 DUP1 REVERT JUMPDEST POP PUSH2 0x20F PUSH1 0x1 PUSH1 0xA0 PUSH1 0x2 EXP SUB PUSH1 0x4 CALLDATALOAD AND PUSH2 0x555 JUMP JUMPDEST PUSH1 0x40 DUP1 MLOAD PUSH1 0x1 PUSH1 0xA0 PUSH1 0x2 EXP SUB SWAP1 SWAP3 AND DUP3 MSTORE MLOAD SWAP1 DUP2 SWAP1 SUB PUSH1 0x20 ADD SWAP1 RETURN JUMPDEST CALLVALUE DUP1 ISZERO PUSH2 0x237 JUMPI PUSH1 0x0 DUP1 REVERT JUMPDEST POP PUSH2 0x20F PUSH2 0x63D JUMP JUMPDEST CALLVALUE DUP1 ISZERO PUSH2 0x24C JUMPI PUSH1 0x0 DUP1 REVERT JUMPDEST POP PUSH2 0x146 PUSH1 0x1 PUSH1 0xA0 PUSH1 0x2 EXP SUB PUSH1 0x4 CALLDATALOAD AND PUSH2 0x694 JUMP JUMPDEST CALLVALUE DUP1 ISZERO PUSH2 0x26D JUMPI PUSH1 0x0 DUP1 REVERT JUMPDEST POP PUSH2 0xDE PUSH2 0x73C JUMP JUMPDEST CALLVALUE DUP1 ISZERO PUSH2 0x282 JUMPI PUSH1 0x0 DUP1 REVERT JUMPDEST POP PUSH2 0x20F PUSH2 0x78A JUMP JUMPDEST CALLVALUE DUP1 ISZERO PUSH2 0x297 JUMPI PUSH1 0x0 DUP1 REVERT JUMPDEST POP PUSH2 0x1D7 PUSH1 0x1 PUSH1 0xA0 PUSH1 0x2 EXP SUB PUSH1 0x4 CALLDATALOAD AND PUSH2 0x795 JUMP JUMPDEST CALLVALUE DUP1 ISZERO PUSH2 0x2B8 JUMPI PUSH1 0x0 DUP1 REVERT JUMPDEST POP PUSH2 0x146 PUSH1 0x1 PUSH1 0xA0 PUSH1 0x2 EXP SUB PUSH1 0x4 CALLDATALOAD AND PUSH2 0x7BD JUMP JUMPDEST PUSH32 0x8656D603D9F985C3483946A92789D52202F49736384BA131CB92F62C4C1AA082 PUSH1 0x0 SWAP1 DUP2 MSTORE PUSH1 0x20 MSTORE PUSH32 0x95D17EFD9F452EE83A125E41A6180E225F2E2FF7D47D2C1F6CD9B2E14A207BA1 SLOAD SWAP1 JUMP JUMPDEST PUSH1 0x2 PUSH1 0x3 PUSH1 0x0 SWAP1 SWAP2 SWAP3 JUMP JUMPDEST PUSH32 0xA6F646CD611241D8073675E00D1A1FF700FBF1B53FCF473DE56D1E6E4B714BA PUSH1 0x0 MSTORE PUSH1 0x4 PUSH1 0x20 MSTORE PUSH32 0x78D888F9B66F3F8BFA10909E31F1E16240DB73449F0500AFDBBE3A70DA457CC SLOAD PUSH1 0xFF AND SWAP1 JUMP JUMPDEST PUSH1 0x60 DUP1 PUSH1 0x0 DUP1 PUSH2 0x385 PUSH2 0x2CD JUMP JUMPDEST PUSH1 0x40 MLOAD SWAP1 DUP1 DUP3 MSTORE DUP1 PUSH1 0x20 MUL PUSH1 0x20 ADD DUP3 ADD PUSH1 0x40 MSTORE DUP1 ISZERO PUSH2 0x3AE JUMPI DUP2 PUSH1 0x20 ADD PUSH1 0x20 DUP3 MUL DUP1 CODESIZE DUP4 CODECOPY ADD SWAP1 POP JUMPDEST POP SWAP3 POP PUSH1 0x0 SWAP2 POP PUSH2 0x3C5 PUSH1 0x1 PUSH1 0xA0 PUSH1 0x2 EXP SUB PUSH2 0x555 JUMP JUMPDEST SWAP1 POP PUSH1 0x1 PUSH1 0xA0 PUSH1 0x2 EXP SUB DUP2 AND ISZERO ISZERO PUSH2 0x3DC JUMPI PUSH1 0x0 DUP1 REVERT JUMPDEST PUSH1 0x1 PUSH1 0xA0 PUSH1 0x2 EXP SUB DUP2 DUP2 AND EQ PUSH2 0x43D JUMPI DUP1 DUP4 DUP4 DUP2 MLOAD DUP2 LT ISZERO ISZERO PUSH2 0x3FB JUMPI INVALID JUMPDEST PUSH1 0x1 PUSH1 0xA0 PUSH1 0x2 EXP SUB SWAP1 SWAP3 AND PUSH1 0x20 SWAP3 DUP4 MUL SWAP1 SWAP2 ADD SWAP1 SWAP2 ADD MSTORE PUSH2 0x41B DUP2 PUSH2 0x555 JUMP JUMPDEST PUSH1 0x1 SWAP1 SWAP3 ADD SWAP2 SWAP1 POP PUSH1 0x1 PUSH1 0xA0 PUSH1 0x2 EXP SUB DUP2 AND ISZERO ISZERO PUSH2 0x438 JUMPI PUSH1 0x0 DUP1 REVERT JUMPDEST PUSH2 0x3DC JUMP JUMPDEST POP SWAP1 SWAP3 SWAP2 POP POP JUMP JUMPDEST PUSH2 0x44D PUSH2 0x63D JUMP JUMPDEST PUSH1 0x1 PUSH1 0xA0 PUSH1 0x2 EXP SUB AND CALLER EQ PUSH2 0x461 JUMPI PUSH1 0x0 DUP1 REVERT JUMPDEST DUP1 PUSH2 0x46A PUSH2 0x2CD JUMP JUMPDEST LT ISZERO PUSH2 0x475 JUMPI PUSH1 0x0 DUP1 REVERT JUMPDEST DUP1 ISZERO ISZERO PUSH2 0x481 JUMPI PUSH1 0x0 DUP1 REVERT JUMPDEST PUSH32 0xD18EA17C351D6834A0E568067FB71804D2A588D5E26D60F792B1C724B1BD53B1 PUSH1 0x0 SWAP1 DUP2 MSTORE PUSH1 0x20 SWAP1 DUP2 MSTORE PUSH32 0x8A247E09A5673BD4D93A4E76D8FB9553523AA0D77F51F3D576E7421F5295B9BC DUP3 SWAP1 SSTORE PUSH1 0x40 DUP1 MLOAD DUP4 DUP2 MSTORE SWAP1 MLOAD PUSH32 0x10DBC913050D3180C3B99F7DA91FD514AF7CBC9C1BB59A0DA5D2BC38F0CF395A SWAP3 SWAP2 DUP2 SWAP1 SUB SWAP1 SWAP2 ADD SWAP1 LOG1 POP JUMP JUMPDEST PUSH32 0xD18EA17C351D6834A0E568067FB71804D2A588D5E26D60F792B1C724B1BD53B1 PUSH1 0x0 SWAP1 DUP2 MSTORE PUSH1 0x20 MSTORE PUSH32 0x8A247E09A5673BD4D93A4E76D8FB9553523AA0D77F51F3D576E7421F5295B9BC SLOAD SWAP1 JUMP JUMPDEST PUSH1 0x0 PUSH1 0x2 PUSH1 0x0 DUP4 PUSH1 0x40 MLOAD PUSH1 0x20 ADD DUP1 DUP1 PUSH32 0x76616C696461746F72734C697374000000000000000000000000000000000000 DUP2 MSTORE POP PUSH1 0xE ADD DUP3 PUSH1 0x1 PUSH1 0xA0 PUSH1 0x2 EXP SUB AND PUSH1 0x1 PUSH1 0xA0 PUSH1 0x2 EXP SUB AND PUSH13 0x1000000000000000000000000 MUL DUP2 MSTORE PUSH1 0x14 ADD SWAP2 POP POP PUSH1 0x40 MLOAD PUSH1 0x20 DUP2 DUP4 SUB SUB DUP2 MSTORE SWAP1 PUSH1 0x40 MSTORE PUSH1 0x40 MLOAD DUP1 DUP3 DUP1 MLOAD SWAP1 PUSH1 0x20 ADD SWAP1 DUP1 DUP4 DUP4 JUMPDEST PUSH1 0x20 DUP4 LT PUSH2 0x5F3 JUMPI DUP1 MLOAD DUP3 MSTORE PUSH1 0x1F NOT SWAP1 SWAP3 ADD SWAP2 PUSH1 0x20 SWAP2 DUP3 ADD SWAP2 ADD PUSH2 0x5D4 JUMP JUMPDEST MLOAD DUP2 MLOAD PUSH1 0x20 SWAP4 DUP5 SUB PUSH2 0x100 EXP PUSH1 0x0 NOT ADD DUP1 NOT SWAP1 SWAP3 AND SWAP2 AND OR SWAP1 MSTORE PUSH1 0x40 DUP1 MLOAD SWAP3 SWAP1 SWAP5 ADD DUP3 SWAP1 SUB SWAP1 SWAP2 KECCAK256 DUP7 MSTORE DUP6 ADD SWAP6 SWAP1 SWAP6 MSTORE SWAP3 SWAP1 SWAP3 ADD PUSH1 0x0 KECCAK256 SLOAD PUSH1 0x1 PUSH1 0xA0 PUSH1 0x2 EXP SUB AND SWAP6 SWAP5 POP POP POP POP POP JUMP JUMPDEST PUSH32 0x2016836A56B71F0D02689E69E326F4F4C1B9057164EF592671CF0D37C8040C0 PUSH1 0x0 MSTORE PUSH1 0x2 PUSH1 0x20 MSTORE PUSH32 0xB7802E97E87EF2842A6CCE7DA7FFAEAEDAA2F61A6A7870B23D9D01FC9B73712E SLOAD PUSH1 0x1 PUSH1 0xA0 PUSH1 0x2 EXP SUB AND SWAP1 JUMP JUMPDEST PUSH1 0x0 DUP1 DUP1 PUSH2 0x6A8 PUSH1 0x1 PUSH1 0xA0 PUSH1 0x2 EXP SUB PUSH2 0x555 JUMP JUMPDEST SWAP1 POP PUSH1 0x1 PUSH1 0xA0 PUSH1 0x2 EXP SUB DUP2 AND ISZERO ISZERO PUSH2 0x6BF JUMPI PUSH1 0x0 DUP1 REVERT JUMPDEST PUSH1 0x1 PUSH1 0xA0 PUSH1 0x2 EXP SUB DUP2 DUP2 AND EQ PUSH2 0x730 JUMPI DUP4 PUSH1 0x1 PUSH1 0xA0 PUSH1 0x2 EXP SUB AND DUP2 PUSH1 0x1 PUSH1 0xA0 PUSH1 0x2 EXP SUB AND EQ ISZERO PUSH2 0x705 JUMPI DUP2 PUSH2 0x6F2 PUSH2 0x2CD JUMP JUMPDEST NUMBER DUP2 ISZERO ISZERO PUSH2 0x6FC JUMPI INVALID JUMPDEST MOD EQ SWAP3 POP PUSH2 0x735 JUMP JUMPDEST PUSH2 0x70E DUP2 PUSH2 0x555 JUMP JUMPDEST PUSH1 0x1 SWAP1 SWAP3 ADD SWAP2 SWAP1 POP PUSH1 0x1 PUSH1 0xA0 PUSH1 0x2 EXP SUB DUP2 AND ISZERO ISZERO PUSH2 0x72B JUMPI PUSH1 0x0 DUP1 REVERT JUMPDEST PUSH2 0x6BF JUMP JUMPDEST PUSH1 0x0 SWAP3 POP JUMPDEST POP POP SWAP2 SWAP1 POP JUMP JUMPDEST PUSH32 0xB120CEEC05576AD0C710BC6E85F1768535E27554458F05DCBB5C65B8C7A749B0 PUSH1 0x0 SWAP1 DUP2 MSTORE PUSH1 0x20 MSTORE PUSH32 0xE66BEF0282A446F9848E2903380099BB6E431483EE78778868F33B4A154C818B SLOAD SWAP1 JUMP JUMPDEST PUSH1 0x1 PUSH1 0xA0 PUSH1 0x2 EXP SUB DUP2 JUMP JUMPDEST PUSH2 0x79D PUSH2 0x63D JUMP JUMPDEST PUSH1 0x1 PUSH1 0xA0 PUSH1 0x2 EXP SUB AND CALLER EQ PUSH2 0x7B1 JUMPI PUSH1 0x0 DUP1 REVERT JUMPDEST PUSH2 0x7BA DUP2 PUSH2 0x7F0 JUMP JUMPDEST POP JUMP JUMPDEST PUSH1 0x0 PUSH1 0x1 PUSH1 0xA0 PUSH1 0x2 EXP SUB DUP3 DUP2 AND EQ DUP1 ISZERO SWAP1 PUSH2 0x7EA JUMPI POP PUSH1 0x0 PUSH2 0x7DE DUP4 PUSH2 0x555 JUMP JUMPDEST PUSH1 0x1 PUSH1 0xA0 PUSH1 0x2 EXP SUB AND EQ ISZERO JUMPDEST SWAP3 SWAP2 POP POP JUMP JUMPDEST PUSH1 0x1 PUSH1 0xA0 PUSH1 0x2 EXP SUB DUP2 AND ISZERO ISZERO PUSH2 0x805 JUMPI PUSH1 0x0 DUP1 REVERT JUMPDEST PUSH32 0x8BE0079C531659141344CD1FD0A4F28419497F9722A3DAAFE3B4186F6B6457E0 PUSH2 0x82E PUSH2 0x63D JUMP JUMPDEST PUSH1 0x40 DUP1 MLOAD PUSH1 0x1 PUSH1 0xA0 PUSH1 0x2 EXP SUB SWAP3 DUP4 AND DUP2 MSTORE SWAP2 DUP5 AND PUSH1 0x20 DUP4 ADD MSTORE DUP1 MLOAD SWAP2 DUP3 SWAP1 SUB ADD SWAP1 LOG1 PUSH32 0x2016836A56B71F0D02689E69E326F4F4C1B9057164EF592671CF0D37C8040C0 PUSH1 0x0 MSTORE PUSH1 0x2 PUSH1 0x20 MSTORE PUSH32 0xB7802E97E87EF2842A6CCE7DA7FFAEAEDAA2F61A6A7870B23D9D01FC9B73712E DUP1 SLOAD PUSH20 0xFFFFFFFFFFFFFFFFFFFFFFFFFFFFFFFFFFFFFFFF NOT AND PUSH1 0x1 PUSH1 0xA0 PUSH1 0x2 EXP SUB SWAP3 SWAP1 SWAP3 AND SWAP2 SWAP1 SWAP2 OR SWAP1 SSTORE JUMP STOP LOG1 PUSH6 0x627A7A723058 KECCAK256 PUSH7 0x7AA3B69384F97E DUP10 SIGNEXTEND PUSH5 0x5437780B08 0xd8 0x2f SELFDESTRUCT SWAP15 LOG2 0x27 PUSH12 0x6FE78043AE74944CE3002900 "
        },
        "methodIdentifiers": {
          "F_ADDR()": "c794c769",
          "deployedAtBlock()": "9a454b99",
          "getBridgeValidatorsInterfacesVersion()": "2bda4eee",
          "getNextValidator(address)": "8d37052c",
          "isInitialized()": "392e53cd",
          "isValidator(address)": "facd743b",
          "isValidatorDuty(address)": "8e4ec60a",
          "owner()": "8da5cb5b",
          "requiredSignatures()": "8d068043",
          "setRequiredSignatures(uint256)": "7d2b9cc0",
          "transferOwnership(address)": "f2fde38b",
          "validatorCount()": "0f43a677",
          "validatorList()": "5890ef79"
        }
      }
    }
  }
}