{
  "contracts/BasicAMB.sol": {
    "BasicAMB": {
      "abi": [
        {
          "constant": true,
          "inputs": [],
          "name": "sourceChainId",
          "outputs": [
            {
              "name": "",
              "type": "uint256"
            }
          ],
          "payable": false,
          "stateMutability": "view",
          "type": "function"
        },
        {
          "constant": false,
          "inputs": [
            {
              "name": "_sourceChainId",
              "type": "uint256"
            },
            {
              "name": "_destinationChainId",
              "type": "uint256"
            },
            {
              "name": "_validatorContract",
              "type": "address"
            },
            {
              "name": "_maxGasPerTx",
              "type": "uint256"
            },
            {
              "name": "_gasPrice",
              "type": "uint256"
            },
            {
              "name": "_requiredBlockConfirmations",
              "type": "uint256"
            },
            {
              "name": "_owner",
              "type": "address"
            }
          ],
          "name": "initialize",
          "outputs": [
            {
              "name": "",
              "type": "bool"
            }
          ],
          "payable": false,
          "stateMutability": "nonpayable",
          "type": "function"
        },
        {
          "constant": true,
          "inputs": [],
          "name": "isInitialized",
          "outputs": [
            {
              "name": "",
              "type": "bool"
            }
          ],
          "payable": false,
          "stateMutability": "view",
          "type": "function"
        },
        {
          "constant": true,
          "inputs": [],
          "name": "requiredBlockConfirmations",
          "outputs": [
            {
              "name": "",
              "type": "uint256"
            }
          ],
          "payable": false,
          "stateMutability": "view",
          "type": "function"
        },
        {
          "constant": true,
          "inputs": [],
          "name": "getBridgeMode",
          "outputs": [
            {
              "name": "_data",
              "type": "bytes4"
            }
          ],
          "payable": false,
          "stateMutability": "pure",
          "type": "function"
        },
        {
          "constant": false,
          "inputs": [
            {
              "name": "_sourceChainId",
              "type": "uint256"
            },
            {
              "name": "_destinationChainId",
              "type": "uint256"
            }
          ],
          "name": "setChainIds",
          "outputs": [],
          "payable": false,
          "stateMutability": "nonpayable",
          "type": "function"
        },
        {
          "constant": true,
          "inputs": [],
          "name": "allowReentrantRequests",
          "outputs": [
            {
              "name": "",
              "type": "bool"
            }
          ],
          "payable": false,
          "stateMutability": "view",
          "type": "function"
        },
        {
          "constant": false,
          "inputs": [
            {
              "name": "_maxGasPerTx",
              "type": "uint256"
            }
          ],
          "name": "setMaxGasPerTx",
          "outputs": [],
          "payable": false,
          "stateMutability": "nonpayable",
          "type": "function"
        },
        {
          "constant": true,
          "inputs": [],
          "name": "requiredSignatures",
          "outputs": [
            {
              "name": "",
              "type": "uint256"
            }
          ],
          "payable": false,
          "stateMutability": "view",
          "type": "function"
        },
        {
          "constant": true,
          "inputs": [],
          "name": "owner",
          "outputs": [
            {
              "name": "",
              "type": "address"
            }
          ],
          "payable": false,
          "stateMutability": "view",
          "type": "function"
        },
        {
          "constant": true,
          "inputs": [],
          "name": "validatorContract",
          "outputs": [
            {
              "name": "",
              "type": "address"
            }
          ],
          "payable": false,
          "stateMutability": "view",
          "type": "function"
        },
        {
          "constant": true,
          "inputs": [],
          "name": "deployedAtBlock",
          "outputs": [
            {
              "name": "",
              "type": "uint256"
            }
          ],
          "payable": false,
          "stateMutability": "view",
          "type": "function"
        },
        {
          "constant": true,
          "inputs": [],
          "name": "getBridgeInterfacesVersion",
          "outputs": [
            {
              "name": "major",
              "type": "uint64"
            },
            {
              "name": "minor",
              "type": "uint64"
            },
            {
              "name": "patch",
              "type": "uint64"
            }
          ],
          "payable": false,
          "stateMutability": "pure",
          "type": "function"
        },
        {
          "constant": false,
          "inputs": [
            {
              "name": "_blockConfirmations",
              "type": "uint256"
            }
          ],
          "name": "setRequiredBlockConfirmations",
          "outputs": [],
          "payable": false,
          "stateMutability": "nonpayable",
          "type": "function"
        },
        {
          "constant": true,
          "inputs": [],
          "name": "destinationChainId",
          "outputs": [
            {
              "name": "",
              "type": "uint256"
            }
          ],
          "payable": false,
          "stateMutability": "view",
          "type": "function"
        },
        {
          "constant": false,
          "inputs": [
            {
              "name": "_gasPrice",
              "type": "uint256"
            }
          ],
          "name": "setGasPrice",
          "outputs": [],
          "payable": false,
          "stateMutability": "nonpayable",
          "type": "function"
        },
        {
          "constant": false,
          "inputs": [
            {
              "name": "_enable",
              "type": "bool"
            }
          ],
          "name": "setAllowReentrantRequests",
          "outputs": [],
          "payable": false,
          "stateMutability": "nonpayable",
          "type": "function"
        },
        {
          "constant": true,
          "inputs": [],
          "name": "decimalShift",
          "outputs": [
            {
              "name": "",
              "type": "int256"
            }
          ],
          "payable": false,
          "stateMutability": "view",
          "type": "function"
        },
        {
          "constant": true,
          "inputs": [],
          "name": "maxGasPerTx",
          "outputs": [
            {
              "name": "",
              "type": "uint256"
            }
          ],
          "payable": false,
          "stateMutability": "view",
          "type": "function"
        },
        {
          "constant": false,
          "inputs": [
            {
              "name": "newOwner",
              "type": "address"
            }
          ],
          "name": "transferOwnership",
          "outputs": [],
          "payable": false,
          "stateMutability": "nonpayable",
          "type": "function"
        },
        {
          "constant": true,
          "inputs": [],
          "name": "gasPrice",
          "outputs": [
            {
              "name": "",
              "type": "uint256"
            }
          ],
          "payable": false,
          "stateMutability": "view",
          "type": "function"
        },
        {
          "anonymous": false,
          "inputs": [
            {
              "indexed": false,
              "name": "gasPrice",
              "type": "uint256"
            }
          ],
          "name": "GasPriceChanged",
          "type": "event"
        },
        {
          "anonymous": false,
          "inputs": [
            {
              "indexed": false,
              "name": "requiredBlockConfirmations",
              "type": "uint256"
            }
          ],
          "name": "RequiredBlockConfirmationChanged",
          "type": "event"
        },
        {
          "anonymous": false,
          "inputs": [
            {
              "indexed": false,
              "name": "previousOwner",
              "type": "address"
            },
            {
              "indexed": false,
              "name": "newOwner",
              "type": "address"
            }
          ],
          "name": "OwnershipTransferred",
          "type": "event"
        }
      ],
      "evm": {
        "bytecode": {
          "linkReferences": {},
          "object": "608060405234801561001057600080fd5b50610f7e806100206000396000f3006080604052600436106101035763ffffffff60e060020a6000350416631544298e811461010857806325fbf4ee1461012f578063392e53cd1461017c5780633f0a9f6514610191578063437764df146101a6578063467ad35a146101f05780634d4cb7a21461020d5780637bac29c7146102225780638d0680431461023a5780638da5cb5b1461024f57806399439089146102805780639a454b99146102955780639cb7595a146102aa578063acf5c689146102eb578063b075061114610303578063bf1fe42014610318578063c2231ad214610330578063dae5f0fd1461034a578063e5789d031461035f578063f2fde38b14610374578063fe173b9714610395575b600080fd5b34801561011457600080fd5b5061011d6103aa565b60408051918252519081900360200190f35b34801561013b57600080fd5b50610168600435602435600160a060020a03604435811690606435906084359060a4359060c435166103f8565b604080519115158252519081900360200190f35b34801561018857600080fd5b5061016861066c565b34801561019d57600080fd5b5061011d6106bd565b3480156101b257600080fd5b506101bb61070b565b604080517fffffffff000000000000000000000000000000000000000000000000000000009092168252519081900360200190f35b3480156101fc57600080fd5b5061020b60043560243561072f565b005b34801561021957600080fd5b50610168610759565b34801561022e57600080fd5b5061020b6004356107aa565b34801561024657600080fd5b5061011d610813565b34801561025b57600080fd5b5061026461088b565b60408051600160a060020a039092168252519081900360200190f35b34801561028c57600080fd5b506102646108e2565b3480156102a157600080fd5b5061011d610939565b3480156102b657600080fd5b506102bf610987565b6040805167ffffffffffffffff9485168152928416602084015292168183015290519081900360600190f35b3480156102f757600080fd5b5061020b600435610992565b34801561030f57600080fd5b5061011d6109ba565b34801561032457600080fd5b5061020b600435610a08565b34801561033c57600080fd5b5061020b6004351515610a2d565b34801561035657600080fd5b5061011d610aa4565b34801561036b57600080fd5b5061011d610af2565b34801561038057600080fd5b5061020b600160a060020a0360043516610b40565b3480156103a157600080fd5b5061011d610b65565b7f67d6f42a1ed69c62022f2d160ddc6f2f0acd37ad1db0c24f4702d7d3343a4add60009081526020527ff6c66672b1a9fe5622677597b0da8fd180a2c85696efbcf7fe4b1e0f4f0f61085490565b60408051600481526024810182526020810180517bffffffffffffffffffffffffffffffffffffffffffffffffffffffff167f6fde8202000000000000000000000000000000000000000000000000000000001781529151815160009330939291829190808383895b83811015610479578181015183820152602001610461565b50505050905090810190601f1680156104a65780820380516001836020036101000a031916815260200191505b509150506000604051808303816000865af19150501580610538575030600160a060020a0316636fde82026040518163ffffffff1660e060020a028152600401602060405180830381600087803b15801561050057600080fd5b505af1158015610514573d6000803e3d6000fd5b505050506040513d602081101561052a57600080fd5b5051600160a060020a031633145b8061054257503330145b151561054d57600080fd5b61055561066c565b1561055f57600080fd5b61056886610bb3565b151561057357600080fd5b61057d8888610bbb565b7fab54f3fbbe62c59b7876a9bf9bd5e0c22dbae93f4d8ee0438f7ce62b198eb0e0805473ffffffffffffffffffffffffffffffffffffffff1916600160a060020a03881617905560006020819052437fe66bef0282a446f9848e2903380099bb6e431483ee78778868f33b4a154c818b557f2670ecc91ec356e32067fd27b36614132d727b84a1e03e08f412a4f2cf07597490527f3d7fe2ee9790702383ef0118b516833ef2542132d3ca4ac6c77f62f1230fa61085905561063e84610d0b565b61064783610d91565b61065082610e24565b610658610efb565b61066061066c565b98975050505050505050565b7f0a6f646cd611241d8073675e00d1a1ff700fbf1b53fcf473de56d1e6e4b714ba60005260046020527f078d888f9b66f3f8bfa10909e31f1e16240db73449f0500afdbbe3a70da457cc5460ff1690565b7f916daedf6915000ff68ced2f0b6773fe6f2582237f92c3c95bb4d7940723007160009081526020527fd2ea0feb732edb0ffe32efd33a6b9d24d46b16eb34a4d07ce256537b6f131e425490565b7f2544fbb90000000000000000000000000000000000000000000000000000000090565b61073761088b565b600160a060020a0316331461074b57600080fd5b6107558282610bbb565b5050565b7fffa3a5a0e192028fc343362a39c5688e5a60819a4dc5ab3ee70c25bc25b78dd660005260046020527f265a43ea29ede07170a30cb6d77d0ab5810eee752b72432f7be348bde74aa08f5460ff1690565b6107b261088b565b600160a060020a031633146107c657600080fd5b7f2670ecc91ec356e32067fd27b36614132d727b84a1e03e08f412a4f2cf07597460009081526020527f3d7fe2ee9790702383ef0118b516833ef2542132d3ca4ac6c77f62f1230fa61055565b600061081d6108e2565b600160a060020a0316638d0680436040518163ffffffff1660e060020a028152600401602060405180830381600087803b15801561085a57600080fd5b505af115801561086e573d6000803e3d6000fd5b505050506040513d602081101561088457600080fd5b5051905090565b7f02016836a56b71f0d02689e69e326f4f4c1b9057164ef592671cf0d37c8040c060005260026020527fb7802e97e87ef2842a6cce7da7ffaeaedaa2f61a6a7870b23d9d01fc9b73712e54600160a060020a031690565b7f5a74bb7e202fb8e4bf311841c7d64ec19df195fee77d7e7ae749b27921b6ddfe60005260026020527fab54f3fbbe62c59b7876a9bf9bd5e0c22dbae93f4d8ee0438f7ce62b198eb0e054600160a060020a031690565b7fb120ceec05576ad0c710bc6e85f1768535e27554458f05dcbb5c65b8c7a749b060009081526020527fe66bef0282a446f9848e2903380099bb6e431483ee78778868f33b4a154c818b5490565b600660016000909192565b61099a61088b565b600160a060020a031633146109ae57600080fd5b6109b781610d91565b50565b7fbbd454018e72a3f6c02bbd785bacc49e46292744f3f6761276723823aa33232060009081526020527f242329173dfc316001df0a0c3d5a8f58a7ffb1a8b7d99c268303b9a741bacdf95490565b610a1061088b565b600160a060020a03163314610a2457600080fd5b6109b781610d0b565b610a3561088b565b600160a060020a03163314610a4957600080fd5b7fffa3a5a0e192028fc343362a39c5688e5a60819a4dc5ab3ee70c25bc25b78dd660005260046020527f265a43ea29ede07170a30cb6d77d0ab5810eee752b72432f7be348bde74aa08f805460ff1916911515919091179055565b7f1e8ecaafaddea96ed9ac6d2642dcdfe1bebe58a930b1085842d8fc122b371ee560009081526020527fd5c78dd9468716ca9bb96be25d56436811b20aab3523a9904b12deef1cab239d5490565b7f2670ecc91ec356e32067fd27b36614132d727b84a1e03e08f412a4f2cf07597460009081526020527f3d7fe2ee9790702383ef0118b516833ef2542132d3ca4ac6c77f62f1230fa6105490565b610b4861088b565b600160a060020a03163314610b5c57600080fd5b6109b781610e24565b7f55b3774520b5993024893d303890baa4e84b1244a43c60034d1ced2d3cf2b04b60009081526020527ff7d5eefab3776d7f0450bd0193564bcb4f832ce313ff2836c450fc63a4b944195490565b6000903b1190565b600080600080600086118015610bd15750600085115b1515610bdc57600080fd5b85851415610be957600080fd5b506000925082915060ff905060015b831580610c03575082155b15610c4b5783158015610c17575085828716145b15610c20578093505b82158015610c2f575084828616145b15610c38578092505b6101009190910260ff1790600101610bf8565b5050600060208190527ff6c66672b1a9fe5622677597b0da8fd180a2c85696efbcf7fe4b1e0f4f0f6108949094557f2f30286a16f86ee067618e1a246990e40c07b7749418a6dd3133f9cfb7e814cc919091557f242329173dfc316001df0a0c3d5a8f58a7ffb1a8b7d99c268303b9a741bacdf9919091557ffb792ae4ad11102b93f26a51b3749c2b3667f8b561566a4806d49896928115949091527f7b62b32ff48350e85ce95b571fde6f8b1096bc44a26db769ad6d0b3a26bf1c6d55565b7f55b3774520b5993024893d303890baa4e84b1244a43c60034d1ced2d3cf2b04b600090815260209081527ff7d5eefab3776d7f0450bd0193564bcb4f832ce313ff2836c450fc63a4b944198290556040805183815290517f52264b89e0fceafb26e79fd49ef8a366eb6297483bf4035b027f0c99a7ad512e929181900390910190a150565b60008111610d9e57600080fd5b7f916daedf6915000ff68ced2f0b6773fe6f2582237f92c3c95bb4d79407230071600090815260209081527fd2ea0feb732edb0ffe32efd33a6b9d24d46b16eb34a4d07ce256537b6f131e428290556040805183815290517f4fb76205cd57c896b21511d2114137d8e901b4ccd659e1a0f97d6306795264fb929181900390910190a150565b600160a060020a0381161515610e3957600080fd5b7f8be0079c531659141344cd1fd0a4f28419497f9722a3daafe3b4186f6b6457e0610e6261088b565b60408051600160a060020a03928316815291841660208301528051918290030190a17f02016836a56b71f0d02689e69e326f4f4c1b9057164ef592671cf0d37c8040c060005260026020527fb7802e97e87ef2842a6cce7da7ffaeaedaa2f61a6a7870b23d9d01fc9b73712e805473ffffffffffffffffffffffffffffffffffffffff1916600160a060020a0392909216919091179055565b7f0a6f646cd611241d8073675e00d1a1ff700fbf1b53fcf473de56d1e6e4b714ba60005260046020527f078d888f9b66f3f8bfa10909e31f1e16240db73449f0500afdbbe3a70da457cc805460ff191660011790555600a165627a7a723058206135b26405adf4b624f3a35919ab2b910ca3974851200de788ca58185edc69420029",
          "opcodes": "PUSH1 0x80 PUSH1 0x40 MSTORE CALLVALUE DUP1 ISZERO PUSH2 0x10 JUMPI PUSH1 0x0 DUP1 REVERT JUMPDEST POP PUSH2 0xF7E DUP1 PUSH2 0x20 PUSH1 0x0 CODECOPY PUSH1 0x0 RETURN STOP PUSH1 0x80 PUSH1 0x40 MSTORE PUSH1 0x4 CALLDATASIZE LT PUSH2 0x103 JUMPI PUSH4 0xFFFFFFFF PUSH1 0xE0 PUSH1 0x2 EXP PUSH1 0x0 CALLDATALOAD DIV AND PUSH4 0x1544298E DUP2 EQ PUSH2 0x108 JUMPI DUP1 PUSH4 0x25FBF4EE EQ PUSH2 0x12F JUMPI DUP1 PUSH4 0x392E53CD EQ PUSH2 0x17C JUMPI DUP1 PUSH4 0x3F0A9F65 EQ PUSH2 0x191 JUMPI DUP1 PUSH4 0x437764DF EQ PUSH2 0x1A6 JUMPI DUP1 PUSH4 0x467AD35A EQ PUSH2 0x1F0 JUMPI DUP1 PUSH4 0x4D4CB7A2 EQ PUSH2 0x20D JUMPI DUP1 PUSH4 0x7BAC29C7 EQ PUSH2 0x222 JUMPI DUP1 PUSH4 0x8D068043 EQ PUSH2 0x23A JUMPI DUP1 PUSH4 0x8DA5CB5B EQ PUSH2 0x24F JUMPI DUP1 PUSH4 0x99439089 EQ PUSH2 0x280 JUMPI DUP1 PUSH4 0x9A454B99 EQ PUSH2 0x295 JUMPI DUP1 PUSH4 0x9CB7595A EQ PUSH2 0x2AA JUMPI DUP1 PUSH4 0xACF5C689 EQ PUSH2 0x2EB JUMPI DUP1 PUSH4 0xB0750611 EQ PUSH2 0x303 JUMPI DUP1 PUSH4 0xBF1FE420 EQ PUSH2 0x318 JUMPI DUP1 PUSH4 0xC2231AD2 EQ PUSH2 0x330 JUMPI DUP1 PUSH4 0xDAE5F0FD EQ PUSH2 0x34A JUMPI DUP1 PUSH4 0xE5789D03 EQ PUSH2 0x35F JUMPI DUP1 PUSH4 0xF2FDE38B EQ PUSH2 0x374 JUMPI DUP1 PUSH4 0xFE173B97 EQ PUSH2 0x395 JUMPI JUMPDEST PUSH1 0x0 DUP1 REVERT JUMPDEST CALLVALUE DUP1 ISZERO PUSH2 0x114 JUMPI PUSH1 0x0 DUP1 REVERT JUMPDEST POP PUSH2 0x11D PUSH2 0x3AA JUMP JUMPDEST PUSH1 0x40 DUP1 MLOAD SWAP2 DUP3 MSTORE MLOAD SWAP1 DUP2 SWAP1 SUB PUSH1 0x20 ADD SWAP1 RETURN JUMPDEST CALLVALUE DUP1 ISZERO PUSH2 0x13B JUMPI PUSH1 0x0 DUP1 REVERT JUMPDEST POP PUSH2 0x168 PUSH1 0x4 CALLDATALOAD PUSH1 0x24 CALLDATALOAD PUSH1 0x1 PUSH1 0xA0 PUSH1 0x2 EXP SUB PUSH1 0x44 CALLDATALOAD DUP2 AND SWAP1 PUSH1 0x64 CALLDATALOAD SWAP1 PUSH1 0x84 CALLDATALOAD SWAP1 PUSH1 0xA4 CALLDATALOAD SWAP1 PUSH1 0xC4 CALLDATALOAD AND PUSH2 0x3F8 JUMP JUMPDEST PUSH1 0x40 DUP1 MLOAD SWAP2 ISZERO ISZERO DUP3 MSTORE MLOAD SWAP1 DUP2 SWAP1 SUB PUSH1 0x20 ADD SWAP1 RETURN JUMPDEST CALLVALUE DUP1 ISZERO PUSH2 0x188 JUMPI PUSH1 0x0 DUP1 REVERT JUMPDEST POP PUSH2 0x168 PUSH2 0x66C JUMP JUMPDEST CALLVALUE DUP1 ISZERO PUSH2 0x19D JUMPI PUSH1 0x0 DUP1 REVERT JUMPDEST POP PUSH2 0x11D PUSH2 0x6BD JUMP JUMPDEST CALLVALUE DUP1 ISZERO PUSH2 0x1B2 JUMPI PUSH1 0x0 DUP1 REVERT JUMPDEST POP PUSH2 0x1BB PUSH2 0x70B JUMP JUMPDEST PUSH1 0x40 DUP1 MLOAD PUSH32 0xFFFFFFFF00000000000000000000000000000000000000000000000000000000 SWAP1 SWAP3 AND DUP3 MSTORE MLOAD SWAP1 DUP2 SWAP1 SUB PUSH1 0x20 ADD SWAP1 RETURN JUMPDEST CALLVALUE DUP1 ISZERO PUSH2 0x1FC JUMPI PUSH1 0x0 DUP1 REVERT JUMPDEST POP PUSH2 0x20B PUSH1 0x4 CALLDATALOAD PUSH1 0x24 CALLDATALOAD PUSH2 0x72F JUMP JUMPDEST STOP JUMPDEST CALLVALUE DUP1 ISZERO PUSH2 0x219 JUMPI PUSH1 0x0 DUP1 REVERT JUMPDEST POP PUSH2 0x168 PUSH2 0x759 JUMP JUMPDEST CALLVALUE DUP1 ISZERO PUSH2 0x22E JUMPI PUSH1 0x0 DUP1 REVERT JUMPDEST POP PUSH2 0x20B PUSH1 0x4 CALLDATALOAD PUSH2 0x7AA JUMP JUMPDEST CALLVALUE DUP1 ISZERO PUSH2 0x246 JUMPI PUSH1 0x0 DUP1 REVERT JUMPDEST POP PUSH2 0x11D PUSH2 0x813 JUMP JUMPDEST CALLVALUE DUP1 ISZERO PUSH2 0x25B JUMPI PUSH1 0x0 DUP1 REVERT JUMPDEST POP PUSH2 0x264 PUSH2 0x88B JUMP JUMPDEST PUSH1 0x40 DUP1 MLOAD PUSH1 0x1 PUSH1 0xA0 PUSH1 0x2 EXP SUB SWAP1 SWAP3 AND DUP3 MSTORE MLOAD SWAP1 DUP2 SWAP1 SUB PUSH1 0x20 ADD SWAP1 RETURN JUMPDEST CALLVALUE DUP1 ISZERO PUSH2 0x28C JUMPI PUSH1 0x0 DUP1 REVERT JUMPDEST POP PUSH2 0x264 PUSH2 0x8E2 JUMP JUMPDEST CALLVALUE DUP1 ISZERO PUSH2 0x2A1 JUMPI PUSH1 0x0 DUP1 REVERT JUMPDEST POP PUSH2 0x11D PUSH2 0x939 JUMP JUMPDEST CALLVALUE DUP1 ISZERO PUSH2 0x2B6 JUMPI PUSH1 0x0 DUP1 REVERT JUMPDEST POP PUSH2 0x2BF PUSH2 0x987 JUMP JUMPDEST PUSH1 0x40 DUP1 MLOAD PUSH8 0xFFFFFFFFFFFFFFFF SWAP5 DUP6 AND DUP2 MSTORE SWAP3 DUP5 AND PUSH1 0x20 DUP5 ADD MSTORE SWAP3 AND DUP2 DUP4 ADD MSTORE SWAP1 MLOAD SWAP1 DUP2 SWAP1 SUB PUSH1 0x60 ADD SWAP1 RETURN JUMPDEST CALLVALUE DUP1 ISZERO PUSH2 0x2F7 JUMPI PUSH1 0x0 DUP1 REVERT JUMPDEST POP PUSH2 0x20B PUSH1 0x4 CALLDATALOAD PUSH2 0x992 JUMP JUMPDEST CALLVALUE DUP1 ISZERO PUSH2 0x30F JUMPI PUSH1 0x0 DUP1 REVERT JUMPDEST POP PUSH2 0x11D PUSH2 0x9BA JUMP JUMPDEST CALLVALUE DUP1 ISZERO PUSH2 0x324 JUMPI PUSH1 0x0 DUP1 REVERT JUMPDEST POP PUSH2 0x20B PUSH1 0x4 CALLDATALOAD PUSH2 0xA08 JUMP JUMPDEST CALLVALUE DUP1 ISZERO PUSH2 0x33C JUMPI PUSH1 0x0 DUP1 REVERT JUMPDEST POP PUSH2 0x20B PUSH1 0x4 CALLDATALOAD ISZERO ISZERO PUSH2 0xA2D JUMP JUMPDEST CALLVALUE DUP1 ISZERO PUSH2 0x356 JUMPI PUSH1 0x0 DUP1 REVERT JUMPDEST POP PUSH2 0x11D PUSH2 0xAA4 JUMP JUMPDEST CALLVALUE DUP1 ISZERO PUSH2 0x36B JUMPI PUSH1 0x0 DUP1 REVERT JUMPDEST POP PUSH2 0x11D PUSH2 0xAF2 JUMP JUMPDEST CALLVALUE DUP1 ISZERO PUSH2 0x380 JUMPI PUSH1 0x0 DUP1 REVERT JUMPDEST POP PUSH2 0x20B PUSH1 0x1 PUSH1 0xA0 PUSH1 0x2 EXP SUB PUSH1 0x4 CALLDATALOAD AND PUSH2 0xB40 JUMP JUMPDEST CALLVALUE DUP1 ISZERO PUSH2 0x3A1 JUMPI PUSH1 0x0 DUP1 REVERT JUMPDEST POP PUSH2 0x11D PUSH2 0xB65 JUMP JUMPDEST PUSH32 0x67D6F42A1ED69C62022F2D160DDC6F2F0ACD37AD1DB0C24F4702D7D3343A4ADD PUSH1 0x0 SWAP1 DUP2 MSTORE PUSH1 0x20 MSTORE PUSH32 0xF6C66672B1A9FE5622677597B0DA8FD180A2C85696EFBCF7FE4B1E0F4F0F6108 SLOAD SWAP1 JUMP JUMPDEST PUSH1 0x40 DUP1 MLOAD PUSH1 0x4 DUP2 MSTORE PUSH1 0x24 DUP2 ADD DUP3 MSTORE PUSH1 0x20 DUP2 ADD DUP1 MLOAD PUSH28 0xFFFFFFFFFFFFFFFFFFFFFFFFFFFFFFFFFFFFFFFFFFFFFFFFFFFFFFFF AND PUSH32 0x6FDE820200000000000000000000000000000000000000000000000000000000 OR DUP2 MSTORE SWAP2 MLOAD DUP2 MLOAD PUSH1 0x0 SWAP4 ADDRESS SWAP4 SWAP3 SWAP2 DUP3 SWAP2 SWAP1 DUP1 DUP4 DUP4 DUP10 JUMPDEST DUP4 DUP2 LT ISZERO PUSH2 0x479 JUMPI DUP2 DUP2 ADD MLOAD DUP4 DUP3 ADD MSTORE PUSH1 0x20 ADD PUSH2 0x461 JUMP JUMPDEST POP POP POP POP SWAP1 POP SWAP1 DUP2 ADD SWAP1 PUSH1 0x1F AND DUP1 ISZERO PUSH2 0x4A6 JUMPI DUP1 DUP3 SUB DUP1 MLOAD PUSH1 0x1 DUP4 PUSH1 0x20 SUB PUSH2 0x100 EXP SUB NOT AND DUP2 MSTORE PUSH1 0x20 ADD SWAP2 POP JUMPDEST POP SWAP2 POP POP PUSH1 0x0 PUSH1 0x40 MLOAD DUP1 DUP4 SUB DUP2 PUSH1 0x0 DUP7 GAS CALL SWAP2 POP POP ISZERO DUP1 PUSH2 0x538 JUMPI POP ADDRESS PUSH1 0x1 PUSH1 0xA0 PUSH1 0x2 EXP SUB AND PUSH4 0x6FDE8202 PUSH1 0x40 MLOAD DUP2 PUSH4 0xFFFFFFFF AND PUSH1 0xE0 PUSH1 0x2 EXP MUL DUP2 MSTORE PUSH1 0x4 ADD PUSH1 0x20 PUSH1 0x40 MLOAD DUP1 DUP4 SUB DUP2 PUSH1 0x0 DUP8 DUP1 EXTCODESIZE ISZERO DUP1 ISZERO PUSH2 0x500 JUMPI PUSH1 0x0 DUP1 REVERT JUMPDEST POP GAS CALL ISZERO DUP1 ISZERO PUSH2 0x514 JUMPI RETURNDATASIZE PUSH1 0x0 DUP1 RETURNDATACOPY RETURNDATASIZE PUSH1 0x0 REVERT JUMPDEST POP POP POP POP PUSH1 0x40 MLOAD RETURNDATASIZE PUSH1 0x20 DUP2 LT ISZERO PUSH2 0x52A JUMPI PUSH1 0x0 DUP1 REVERT JUMPDEST POP MLOAD PUSH1 0x1 PUSH1 0xA0 PUSH1 0x2 EXP SUB AND CALLER EQ JUMPDEST DUP1 PUSH2 0x542 JUMPI POP CALLER ADDRESS EQ JUMPDEST ISZERO ISZERO PUSH2 0x54D JUMPI PUSH1 0x0 DUP1 REVERT JUMPDEST PUSH2 0x555 PUSH2 0x66C JUMP JUMPDEST ISZERO PUSH2 0x55F JUMPI PUSH1 0x0 DUP1 REVERT JUMPDEST PUSH2 0x568 DUP7 PUSH2 0xBB3 JUMP JUMPDEST ISZERO ISZERO PUSH2 0x573 JUMPI PUSH1 0x0 DUP1 REVERT JUMPDEST PUSH2 0x57D DUP9 DUP9 PUSH2 0xBBB JUMP JUMPDEST PUSH32 0xAB54F3FBBE62C59B7876A9BF9BD5E0C22DBAE93F4D8EE0438F7CE62B198EB0E0 DUP1 SLOAD PUSH20 0xFFFFFFFFFFFFFFFFFFFFFFFFFFFFFFFFFFFFFFFF NOT AND PUSH1 0x1 PUSH1 0xA0 PUSH1 0x2 EXP SUB DUP9 AND OR SWAP1 SSTORE PUSH1 0x0 PUSH1 0x20 DUP2 SWAP1 MSTORE NUMBER PUSH32 0xE66BEF0282A446F9848E2903380099BB6E431483EE78778868F33B4A154C818B SSTORE PUSH32 0x2670ECC91EC356E32067FD27B36614132D727B84A1E03E08F412A4F2CF075974 SWAP1 MSTORE PUSH32 0x3D7FE2EE9790702383EF0118B516833EF2542132D3CA4AC6C77F62F1230FA610 DUP6 SWAP1 SSTORE PUSH2 0x63E DUP5 PUSH2 0xD0B JUMP JUMPDEST PUSH2 0x647 DUP4 PUSH2 0xD91 JUMP JUMPDEST PUSH2 0x650 DUP3 PUSH2 0xE24 JUMP JUMPDEST PUSH2 0x658 PUSH2 0xEFB JUMP JUMPDEST PUSH2 0x660 PUSH2 0x66C JUMP JUMPDEST SWAP9 SWAP8 POP POP POP POP POP POP POP POP JUMP JUMPDEST PUSH32 0xA6F646CD611241D8073675E00D1A1FF700FBF1B53FCF473DE56D1E6E4B714BA PUSH1 0x0 MSTORE PUSH1 0x4 PUSH1 0x20 MSTORE PUSH32 0x78D888F9B66F3F8BFA10909E31F1E16240DB73449F0500AFDBBE3A70DA457CC SLOAD PUSH1 0xFF AND SWAP1 JUMP JUMPDEST PUSH32 0x916DAEDF6915000FF68CED2F0B6773FE6F2582237F92C3C95BB4D79407230071 PUSH1 0x0 SWAP1 DUP2 MSTORE PUSH1 0x20 MSTORE PUSH32 0xD2EA0FEB732EDB0FFE32EFD33A6B9D24D46B16EB34A4D07CE256537B6F131E42 SLOAD SWAP1 JUMP JUMPDEST PUSH32 0x2544FBB900000000000000000000000000000000000000000000000000000000 SWAP1 JUMP JUMPDEST PUSH2 0x737 PUSH2 0x88B JUMP JUMPDEST PUSH1 0x1 PUSH1 0xA0 PUSH1 0x2 EXP SUB AND CALLER EQ PUSH2 0x74B JUMPI PUSH1 0x0 DUP1 REVERT JUMPDEST PUSH2 0x755 DUP3 DUP3 PUSH2 0xBBB JUMP JUMPDEST POP POP JUMP JUMPDEST PUSH32 0xFFA3A5A0E192028FC343362A39C5688E5A60819A4DC5AB3EE70C25BC25B78DD6 PUSH1 0x0 MSTORE PUSH1 0x4 PUSH1 0x20 MSTORE PUSH32 0x265A43EA29EDE07170A30CB6D77D0AB5810EEE752B72432F7BE348BDE74AA08F SLOAD PUSH1 0xFF AND SWAP1 JUMP JUMPDEST PUSH2 0x7B2 PUSH2 0x88B JUMP JUMPDEST PUSH1 0x1 PUSH1 0xA0 PUSH1 0x2 EXP SUB AND CALLER EQ PUSH2 0x7C6 JUMPI PUSH1 0x0 DUP1 REVERT JUMPDEST PUSH32 0x2670ECC91EC356E32067FD27B36614132D727B84A1E03E08F412A4F2CF075974 PUSH1 0x0 SWAP1 DUP2 MSTORE PUSH1 0x20 MSTORE PUSH32 0x3D7FE2EE9790702383EF0118B516833EF2542132D3CA4AC6C77F62F1230FA610 SSTORE JUMP JUMPDEST PUSH1 0x0 PUSH2 0x81D PUSH2 0x8E2 JUMP JUMPDEST PUSH1 0x1 PUSH1 0xA0 PUSH1 0x2 EXP SUB AND PUSH4 0x8D068043 PUSH1 0x40 MLOAD DUP2 PUSH4 0xFFFFFFFF AND PUSH1 0xE0 PUSH1 0x2 EXP MUL DUP2 MSTORE PUSH1 0x4 ADD PUSH1 0x20 PUSH1 0x40 MLOAD DUP1 DUP4 SUB DUP2 PUSH1 0x0 DUP8 DUP1 EXTCODESIZE ISZERO DUP1 ISZERO PUSH2 0x85A JUMPI PUSH1 0x0 DUP1 REVERT JUMPDEST POP GAS CALL ISZERO DUP1 ISZERO PUSH2 0x86E JUMPI RETURNDATASIZE PUSH1 0x0 DUP1 RETURNDATACOPY RETURNDATASIZE PUSH1 0x0 REVERT JUMPDEST POP POP POP POP PUSH1 0x40 MLOAD RETURNDATASIZE PUSH1 0x20 DUP2 LT ISZERO PUSH2 0x884 JUMPI PUSH1 0x0 DUP1 REVERT JUMPDEST POP MLOAD SWAP1 POP SWAP1 JUMP JUMPDEST PUSH32 0x2016836A56B71F0D02689E69E326F4F4C1B9057164EF592671CF0D37C8040C0 PUSH1 0x0 MSTORE PUSH1 0x2 PUSH1 0x20 MSTORE PUSH32 0xB7802E97E87EF2842A6CCE7DA7FFAEAEDAA2F61A6A7870B23D9D01FC9B73712E SLOAD PUSH1 0x1 PUSH1 0xA0 PUSH1 0x2 EXP SUB AND SWAP1 JUMP JUMPDEST PUSH32 0x5A74BB7E202FB8E4BF311841C7D64EC19DF195FEE77D7E7AE749B27921B6DDFE PUSH1 0x0 MSTORE PUSH1 0x2 PUSH1 0x20 MSTORE PUSH32 0xAB54F3FBBE62C59B7876A9BF9BD5E0C22DBAE93F4D8EE0438F7CE62B198EB0E0 SLOAD PUSH1 0x1 PUSH1 0xA0 PUSH1 0x2 EXP SUB AND SWAP1 JUMP JUMPDEST PUSH32 0xB120CEEC05576AD0C710BC6E85F1768535E27554458F05DCBB5C65B8C7A749B0 PUSH1 0x0 SWAP1 DUP2 MSTORE PUSH1 0x20 MSTORE PUSH32 0xE66BEF0282A446F9848E2903380099BB6E431483EE78778868F33B4A154C818B SLOAD SWAP1 JUMP JUMPDEST PUSH1 0x6 PUSH1 0x1 PUSH1 0x0 SWAP1 SWAP2 SWAP3 JUMP JUMPDEST PUSH2 0x99A PUSH2 0x88B JUMP JUMPDEST PUSH1 0x1 PUSH1 0xA0 PUSH1 0x2 EXP SUB AND CALLER EQ PUSH2 0x9AE JUMPI PUSH1 0x0 DUP1 REVERT JUMPDEST PUSH2 0x9B7 DUP2 PUSH2 0xD91 JUMP JUMPDEST POP JUMP JUMPDEST PUSH32 0xBBD454018E72A3F6C02BBD785BACC49E46292744F3F6761276723823AA332320 PUSH1 0x0 SWAP1 DUP2 MSTORE PUSH1 0x20 MSTORE PUSH32 0x242329173DFC316001DF0A0C3D5A8F58A7FFB1A8B7D99C268303B9A741BACDF9 SLOAD SWAP1 JUMP JUMPDEST PUSH2 0xA10 PUSH2 0x88B JUMP JUMPDEST PUSH1 0x1 PUSH1 0xA0 PUSH1 0x2 EXP SUB AND CALLER EQ PUSH2 0xA24 JUMPI PUSH1 0x0 DUP1 REVERT JUMPDEST PUSH2 0x9B7 DUP2 PUSH2 0xD0B JUMP JUMPDEST PUSH2 0xA35 PUSH2 0x88B JUMP JUMPDEST PUSH1 0x1 PUSH1 0xA0 PUSH1 0x2 EXP SUB AND CALLER EQ PUSH2 0xA49 JUMPI PUSH1 0x0 DUP1 REVERT JUMPDEST PUSH32 0xFFA3A5A0E192028FC343362A39C5688E5A60819A4DC5AB3EE70C25BC25B78DD6 PUSH1 0x0 MSTORE PUSH1 0x4 PUSH1 0x20 MSTORE PUSH32 0x265A43EA29EDE07170A30CB6D77D0AB5810EEE752B72432F7BE348BDE74AA08F DUP1 SLOAD PUSH1 0xFF NOT AND SWAP2 ISZERO ISZERO SWAP2 SWAP1 SWAP2 OR SWAP1 SSTORE JUMP JUMPDEST PUSH32 0x1E8ECAAFADDEA96ED9AC6D2642DCDFE1BEBE58A930B1085842D8FC122B371EE5 PUSH1 0x0 SWAP1 DUP2 MSTORE PUSH1 0x20 MSTORE PUSH32 0xD5C78DD9468716CA9BB96BE25D56436811B20AAB3523A9904B12DEEF1CAB239D SLOAD SWAP1 JUMP JUMPDEST PUSH32 0x2670ECC91EC356E32067FD27B36614132D727B84A1E03E08F412A4F2CF075974 PUSH1 0x0 SWAP1 DUP2 MSTORE PUSH1 0x20 MSTORE PUSH32 0x3D7FE2EE9790702383EF0118B516833EF2542132D3CA4AC6C77F62F1230FA610 SLOAD SWAP1 JUMP JUMPDEST PUSH2 0xB48 PUSH2 0x88B JUMP JUMPDEST PUSH1 0x1 PUSH1 0xA0 PUSH1 0x2 EXP SUB AND CALLER EQ PUSH2 0xB5C JUMPI PUSH1 0x0 DUP1 REVERT JUMPDEST PUSH2 0x9B7 DUP2 PUSH2 0xE24 JUMP JUMPDEST PUSH32 0x55B3774520B5993024893D303890BAA4E84B1244A43C60034D1CED2D3CF2B04B PUSH1 0x0 SWAP1 DUP2 MSTORE PUSH1 0x20 MSTORE PUSH32 0xF7D5EEFAB3776D7F0450BD0193564BCB4F832CE313FF2836C450FC63A4B94419 SLOAD SWAP1 JUMP JUMPDEST PUSH1 0x0 SWAP1 EXTCODESIZE GT SWAP1 JUMP JUMPDEST PUSH1 0x0 DUP1 PUSH1 0x0 DUP1 PUSH1 0x0 DUP7 GT DUP1 ISZERO PUSH2 0xBD1 JUMPI POP PUSH1 0x0 DUP6 GT JUMPDEST ISZERO ISZERO PUSH2 0xBDC JUMPI PUSH1 0x0 DUP1 REVERT JUMPDEST DUP6 DUP6 EQ ISZERO PUSH2 0xBE9 JUMPI PUSH1 0x0 DUP1 REVERT JUMPDEST POP PUSH1 0x0 SWAP3 POP DUP3 SWAP2 POP PUSH1 0xFF SWAP1 POP PUSH1 0x1 JUMPDEST DUP4 ISZERO DUP1 PUSH2 0xC03 JUMPI POP DUP3 ISZERO JUMPDEST ISZERO PUSH2 0xC4B JUMPI DUP4 ISZERO DUP1 ISZERO PUSH2 0xC17 JUMPI POP DUP6 DUP3 DUP8 AND EQ JUMPDEST ISZERO PUSH2 0xC20 JUMPI DUP1 SWAP4 POP JUMPDEST DUP3 ISZERO DUP1 ISZERO PUSH2 0xC2F JUMPI POP DUP5 DUP3 DUP7 AND EQ JUMPDEST ISZERO PUSH2 0xC38 JUMPI DUP1 SWAP3 POP JUMPDEST PUSH2 0x100 SWAP2 SWAP1 SWAP2 MUL PUSH1 0xFF OR SWAP1 PUSH1 0x1 ADD PUSH2 0xBF8 JUMP JUMPDEST POP POP PUSH1 0x0 PUSH1 0x20 DUP2 SWAP1 MSTORE PUSH32 0xF6C66672B1A9FE5622677597B0DA8FD180A2C85696EFBCF7FE4B1E0F4F0F6108 SWAP5 SWAP1 SWAP5 SSTORE PUSH32 0x2F30286A16F86EE067618E1A246990E40C07B7749418A6DD3133F9CFB7E814CC SWAP2 SWAP1 SWAP2 SSTORE PUSH32 0x242329173DFC316001DF0A0C3D5A8F58A7FFB1A8B7D99C268303B9A741BACDF9 SWAP2 SWAP1 SWAP2 SSTORE PUSH32 0xFB792AE4AD11102B93F26A51B3749C2B3667F8B561566A4806D4989692811594 SWAP1 SWAP2 MSTORE PUSH32 0x7B62B32FF48350E85CE95B571FDE6F8B1096BC44A26DB769AD6D0B3A26BF1C6D SSTORE JUMP JUMPDEST PUSH32 0x55B3774520B5993024893D303890BAA4E84B1244A43C60034D1CED2D3CF2B04B PUSH1 0x0 SWAP1 DUP2 MSTORE PUSH1 0x20 SWAP1 DUP2 MSTORE PUSH32 0xF7D5EEFAB3776D7F0450BD0193564BCB4F832CE313FF2836C450FC63A4B94419 DUP3 SWAP1 SSTORE PUSH1 0x40 DUP1 MLOAD DUP4 DUP2 MSTORE SWAP1 MLOAD PUSH32 0x52264B89E0FCEAFB26E79FD49EF8A366EB6297483BF4035B027F0C99A7AD512E SWAP3 SWAP2 DUP2 SWAP1 SUB SWAP1 SWAP2 ADD SWAP1 LOG1 POP JUMP JUMPDEST PUSH1 0x0 DUP2 GT PUSH2 0xD9E JUMPI PUSH1 0x0 DUP1 REVERT JUMPDEST PUSH32 0x916DAEDF6915000FF68CED2F0B6773FE6F2582237F92C3C95BB4D79407230071 PUSH1 0x0 SWAP1 DUP2 MSTORE PUSH1 0x20 SWAP1 DUP2 MSTORE PUSH32 0xD2EA0FEB732EDB0FFE32EFD33A6B9D24D46B16EB34A4D07CE256537B6F131E42 DUP3 SWAP1 SSTORE PUSH1 0x40 DUP1 MLOAD DUP4 DUP2 MSTORE SWAP1 MLOAD PUSH32 0x4FB76205CD57C896B21511D2114137D8E901B4CCD659E1A0F97D6306795264FB SWAP3 SWAP2 DUP2 SWAP1 SUB SWAP1 SWAP2 ADD SWAP1 LOG1 POP JUMP JUMPDEST PUSH1 0x1 PUSH1 0xA0 PUSH1 0x2 EXP SUB DUP2 AND ISZERO ISZERO PUSH2 0xE39 JUMPI PUSH1 0x0 DUP1 REVERT JUMPDEST PUSH32 0x8BE0079C531659141344CD1FD0A4F28419497F9722A3DAAFE3B4186F6B6457E0 PUSH2 0xE62 PUSH2 0x88B JUMP JUMPDEST PUSH1 0x40 DUP1 MLOAD PUSH1 0x1 PUSH1 0xA0 PUSH1 0x2 EXP SUB SWAP3 DUP4 AND DUP2 MSTORE SWAP2 DUP5 AND PUSH1 0x20 DUP4 ADD MSTORE DUP1 MLOAD SWAP2 DUP3 SWAP1 SUB ADD SWAP1 LOG1 PUSH32 0x2016836A56B71F0D02689E69E326F4F4C1B9057164EF592671CF0D37C8040C0 PUSH1 0x0 MSTORE PUSH1 0x2 PUSH1 0x20 MSTORE PUSH32 0xB7802E97E87EF2842A6CCE7DA7FFAEAEDAA2F61A6A7870B23D9D01FC9B73712E DUP1 SLOAD PUSH20 0xFFFFFFFFFFFFFFFFFFFFFFFFFFFFFFFFFFFFFFFF NOT AND PUSH1 0x1 PUSH1 0xA0 PUSH1 0x2 EXP SUB SWAP3 SWAP1 SWAP3 AND SWAP2 SWAP1 SWAP2 OR SWAP1 SSTORE JUMP JUMPDEST PUSH32 0xA6F646CD611241D8073675E00D1A1FF700FBF1B53FCF473DE56D1E6E4B714BA PUSH1 0x0 MSTORE PUSH1 0x4 PUSH1 0x20 MSTORE PUSH32 0x78D888F9B66F3F8BFA10909E31F1E16240DB73449F0500AFDBBE3A70DA457CC DUP1 SLOAD PUSH1 0xFF NOT AND PUSH1 0x1 OR SWAP1 SSTORE JUMP STOP LOG1 PUSH6 0x627A7A723058 KECCAK256 PUSH2 0x35B2 PUSH5 0x5ADF4B624 RETURN LOG3 MSIZE NOT 0xab 0x2b SWAP2 0xc LOG3 SWAP8 0x48 MLOAD KECCAK256 0xd 0xe7 DUP9 0xca PC XOR 0x5e 0xdc PUSH10 0x42002900000000000000 "
        },
        "methodIdentifiers": {
          "allowReentrantRequests()": "4d4cb7a2",
          "decimalShift()": "dae5f0fd",
          "deployedAtBlock()": "9a454b99",
          "destinationChainId()": "b0750611",
          "gasPrice()": "fe173b97",
          "getBridgeInterfacesVersion()": "9cb7595a",
          "getBridgeMode()": "437764df",
          "initialize(uint256,uint256,address,uint256,uint256,uint256,address)": "25fbf4ee",
          "isInitialized()": "392e53cd",
          "maxGasPerTx()": "e5789d03",
          "owner()": "8da5cb5b",
          "requiredBlockConfirmations()": "3f0a9f65",
          "requiredSignatures()": "8d068043",
          "setAllowReentrantRequests(bool)": "c2231ad2",
          "setChainIds(uint256,uint256)": "467ad35a",
          "setGasPrice(uint256)": "bf1fe420",
          "setMaxGasPerTx(uint256)": "7bac29c7",
          "setRequiredBlockConfirmations(uint256)": "acf5c689",
          "sourceChainId()": "1544298e",
          "transferOwnership(address)": "f2fde38b",
          "validatorContract()": "99439089"
        }
      }
    }
  }
}