{
  "contracts/upgradeability/UpgradeabilityProxy.sol": {
    "UpgradeabilityProxy": {
      "abi": [
        {
          "constant": true,
          "inputs": [],
          "name": "version",
          "outputs": [
            {
              "name": "",
              "type": "uint256"
            }
          ],
          "payable": false,
          "stateMutability": "view",
          "type": "function"
        },
        {
          "constant": true,
          "inputs": [],
          "name": "implementation",
          "outputs": [
            {
              "name": "",
              "type": "address"
            }
          ],
          "payable": false,
          "stateMutability": "view",
          "type": "function"
        },
        {
          "payable": true,
          "stateMutability": "payable",
          "type": "fallback"
        },
        {
          "anonymous": false,
          "inputs": [
            {
              "indexed": false,
              "name": "version",
              "type": "uint256"
            },
            {
              "indexed": true,
              "name": "implementation",
              "type": "address"
            }
          ],
          "name": "Upgraded",
          "type": "event"
        }
      ],
      "evm": {
        "bytecode": {
          "linkReferences": {},
          "object": "608060405234801561001057600080fd5b50610156806100206000396000f30060806040526004361061004b5763ffffffff7c010000000000000000000000000000000000000000000000000000000060003504166354fd4d5081146100a35780635c60da1b146100ca575b6000610055610108565b905073ffffffffffffffffffffffffffffffffffffffff8116151561007957600080fd5b60405136600082376000803683855af43d82016040523d6000833e80801561009f573d83f35b3d83fd5b3480156100af57600080fd5b506100b8610124565b60408051918252519081900360200190f35b3480156100d657600080fd5b506100df610108565b6040805173ffffffffffffffffffffffffffffffffffffffff9092168252519081900360200190f35b60015473ffffffffffffffffffffffffffffffffffffffff1690565b600054905600a165627a7a72305820856edb9ed99bfca5cb825743da99368e36180163651aae7451e64b4783b07b030029",
          "opcodes": "PUSH1 0x80 PUSH1 0x40 MSTORE CALLVALUE DUP1 ISZERO PUSH2 0x10 JUMPI PUSH1 0x0 DUP1 REVERT JUMPDEST POP PUSH2 0x156 DUP1 PUSH2 0x20 PUSH1 0x0 CODECOPY PUSH1 0x0 RETURN STOP PUSH1 0x80 PUSH1 0x40 MSTORE PUSH1 0x4 CALLDATASIZE LT PUSH2 0x4B JUMPI PUSH4 0xFFFFFFFF PUSH29 0x100000000000000000000000000000000000000000000000000000000 PUSH1 0x0 CALLDATALOAD DIV AND PUSH4 0x54FD4D50 DUP2 EQ PUSH2 0xA3 JUMPI DUP1 PUSH4 0x5C60DA1B EQ PUSH2 0xCA JUMPI JUMPDEST PUSH1 0x0 PUSH2 0x55 PUSH2 0x108 JUMP JUMPDEST SWAP1 POP PUSH20 0xFFFFFFFFFFFFFFFFFFFFFFFFFFFFFFFFFFFFFFFF DUP2 AND ISZERO ISZERO PUSH2 0x79 JUMPI PUSH1 0x0 DUP1 REVERT JUMPDEST PUSH1 0x40 MLOAD CALLDATASIZE PUSH1 0x0 DUP3 CALLDATACOPY PUSH1 0x0 DUP1 CALLDATASIZE DUP4 DUP6 GAS DELEGATECALL RETURNDATASIZE DUP3 ADD PUSH1 0x40 MSTORE RETURNDATASIZE PUSH1 0x0 DUP4 RETURNDATACOPY DUP1 DUP1 ISZERO PUSH2 0x9F JUMPI RETURNDATASIZE DUP4 RETURN JUMPDEST RETURNDATASIZE DUP4 REVERT JUMPDEST CALLVALUE DUP1 ISZERO PUSH2 0xAF JUMPI PUSH1 0x0 DUP1 REVERT JUMPDEST POP PUSH2 0xB8 PUSH2 0x124 JUMP JUMPDEST PUSH1 0x40 DUP1 MLOAD SWAP2 DUP3 MSTORE MLOAD SWAP1 DUP2 SWAP1 SUB PUSH1 0x20 ADD SWAP1 RETURN JUMPDEST CALLVALUE DUP1 ISZERO PUSH2 0xD6 JUMPI PUSH1 0x0 DUP1 REVERT JUMPDEST POP PUSH2 0xDF PUSH2 0x108 JUMP JUMPDEST PUSH1 0x40 DUP1 MLOAD PUSH20 0xFFFFFFFFFFFFFFFFFFFFFFFFFFFFFFFFFFFFFFFF SWAP1 SWAP3 AND DUP3 MSTORE MLOAD SWAP1 DUP2 SWAP1 SUB PUSH1 0x20 ADD SWAP1 RETURN JUMPDEST PUSH1 0x1 SLOAD PUSH20 0xFFFFFFFFFFFFFFFFFFFFFFFFFFFFFFFFFFFFFFFF AND SWAP1 JUMP JUMPDEST PUSH1 0x0 SLOAD SWAP1 JUMP STOP LOG1 PUSH6 0x627A7A723058 KECCAK256 DUP6 PUSH15 0xDB9ED99BFCA5CB825743DA99368E36 XOR ADD PUSH4 0x651AAE74 MLOAD 0xe6 0x4b 0x47 DUP4 0xb0 PUSH28 0x3002900000000000000000000000000000000000000000000000000 "
        },
        "methodIdentifiers": {
          "implementation()": "5c60da1b",
          "version()": "54fd4d50"
        }
      }
    }
  }
}