{
  "contracts/Initializable.sol": {
    "Initializable": {
      "abi": [
        {
          "constant": true,
          "inputs": [],
          "name": "isInitialized",
          "outputs": [
            {
              "name": "",
              "type": "bool"
            }
          ],
          "payable": false,
          "stateMutability": "view",
          "type": "function"
        }
      ],
      "evm": {
        "bytecode": {
          "linkReferences": {},
          "object": "6080604052348015600f57600080fd5b5060e68061001e6000396000f300608060405260043610603e5763ffffffff7c0100000000000000000000000000000000000000000000000000000000600035041663392e53cd81146043575b600080fd5b348015604e57600080fd5b5060556069565b604080519115158252519081900360200190f35b7f0a6f646cd611241d8073675e00d1a1ff700fbf1b53fcf473de56d1e6e4b714ba60005260046020527f078d888f9b66f3f8bfa10909e31f1e16240db73449f0500afdbbe3a70da457cc5460ff16905600a165627a7a723058201515de8348b5c388dc78f522f817e865c580de6654dabcf7cd2c5375d109f7ef0029",
          "opcodes": "PUSH1 0x80 PUSH1 0x40 MSTORE CALLVALUE DUP1 ISZERO PUSH1 0xF JUMPI PUSH1 0x0 DUP1 REVERT JUMPDEST POP PUSH1 0xE6 DUP1 PUSH2 0x1E PUSH1 0x0 CODECOPY PUSH1 0x0 RETURN STOP PUSH1 0x80 PUSH1 0x40 MSTORE PUSH1 0x4 CALLDATASIZE LT PUSH1 0x3E JUMPI PUSH4 0xFFFFFFFF PUSH29 0x100000000000000000000000000000000000000000000000000000000 PUSH1 0x0 CALLDATALOAD DIV AND PUSH4 0x392E53CD DUP2 EQ PUSH1 0x43 JUMPI JUMPDEST PUSH1 0x0 DUP1 REVERT JUMPDEST CALLVALUE DUP1 ISZERO PUSH1 0x4E JUMPI PUSH1 0x0 DUP1 REVERT JUMPDEST POP PUSH1 0x55 PUSH1 0x69 JUMP JUMPDEST PUSH1 0x40 DUP1 MLOAD SWAP2 ISZERO ISZERO DUP3 MSTORE MLOAD SWAP1 DUP2 SWAP1 SUB PUSH1 0x20 ADD SWAP1 RETURN JUMPDEST PUSH32 0xA6F646CD611241D8073675E00D1A1FF700FBF1B53FCF473DE56D1E6E4B714BA PUSH1 0x0 MSTORE PUSH1 0x4 PUSH1 0x20 MSTORE PUSH32 0x78D888F9B66F3F8BFA10909E31F1E16240DB73449F0500AFDBBE3A70DA457CC SLOAD PUSH1 0xFF AND SWAP1 JUMP STOP LOG1 PUSH6 0x627A7A723058 KECCAK256 ISZERO ISZERO 0xde DUP4 0x48 0xb5 0xc3 DUP9 0xdc PUSH25 0xF522F817E865C580DE6654DABCF7CD2C5375D109F7EF002900 "
        },
        "methodIdentifiers": {
          "isInitialized()": "392e53cd"
        }
      }
    }
  }
}