{
  "contracts/ForeignAMB.sol": {
    "ForeignAMB": {
      "abi": [
        {
          "constant": true,
          "inputs": [],
          "name": "transactionHash",
          "outputs": [
            {
              "name": "",
              "type": "bytes32"
            }
          ],
          "payable": false,
          "stateMutability": "view",
          "type": "function"
        },
        {
          "constant": true,
          "inputs": [],
          "name": "sourceChainId",
          "outputs": [
            {
              "name": "",
              "type": "uint256"
            }
          ],
          "payable": false,
          "stateMutability": "view",
          "type": "function"
        },
        {
          "constant": true,
          "inputs": [
            {
              "name": "_txHash",
              "type": "bytes32"
            }
          ],
          "name": "relayedMessages",
          "outputs": [
            {
              "name": "",
              "type": "bool"
            }
          ],
          "payable": false,
          "stateMutability": "view",
          "type": "function"
        },
        {
          "constant": false,
          "inputs": [
            {
              "name": "_data",
              "type": "bytes"
            },
            {
              "name": "_signatures",
              "type": "bytes"
            }
          ],
          "name": "safeExecuteSignaturesWithAutoGasLimit",
          "outputs": [],
          "payable": false,
          "stateMutability": "nonpayable",
          "type": "function"
        },
        {
          "constant": false,
          "inputs": [
            {
              "name": "_sourceChainId",
              "type": "uint256"
            },
            {
              "name": "_destinationChainId",
              "type": "uint256"
            },
            {
              "name": "_validatorContract",
              "type": "address"
            },
            {
              "name": "_maxGasPerTx",
              "type": "uint256"
            },
            {
              "name": "_gasPrice",
              "type": "uint256"
            },
            {
              "name": "_requiredBlockConfirmations",
              "type": "uint256"
            },
            {
              "name": "_owner",
              "type": "address"
            }
          ],
          "name": "initialize",
          "outputs": [
            {
              "name": "",
              "type": "bool"
            }
          ],
          "payable": false,
          "stateMutability": "nonpayable",
          "type": "function"
        },
        {
          "constant": true,
          "inputs": [],
          "name": "isInitialized",
          "outputs": [
            {
              "name": "",
              "type": "bool"
            }
          ],
          "payable": false,
          "stateMutability": "view",
          "type": "function"
        },
        {
          "constant": true,
          "inputs": [],
          "name": "requiredBlockConfirmations",
          "outputs": [
            {
              "name": "",
              "type": "uint256"
            }
          ],
          "payable": false,
          "stateMutability": "view",
          "type": "function"
        },
        {
          "constant": false,
          "inputs": [
            {
              "name": "_data",
              "type": "bytes"
            },
            {
              "name": "_signatures",
              "type": "bytes"
            }
          ],
          "name": "executeSignatures",
          "outputs": [],
          "payable": false,
          "stateMutability": "nonpayable",
          "type": "function"
        },
        {
          "constant": true,
          "inputs": [
            {
              "name": "_data",
              "type": "bytes"
            }
          ],
          "name": "getMinimumGasUsage",
          "outputs": [
            {
              "name": "gas",
              "type": "uint256"
            }
          ],
          "payable": false,
          "stateMutability": "pure",
          "type": "function"
        },
        {
          "constant": true,
          "inputs": [
            {
              "name": "_messageId",
              "type": "bytes32"
            }
          ],
          "name": "failedMessageReceiver",
          "outputs": [
            {
              "name": "",
              "type": "address"
            }
          ],
          "payable": false,
          "stateMutability": "view",
          "type": "function"
        },
        {
          "constant": true,
          "inputs": [],
          "name": "getBridgeMode",
          "outputs": [
            {
              "name": "_data",
              "type": "bytes4"
            }
          ],
          "payable": false,
          "stateMutability": "pure",
          "type": "function"
        },
        {
          "constant": false,
          "inputs": [
            {
              "name": "_sourceChainId",
              "type": "uint256"
            },
            {
              "name": "_destinationChainId",
              "type": "uint256"
            }
          ],
          "name": "setChainIds",
          "outputs": [],
          "payable": false,
          "stateMutability": "nonpayable",
          "type": "function"
        },
        {
          "constant": true,
          "inputs": [
            {
              "name": "_messageId",
              "type": "bytes32"
            }
          ],
          "name": "failedMessageSender",
          "outputs": [
            {
              "name": "",
              "type": "address"
            }
          ],
          "payable": false,
          "stateMutability": "view",
          "type": "function"
        },
        {
          "constant": true,
          "inputs": [],
          "name": "allowReentrantRequests",
          "outputs": [
            {
              "name": "",
              "type": "bool"
            }
          ],
          "payable": false,
          "stateMutability": "view",
          "type": "function"
        },
        {
          "constant": true,
          "inputs": [],
          "name": "messageId",
          "outputs": [
            {
              "name": "id",
              "type": "bytes32"
            }
          ],
          "payable": false,
          "stateMutability": "view",
          "type": "function"
        },
        {
          "constant": false,
          "inputs": [
            {
              "name": "_maxGasPerTx",
              "type": "uint256"
            }
          ],
          "name": "setMaxGasPerTx",
          "outputs": [],
          "payable": false,
          "stateMutability": "nonpayable",
          "type": "function"
        },
        {
          "constant": true,
          "inputs": [],
          "name": "requiredSignatures",
          "outputs": [
            {
              "name": "",
              "type": "uint256"
            }
          ],
          "payable": false,
          "stateMutability": "view",
          "type": "function"
        },
        {
          "constant": true,
          "inputs": [],
          "name": "owner",
          "outputs": [
            {
              "name": "",
              "type": "address"
            }
          ],
          "payable": false,
          "stateMutability": "view",
          "type": "function"
        },
        {
          "constant": true,
          "inputs": [],
          "name": "validatorContract",
          "outputs": [
            {
              "name": "",
              "type": "address"
            }
          ],
          "payable": false,
          "stateMutability": "view",
          "type": "function"
        },
        {
          "constant": true,
          "inputs": [],
          "name": "deployedAtBlock",
          "outputs": [
            {
              "name": "",
              "type": "uint256"
            }
          ],
          "payable": false,
          "stateMutability": "view",
          "type": "function"
        },
        {
          "constant": true,
          "inputs": [],
          "name": "getBridgeInterfacesVersion",
          "outputs": [
            {
              "name": "major",
              "type": "uint64"
            },
            {
              "name": "minor",
              "type": "uint64"
            },
            {
              "name": "patch",
              "type": "uint64"
            }
          ],
          "payable": false,
          "stateMutability": "pure",
          "type": "function"
        },
        {
          "constant": true,
          "inputs": [],
          "name": "messageSourceChainId",
          "outputs": [
            {
              "name": "id",
              "type": "uint256"
            }
          ],
          "payable": false,
          "stateMutability": "view",
          "type": "function"
        },
        {
          "constant": false,
          "inputs": [
            {
              "name": "_blockConfirmations",
              "type": "uint256"
            }
          ],
          "name": "setRequiredBlockConfirmations",
          "outputs": [],
          "payable": false,
          "stateMutability": "nonpayable",
          "type": "function"
        },
        {
          "constant": true,
          "inputs": [],
          "name": "destinationChainId",
          "outputs": [
            {
              "name": "",
              "type": "uint256"
            }
          ],
          "payable": false,
          "stateMutability": "view",
          "type": "function"
        },
        {
          "constant": false,
          "inputs": [
            {
              "name": "_gasPrice",
              "type": "uint256"
            }
          ],
          "name": "setGasPrice",
          "outputs": [],
          "payable": false,
          "stateMutability": "nonpayable",
          "type": "function"
        },
        {
          "constant": false,
          "inputs": [
            {
              "name": "_enable",
              "type": "bool"
            }
          ],
          "name": "setAllowReentrantRequests",
          "outputs": [],
          "payable": false,
          "stateMutability": "nonpayable",
          "type": "function"
        },
        {
          "constant": true,
          "inputs": [
            {
              "name": "_messageId",
              "type": "bytes32"
            }
          ],
          "name": "messageCallStatus",
          "outputs": [
            {
              "name": "",
              "type": "bool"
            }
          ],
          "payable": false,
          "stateMutability": "view",
          "type": "function"
        },
        {
          "constant": true,
          "inputs": [],
          "name": "messageSender",
          "outputs": [
            {
              "name": "sender",
              "type": "address"
            }
          ],
          "payable": false,
          "stateMutability": "view",
          "type": "function"
        },
        {
          "constant": true,
          "inputs": [],
          "name": "decimalShift",
          "outputs": [
            {
              "name": "",
              "type": "int256"
            }
          ],
          "payable": false,
          "stateMutability": "view",
          "type": "function"
        },
        {
          "constant": false,
          "inputs": [
            {
              "name": "_contract",
              "type": "address"
            },
            {
              "name": "_data",
              "type": "bytes"
            },
            {
              "name": "_gas",
              "type": "uint256"
            }
          ],
          "name": "requireToPassMessage",
          "outputs": [
            {
              "name": "",
              "type": "bytes32"
            }
          ],
          "payable": false,
          "stateMutability": "nonpayable",
          "type": "function"
        },
        {
          "constant": true,
          "inputs": [
            {
              "name": "_messageId",
              "type": "bytes32"
            }
          ],
          "name": "failedMessageDataHash",
          "outputs": [
            {
              "name": "",
              "type": "bytes32"
            }
          ],
          "payable": false,
          "stateMutability": "view",
          "type": "function"
        },
        {
          "constant": true,
          "inputs": [],
          "name": "maxGasPerTx",
          "outputs": [
            {
              "name": "",
              "type": "uint256"
            }
          ],
          "payable": false,
          "stateMutability": "view",
          "type": "function"
        },
        {
          "constant": false,
          "inputs": [
            {
              "name": "_data",
              "type": "bytes"
            },
            {
              "name": "_signatures",
              "type": "bytes"
            },
            {
              "name": "_gas",
              "type": "uint32"
            }
          ],
          "name": "safeExecuteSignaturesWithGasLimit",
          "outputs": [],
          "payable": false,
          "stateMutability": "nonpayable",
          "type": "function"
        },
        {
          "constant": false,
          "inputs": [
            {
              "name": "_data",
              "type": "bytes"
            },
            {
              "name": "_signatures",
              "type": "bytes"
            }
          ],
          "name": "safeExecuteSignatures",
          "outputs": [],
          "payable": false,
          "stateMutability": "nonpayable",
          "type": "function"
        },
        {
          "constant": false,
          "inputs": [
            {
              "name": "newOwner",
              "type": "address"
            }
          ],
          "name": "transferOwnership",
          "outputs": [],
          "payable": false,
          "stateMutability": "nonpayable",
          "type": "function"
        },
        {
          "constant": true,
          "inputs": [],
          "name": "gasPrice",
          "outputs": [
            {
              "name": "",
              "type": "uint256"
            }
          ],
          "payable": false,
          "stateMutability": "view",
          "type": "function"
        },
        {
          "anonymous": false,
          "inputs": [
            {
              "indexed": true,
              "name": "messageId",
              "type": "bytes32"
            },
            {
              "indexed": false,
              "name": "encodedData",
              "type": "bytes"
            }
          ],
          "name": "UserRequestForAffirmation",
          "type": "event"
        },
        {
          "anonymous": false,
          "inputs": [
            {
              "indexed": true,
              "name": "sender",
              "type": "address"
            },
            {
              "indexed": true,
              "name": "executor",
              "type": "address"
            },
            {
              "indexed": true,
              "name": "messageId",
              "type": "bytes32"
            },
            {
              "indexed": false,
              "name": "status",
              "type": "bool"
            }
          ],
          "name": "RelayedMessage",
          "type": "event"
        },
        {
          "anonymous": false,
          "inputs": [
            {
              "indexed": false,
              "name": "gasPrice",
              "type": "uint256"
            }
          ],
          "name": "GasPriceChanged",
          "type": "event"
        },
        {
          "anonymous": false,
          "inputs": [
            {
              "indexed": false,
              "name": "requiredBlockConfirmations",
              "type": "uint256"
            }
          ],
          "name": "RequiredBlockConfirmationChanged",
          "type": "event"
        },
        {
          "anonymous": false,
          "inputs": [
            {
              "indexed": false,
              "name": "previousOwner",
              "type": "address"
            },
            {
              "indexed": false,
              "name": "newOwner",
              "type": "address"
            }
          ],
          "name": "OwnershipTransferred",
          "type": "event"
        }
      ],
      "evm": {
        "bytecode": {
          "linkReferences": {},
          "object": "608060405234801561001057600080fd5b50612c20806100206000396000f3006080604052600436106101a85763ffffffff60e060020a6000350416630ac1c31381146101ad5780631544298e146101d457806321d800ec146101e957806323caab491461021557806325fbf4ee14610243578063392e53cd1461027c5780633f0a9f65146102915780633f7658fd146102a65780633f768c061461033d5780633f9a8e7e14610396578063437764df146103ca578063467ad35a146104115780634a610b041461042c5780634d4cb7a214610444578063669f618b146104595780637bac29c71461046e5780638d068043146104865780638da5cb5b1461049b57806399439089146104b05780639a454b99146104c55780639cb7595a146104da5780639e307dff1461051b578063acf5c68914610530578063b075061114610548578063bf1fe4201461055d578063c2231ad214610575578063cb08a10c1461058f578063d67bdd25146105a7578063dae5f0fd146105bc578063dc8601b3146105d1578063e37c32891461063a578063e5789d0314610652578063e6d562a114610667578063eaa820d714610706578063f2fde38b14610732578063fe173b9714610753575b600080fd5b3480156101b957600080fd5b506101c2610768565b60408051918252519081900360200190f35b3480156101e057600080fd5b506101c2610777565b3480156101f557600080fd5b506102016004356107c5565b604080519115158252519081900360200190f35b34801561022157600080fd5b50610241602460048035828101929082013591813591820191013561088e565b005b34801561024f57600080fd5b50610201600435602435600160a060020a03604435811690606435906084359060a4359060c43516610901565b34801561028857600080fd5b50610201610b75565b34801561029d57600080fd5b506101c2610bc6565b3480156102b257600080fd5b506040805160206004803580820135601f810184900484028501840190955284845261024194369492936024939284019190819084018382808284375050604080516020601f89358b018035918201839004830284018301909452808352979a999881019791965091820194509250829150840183828082843750949750610c149650505050505050565b34801561034957600080fd5b506040805160206004803580820135601f81018490048402850184019095528484526101c2943694929360249392840191908190840183828082843750949750610c649650505050505050565b3480156103a257600080fd5b506103ae600435610c80565b60408051600160a060020a039092168252519081900360200190f35b3480156103d657600080fd5b506103df610d4f565b604080517bffffffffffffffffffffffffffffffffffffffffffffffffffffffff199092168252519081900360200190f35b34801561041d57600080fd5b50610241600435602435610d73565b34801561043857600080fd5b506103ae600435610d9d565b34801561045057600080fd5b50610201610e21565b34801561046557600080fd5b506101c2610e72565b34801561047a57600080fd5b50610241600435610e97565b34801561049257600080fd5b506101c2610f00565b3480156104a757600080fd5b506103ae610f78565b3480156104bc57600080fd5b506103ae610fcf565b3480156104d157600080fd5b506101c2611026565b3480156104e657600080fd5b506104ef611074565b6040805167ffffffffffffffff9485168152928416602084015292168183015290519081900360600190f35b34801561052757600080fd5b506101c261107f565b34801561053c57600080fd5b506102416004356110a4565b34801561055457600080fd5b506101c26110cc565b34801561056957600080fd5b5061024160043561111a565b34801561058157600080fd5b50610241600435151561113f565b34801561059b57600080fd5b506102016004356111b6565b3480156105b357600080fd5b506103ae61123a565b3480156105c857600080fd5b506101c261125f565b3480156105dd57600080fd5b5060408051602060046024803582810135601f81018590048502860185019096528585526101c2958335600160a060020a031695369560449491939091019190819084018382808284375094975050933594506112ad9350505050565b34801561064657600080fd5b506101c26004356112c4565b34801561065e57600080fd5b506101c2611389565b34801561067357600080fd5b506040805160206004803580820135601f810184900484028501840190955284845261024194369492936024939284019190819084018382808284375050604080516020601f89358b018035918201839004830284018301909452808352979a9998810197919650918201945092508291508401838280828437509497505050923563ffffffff1693506113d792505050565b34801561071257600080fd5b50610241602460048035828101929082013591813591820191013561141d565b34801561073e57600080fd5b50610241600160a060020a0360043516611484565b34801561075f57600080fd5b506101c26114a9565b6000610772610e72565b905090565b7f67d6f42a1ed69c62022f2d160ddc6f2f0acd37ad1db0c24f4702d7d3343a4add60009081526020527ff6c66672b1a9fe5622677597b0da8fd180a2c85696efbcf7fe4b1e0f4f0f61085490565b6000600460008360405160200180807f72656c617965644d657373616765730000000000000000000000000000000000815250600f0182600019166000191681526020019150506040516020818303038152906040526040518082805190602001908083835b6020831061084a5780518252601f19909201916020918201910161082b565b51815160209384036101000a600019018019909216911617905260408051929094018290039091208652850195909552929092016000205460ff1695945050505050565b6108fb84848080601f0160208091040260200160405190810160405280939291908181526020018383808284375050604080516020601f8a01819004810282018101909252888152945088935087925082915084018382808284375063ffffffff94506113d79350505050565b50505050565b60408051600481526024810182526020810180517bffffffffffffffffffffffffffffffffffffffffffffffffffffffff167f6fde8202000000000000000000000000000000000000000000000000000000001781529151815160009330939291829190808383895b8381101561098257818101518382015260200161096a565b50505050905090810190601f1680156109af5780820380516001836020036101000a031916815260200191505b509150506000604051808303816000865af19150501580610a41575030600160a060020a0316636fde82026040518163ffffffff1660e060020a028152600401602060405180830381600087803b158015610a0957600080fd5b505af1158015610a1d573d6000803e3d6000fd5b505050506040513d6020811015610a3357600080fd5b5051600160a060020a031633145b80610a4b57503330145b1515610a5657600080fd5b610a5e610b75565b15610a6857600080fd5b610a71866114f7565b1515610a7c57600080fd5b610a8688886114ff565b7fab54f3fbbe62c59b7876a9bf9bd5e0c22dbae93f4d8ee0438f7ce62b198eb0e0805473ffffffffffffffffffffffffffffffffffffffff1916600160a060020a03881617905560006020819052437fe66bef0282a446f9848e2903380099bb6e431483ee78778868f33b4a154c818b557f2670ecc91ec356e32067fd27b36614132d727b84a1e03e08f412a4f2cf07597490527f3d7fe2ee9790702383ef0118b516833ef2542132d3ca4ac6c77f62f1230fa610859055610b478461164f565b610b5083611665565b610b59826116f8565b610b616117cf565b610b69610b75565b98975050505050505050565b7f0a6f646cd611241d8073675e00d1a1ff700fbf1b53fcf473de56d1e6e4b714ba60005260046020527f078d888f9b66f3f8bfa10909e31f1e16240db73449f0500afdbbe3a70da457cc5460ff1690565b7f916daedf6915000ff68ced2f0b6773fe6f2582237f92c3c95bb4d7940723007160009081526020527fd2ea0feb732edb0ffe32efd33a6b9d24d46b16eb34a4d07ce256537b6f131e425490565b6000806000806000610c24612bd9565b6060610c308989611826565b610c398961184e565b959c50939a509198509650945092509050610c598787878787878761192e565b505050505050505050565b8051600090610c7a90601063ffffffff61199e16565b92915050565b6000600260008360405160200180807f6661696c65644d6573736167655265636569766572000000000000000000000081525060150182600019166000191681526020019150506040516020818303038152906040526040518082805190602001908083835b60208310610d055780518252601f199092019160209182019101610ce6565b51815160209384036101000a6000190180199092169116179052604080519290940182900390912086528501959095529290920160002054600160a060020a031695945050505050565b7f2544fbb90000000000000000000000000000000000000000000000000000000090565b610d7b610f78565b600160a060020a03163314610d8f57600080fd5b610d9982826114ff565b5050565b6000600260008360405160200180807f6661696c65644d65737361676553656e64657200000000000000000000000000815250601301826000191660001916815260200191505060405160208183030381529060405260405180828051906020019080838360208310610d055780518252601f199092019160209182019101610ce6565b7fffa3a5a0e192028fc343362a39c5688e5a60819a4dc5ab3ee70c25bc25b78dd660005260046020527f265a43ea29ede07170a30cb6d77d0ab5810eee752b72432f7be348bde74aa08f5460ff1690565b7fe34bb2103dc34f2c144cc216c132d6ffb55dac57575c22e089161bbe650833045490565b610e9f610f78565b600160a060020a03163314610eb357600080fd5b7f2670ecc91ec356e32067fd27b36614132d727b84a1e03e08f412a4f2cf07597460009081526020527f3d7fe2ee9790702383ef0118b516833ef2542132d3ca4ac6c77f62f1230fa61055565b6000610f0a610fcf565b600160a060020a0316638d0680436040518163ffffffff1660e060020a028152600401602060405180830381600087803b158015610f4757600080fd5b505af1158015610f5b573d6000803e3d6000fd5b505050506040513d6020811015610f7157600080fd5b5051905090565b7f02016836a56b71f0d02689e69e326f4f4c1b9057164ef592671cf0d37c8040c060005260026020527fb7802e97e87ef2842a6cce7da7ffaeaedaa2f61a6a7870b23d9d01fc9b73712e54600160a060020a031690565b7f5a74bb7e202fb8e4bf311841c7d64ec19df195fee77d7e7ae749b27921b6ddfe60005260026020527fab54f3fbbe62c59b7876a9bf9bd5e0c22dbae93f4d8ee0438f7ce62b198eb0e054600160a060020a031690565b7fb120ceec05576ad0c710bc6e85f1768535e27554458f05dcbb5c65b8c7a749b060009081526020527fe66bef0282a446f9848e2903380099bb6e431483ee78778868f33b4a154c818b5490565b600660016000909192565b7f7f0fcd9e49860f055dd0c1682d635d309ecb5e3011654c716d9eb59a7ddec7d25490565b6110ac610f78565b600160a060020a031633146110c057600080fd5b6110c981611665565b50565b7fbbd454018e72a3f6c02bbd785bacc49e46292744f3f6761276723823aa33232060009081526020527f242329173dfc316001df0a0c3d5a8f58a7ffb1a8b7d99c268303b9a741bacdf95490565b611122610f78565b600160a060020a0316331461113657600080fd5b6110c98161164f565b611147610f78565b600160a060020a0316331461115b57600080fd5b7fffa3a5a0e192028fc343362a39c5688e5a60819a4dc5ab3ee70c25bc25b78dd660005260046020527f265a43ea29ede07170a30cb6d77d0ab5810eee752b72432f7be348bde74aa08f805460ff1916911515919091179055565b6000600460008360405160200180807f6d65737361676543616c6c53746174757300000000000000000000000000000081525060110182600019166000191681526020019150506040516020818303038152906040526040518082805190602001908083836020831061084a5780518252601f19909201916020918201910161082b565b7f7b58b2a669d8e0992eae9eaef641092c0f686fd31070e7236865557fa1571b5b5490565b7f1e8ecaafaddea96ed9ac6d2642dcdfe1bebe58a930b1085842d8fc122b371ee560009081526020527fd5c78dd9468716ca9bb96be25d56436811b20aab3523a9904b12deef1cab239d5490565b60006112bc84848460006119c7565b949350505050565b60008060008360405160200180807f6661696c65644d6573736167654461746148617368000000000000000000000081525060150182600019166000191681526020019150506040516020818303038152906040526040518082805190602001908083835b602083106113485780518252601f199092019160209182019101611329565b51815160209384036101000a600019018019909216911617905260408051929094018290039091208652850195909552929092016000205495945050505050565b7f2670ecc91ec356e32067fd27b36614132d727b84a1e03e08f412a4f2cf07597460009081526020527f3d7fe2ee9790702383ef0118b516833ef2542132d3ca4ac6c77f62f1230fa6105490565b6000806000806113e5612bd9565b60606113f18989611826565b6113fa8961184e565b959b50939950919750909550909350909150610c5990508686868a87878761192e565b6108fb84848080601f0160208091040260200160405190810160405280939291908181526020018383808284375050604080516020601f8a018190048102820181019092528881529450889350879250829150840183828082843750610c14945050505050565b61148c610f78565b600160a060020a031633146114a057600080fd5b6110c9816116f8565b7f55b3774520b5993024893d303890baa4e84b1244a43c60034d1ced2d3cf2b04b60009081526020527ff7d5eefab3776d7f0450bd0193564bcb4f832ce313ff2836c450fc63a4b944195490565b6000903b1190565b6000806000806000861180156115155750600085115b151561152057600080fd5b8585141561152d57600080fd5b506000925082915060ff905060015b831580611547575082155b1561158f578315801561155b575085828716145b15611564578093505b82158015611573575084828616145b1561157c578092505b6101009190910260ff179060010161153c565b5050600060208190527ff6c66672b1a9fe5622677597b0da8fd180a2c85696efbcf7fe4b1e0f4f0f6108949094557f2f30286a16f86ee067618e1a246990e40c07b7749418a6dd3133f9cfb7e814cc919091557f242329173dfc316001df0a0c3d5a8f58a7ffb1a8b7d99c268303b9a741bacdf9919091557ffb792ae4ad11102b93f26a51b3749c2b3667f8b561566a4806d49896928115949091527f7b62b32ff48350e85ce95b571fde6f8b1096bc44a26db769ad6d0b3a26bf1c6d55565b6000811161165c57600080fd5b6110c981611af2565b6000811161167257600080fd5b7f916daedf6915000ff68ced2f0b6773fe6f2582237f92c3c95bb4d79407230071600090815260209081527fd2ea0feb732edb0ffe32efd33a6b9d24d46b16eb34a4d07ce256537b6f131e428290556040805183815290517f4fb76205cd57c896b21511d2114137d8e901b4ccd659e1a0f97d6306795264fb929181900390910190a150565b600160a060020a038116151561170d57600080fd5b7f8be0079c531659141344cd1fd0a4f28419497f9722a3daafe3b4186f6b6457e0611736610f78565b60408051600160a060020a03928316815291841660208301528051918290030190a17f02016836a56b71f0d02689e69e326f4f4c1b9057164ef592671cf0d37c8040c060005260026020527fb7802e97e87ef2842a6cce7da7ffaeaedaa2f61a6a7870b23d9d01fc9b73712e805473ffffffffffffffffffffffffffffffffffffffff1916600160a060020a0392909216919091179055565b7f0a6f646cd611241d8073675e00d1a1ff700fbf1b53fcf473de56d1e6e4b714ba60005260046020527f078d888f9b66f3f8bfa10909e31f1e16240db73449f0500afdbbe3a70da457cc805460ff19166001179055565b6000611830610e72565b1461183a57600080fd5b610d998282611847610fcf565b6001611b78565b600080600080600061185e612bd9565b6060600080604f915060208a01519850600160a060020a0360348b015116975060548a01518060601c975063ffffffff8160401c16965080601a1a95508060181a6001808260031b1b03818501945080858e01511687528260191a91506001808360031b1b039050818501945080858e0151166020880152848d51039350505050806040519080825280601f01601f19166020018201604052801561190d578160200160208202803883390190505b50925060248201915080826004350160208501375050919395979092949650565b61193787611e02565b151561194257600080fd5b602082015161195090611e48565b151561195b57600080fd5b611964876107c5565b1561196e57600080fd5b611979876001611e5a565b61199586868963ffffffff881687876000602002015187611f2c565b50505050505050565b60008215156119af57506000610c7a565b508181028183828115156119bf57fe5b0414610c7a57fe5b600080606080826119d6610e72565b14806119e557506119e5610e21565b15156119f057600080fd5b6119f987610c64565b8610158015611a0f5750611a0b611389565b8611155b1515611a1a57600080fd5b611a25888787611f83565b9250925081876040516020018083805190602001908083835b60208310611a5d5780518252601f199092019160209182019101611a3e565b51815160209384036101000a600019018019909216911617905285519190930192850191508083835b60208310611aa55780518252601f199092019160209182019101611a86565b6001836020036101000a038019825116818451168082178552505050505050905001925050506040516020818303038152906040529050611ae68382612039565b50909695505050505050565b7f55b3774520b5993024893d303890baa4e84b1244a43c60034d1ced2d3cf2b04b600090815260209081527ff7d5eefab3776d7f0450bd0193564bcb4f832ce313ff2836c450fc63a4b944198290556040805183815290517f52264b89e0fceafb26e79fd49ef8a366eb6297483bf4035b027f0c99a7ad512e929181900390910190a150565b6000806000606060008060008060008060008b80611b9a5750611b9a8f6120d6565b1515611ba557600080fd5b8c600160a060020a0316638d0680436040518163ffffffff1660e060020a028152600401602060405180830381600087803b158015611be357600080fd5b505af1158015611bf7573d6000803e3d6000fd5b505050506040513d6020811015611c0d57600080fd5b505160018f0151909b5060ff1699508a8a1015611c2957600080fd5b611c338f8d6120ea565b98508a604051908082528060200260200182016040528015611c5f578160200160208202803883390190505b509750600096505b8a871015611df157866020028a6021010192508960200283019150866002018e01519550828e01519450818e01519350600189878787604051600081526020016040526040518085600019166000191681526020018460ff1660ff1681526020018360001916600019168152602001826000191660001916815260200194505050505060206040516020810390808403906000865af1158015611d0e573d6000803e3d6000fd5b5050506020604051035190508c600160a060020a031663facd743b826040518263ffffffff1660e060020a0281526004018082600160a060020a0316600160a060020a03168152602001915050602060405180830381600087803b158015611d7557600080fd5b505af1158015611d89573d6000803e3d6000fd5b505050506040513d6020811015611d9f57600080fd5b50511515611dac57600080fd5b611db68882612304565b15611dc057600080fd5b808888815181101515611dcf57fe5b600160a060020a03909216602092830290910190910152600190960195611c67565b505050505050505050505050505050565b7bffffffffffffffffffffffffffffffffffffffffffffffffffffffff1981167e0500000000000000000000000000000000000000000000000000000000000014919050565b6000611e52610777565b909114919050565b80600460008460405160200180807f72656c617965644d657373616765730000000000000000000000000000000000815250600f0182600019166000191681526020019150506040516020818303038152906040526040518082805190602001908083835b60208310611ede5780518252601f199092019160209182019101611ebf565b51815160209384036101000a60001901801990921691161790526040805192909401829003909120865285019590955292909201600020805460ff1916941515949094179093555050505050565b6000611f3c888884888a8861235f565b9050611f488682612455565b801515611f6d57611f5986836124d8565b611f6386886125e7565b611f6d86896126d5565b611f7988888884612758565b5050505050505050565b60006060600080600080611f95610777565b9350611f9f6127a6565b9250611fa96110cc565b9150611fb36127f4565b9050611fbe84612842565b95508083604f01016040519080825280601f01601f191660200182016040528015611ff3578160200160208202803883390190505b50945084518501828152848282035287604f87015281604e87015283604d87015288604c8701528960488701523360348701528660208701525050505050935093915050565b604080516020808252835181830152835185937f482515ce3d9494a37ce83f18b72b363449458435fafdd7a53ddea7460fe01b589386939092839283019185019080838360005b83811015612098578181015183820152602001612080565b50505050905090810190601f1680156120c55780820380516001836020036101000a031916815260200191505b509250505060405180910390a25050565b60006120e0612945565b8251149050919050565b60408051808201909152601a81527f19457468657265756d205369676e6564204d6573736167653a0a0000000000006020820152600090606083156122905781612134865161294a565b866040516020018084805190602001908083835b602083106121675780518252601f199092019160209182019101612148565b51815160209384036101000a600019018019909216911617905286519190930192860191508083835b602083106121af5780518252601f199092019160209182019101612190565b51815160209384036101000a600019018019909216911617905285519190930192850191508083835b602083106121f75780518252601f1990920191602091820191016121d8565b6001836020036101000a03801982511681845116808217855250505050505090500193505050506040516020818303038152906040526040518082805190602001908083835b6020831061225c5780518252601f19909201916020918201910161223d565b6001836020036101000a038019825116818451168082178552505050505050905001915050604051809103902092506122fc565b6040805190810160405280600381526020017f31303400000000000000000000000000000000000000000000000000000000008152509050818186604051602001808480519060200190808383602083106121675780518252601f199092019160209182019101612148565b505092915050565b6000805b83518110156123535782600160a060020a0316848281518110151561232957fe5b90602001906020020151600160a060020a0316141561234b5760019150612358565b600101612308565b600091505b5092915050565b60008061236b88612a71565b61237484612a95565b61237d83612ab9565b8463ffffffff148061239d57508460405a603f0281151561239a57fe5b04115b15156123a857600080fd5b86600160a060020a0316858760405180828051906020019080838360005b838110156123de5781810151838201526020016123c6565b50505050905090810190601f16801561240b5780820380516001836020036101000a031916815260200191505b5091505060006040518083038160008787f192505050905061242c81612add565b6124366000612a71565b6124406000612a95565b61244a6000612ab9565b979650505050505050565b80600460008460405160200180807f6d65737361676543616c6c537461747573000000000000000000000000000000815250601101826000191660001916815260200191505060405160208183030381529060405260405180828051906020019080838360208310611ede5780518252601f199092019160209182019101611ebf565b806040518082805190602001908083835b602083106125085780518252601f1990920191602091820191016124e9565b51815160209384036101000a6000190180199092169116179052604080519290940182900382207f6661696c65644d657373616765446174614861736800000000000000000000008383015260358084018a905285518085039091018152605590930194859052825190965060009550859492935082918401908083835b602083106125a55780518252601f199092019160209182019101612586565b51815160209384036101000a60001901801990921691161790526040805192909401829003909120865285019590955292909201600020939093555050505050565b80600260008460405160200180807f6661696c65644d6573736167655265636569766572000000000000000000000081525060150182600019166000191681526020019150506040516020818303038152906040526040518082805190602001908083835b6020831061266b5780518252601f19909201916020918201910161264c565b51815160209384036101000a60001901801990921691161790526040805192909401829003909120865285019590955292909201600020805473ffffffffffffffffffffffffffffffffffffffff1916600160a060020a0395909516949094179093555050505050565b80600260008460405160200180807f6661696c65644d65737361676553656e6465720000000000000000000000000081525060130182600019166000191681526020019150506040516020818303038152906040526040518082805190602001908083836020831061266b5780518252601f19909201916020918201910161264c565b60408051821515815290518391600160a060020a0380871692908816917f27333edb8bdcd40a0ae944fb121b5e2d62ea782683946654a0f5e607a908d578919081900360200190a450505050565b7fe504ae1fd6471eea80f18b8532a61a9bb91fba4f5b837f80a1cfb6752350af4460009081526020527f2f30286a16f86ee067618e1a246990e40c07b7749418a6dd3133f9cfb7e814cc5490565b7ffb792ae4ad11102b93f26a51b3749c2b3667f8b561566a4806d498969281159460009081526020527f7b62b32ff48350e85ce95b571fde6f8b1096bc44a26db769ad6d0b3a26bf1c6d5490565b600080600061284f612b34565b915061285d82600101612b82565b6040805160208082018790526c0100000000000000000000000030028284015282516034818403018152605490920192839052815191929182918401908083835b602083106128bd5780518252601f19909201916020918201910161289e565b5181516000196020949094036101000a93909301928316921916919091179052604051920182900390912067ffffffffffffffff86167bffffffffffffffffffffffffffffffffffffffff00000000000000009091169081177e0500000000000000000000000000000000000000000000000000000000000017965093505050505050919050565b606890565b606060008082818515156129935760408051808201909152600181527f300000000000000000000000000000000000000000000000000000000000000060208201529450612a68565b8593505b83156129ae57600190920191600a84049350612997565b826040519080825280601f01601f1916602001820160405280156129dc578160200160208202803883390190505b5091505060001982015b8515612a645781516000198201917f01000000000000000000000000000000000000000000000000000000000000006030600a8a060102918491908110612a2957fe5b9060200101907effffffffffffffffffffffffffffffffffffffffffffffffffffffffffffff1916908160001a905350600a860495506129e6565b8194505b50505050919050565b7f7b58b2a669d8e0992eae9eaef641092c0f686fd31070e7236865557fa1571b5b55565b7fe34bb2103dc34f2c144cc216c132d6ffb55dac57575c22e089161bbe6508330455565b7f7f0fcd9e49860f055dd0c1682d635d309ecb5e3011654c716d9eb59a7ddec7d255565b8080612b2957506000357bffffffffffffffffffffffffffffffffffffffffffffffffffffffff19167f3f7658fd00000000000000000000000000000000000000000000000000000000145b15156110c957600080fd5b7f7ab1577440dd7bedf920cb6de2f9fc6bf7ba98c78c85a3fa1f8311aac95e175960009081526020527fa9b0f75b23e377b9b22d27feaca5d8a12329c0049ebce1dc695b905f3aa4cd005490565b7f7ab1577440dd7bedf920cb6de2f9fc6bf7ba98c78c85a3fa1f8311aac95e1759600090815260205267ffffffffffffffff167fa9b0f75b23e377b9b22d27feaca5d8a12329c0049ebce1dc695b905f3aa4cd0055565b604080518082018252906002908290803883395091929150505600a165627a7a723058201b59671e130636ded192fd64623bc185411b73126cec9018a12d93d6d0e41e020029",
          "opcodes": "PUSH1 0x80 PUSH1 0x40 MSTORE CALLVALUE DUP1 ISZERO PUSH2 0x10 JUMPI PUSH1 0x0 DUP1 REVERT JUMPDEST POP PUSH2 0x2C20 DUP1 PUSH2 0x20 PUSH1 0x0 CODECOPY PUSH1 0x0 RETURN STOP PUSH1 0x80 PUSH1 0x40 MSTORE PUSH1 0x4 CALLDATASIZE LT PUSH2 0x1A8 JUMPI PUSH4 0xFFFFFFFF PUSH1 0xE0 PUSH1 0x2 EXP PUSH1 0x0 CALLDATALOAD DIV AND PUSH4 0xAC1C313 DUP2 EQ PUSH2 0x1AD JUMPI DUP1 PUSH4 0x1544298E EQ PUSH2 0x1D4 JUMPI DUP1 PUSH4 0x21D800EC EQ PUSH2 0x1E9 JUMPI DUP1 PUSH4 0x23CAAB49 EQ PUSH2 0x215 JUMPI DUP1 PUSH4 0x25FBF4EE EQ PUSH2 0x243 JUMPI DUP1 PUSH4 0x392E53CD EQ PUSH2 0x27C JUMPI DUP1 PUSH4 0x3F0A9F65 EQ PUSH2 0x291 JUMPI DUP1 PUSH4 0x3F7658FD EQ PUSH2 0x2A6 JUMPI DUP1 PUSH4 0x3F768C06 EQ PUSH2 0x33D JUMPI DUP1 PUSH4 0x3F9A8E7E EQ PUSH2 0x396 JUMPI DUP1 PUSH4 0x437764DF EQ PUSH2 0x3CA JUMPI DUP1 PUSH4 0x467AD35A EQ PUSH2 0x411 JUMPI DUP1 PUSH4 0x4A610B04 EQ PUSH2 0x42C JUMPI DUP1 PUSH4 0x4D4CB7A2 EQ PUSH2 0x444 JUMPI DUP1 PUSH4 0x669F618B EQ PUSH2 0x459 JUMPI DUP1 PUSH4 0x7BAC29C7 EQ PUSH2 0x46E JUMPI DUP1 PUSH4 0x8D068043 EQ PUSH2 0x486 JUMPI DUP1 PUSH4 0x8DA5CB5B EQ PUSH2 0x49B JUMPI DUP1 PUSH4 0x99439089 EQ PUSH2 0x4B0 JUMPI DUP1 PUSH4 0x9A454B99 EQ PUSH2 0x4C5 JUMPI DUP1 PUSH4 0x9CB7595A EQ PUSH2 0x4DA JUMPI DUP1 PUSH4 0x9E307DFF EQ PUSH2 0x51B JUMPI DUP1 PUSH4 0xACF5C689 EQ PUSH2 0x530 JUMPI DUP1 PUSH4 0xB0750611 EQ PUSH2 0x548 JUMPI DUP1 PUSH4 0xBF1FE420 EQ PUSH2 0x55D JUMPI DUP1 PUSH4 0xC2231AD2 EQ PUSH2 0x575 JUMPI DUP1 PUSH4 0xCB08A10C EQ PUSH2 0x58F JUMPI DUP1 PUSH4 0xD67BDD25 EQ PUSH2 0x5A7 JUMPI DUP1 PUSH4 0xDAE5F0FD EQ PUSH2 0x5BC JUMPI DUP1 PUSH4 0xDC8601B3 EQ PUSH2 0x5D1 JUMPI DUP1 PUSH4 0xE37C3289 EQ PUSH2 0x63A JUMPI DUP1 PUSH4 0xE5789D03 EQ PUSH2 0x652 JUMPI DUP1 PUSH4 0xE6D562A1 EQ PUSH2 0x667 JUMPI DUP1 PUSH4 0xEAA820D7 EQ PUSH2 0x706 JUMPI DUP1 PUSH4 0xF2FDE38B EQ PUSH2 0x732 JUMPI DUP1 PUSH4 0xFE173B97 EQ PUSH2 0x753 JUMPI JUMPDEST PUSH1 0x0 DUP1 REVERT JUMPDEST CALLVALUE DUP1 ISZERO PUSH2 0x1B9 JUMPI PUSH1 0x0 DUP1 REVERT JUMPDEST POP PUSH2 0x1C2 PUSH2 0x768 JUMP JUMPDEST PUSH1 0x40 DUP1 MLOAD SWAP2 DUP3 MSTORE MLOAD SWAP1 DUP2 SWAP1 SUB PUSH1 0x20 ADD SWAP1 RETURN JUMPDEST CALLVALUE DUP1 ISZERO PUSH2 0x1E0 JUMPI PUSH1 0x0 DUP1 REVERT JUMPDEST POP PUSH2 0x1C2 PUSH2 0x777 JUMP JUMPDEST CALLVALUE DUP1 ISZERO PUSH2 0x1F5 JUMPI PUSH1 0x0 DUP1 REVERT JUMPDEST POP PUSH2 0x201 PUSH1 0x4 CALLDATALOAD PUSH2 0x7C5 JUMP JUMPDEST PUSH1 0x40 DUP1 MLOAD SWAP2 ISZERO ISZERO DUP3 MSTORE MLOAD SWAP1 DUP2 SWAP1 SUB PUSH1 0x20 ADD SWAP1 RETURN JUMPDEST CALLVALUE DUP1 ISZERO PUSH2 0x221 JUMPI PUSH1 0x0 DUP1 REVERT JUMPDEST POP PUSH2 0x241 PUSH1 0x24 PUSH1 0x4 DUP1 CALLDATALOAD DUP3 DUP2 ADD SWAP3 SWAP1 DUP3 ADD CALLDATALOAD SWAP2 DUP2 CALLDATALOAD SWAP2 DUP3 ADD SWAP2 ADD CALLDATALOAD PUSH2 0x88E JUMP JUMPDEST STOP JUMPDEST CALLVALUE DUP1 ISZERO PUSH2 0x24F JUMPI PUSH1 0x0 DUP1 REVERT JUMPDEST POP PUSH2 0x201 PUSH1 0x4 CALLDATALOAD PUSH1 0x24 CALLDATALOAD PUSH1 0x1 PUSH1 0xA0 PUSH1 0x2 EXP SUB PUSH1 0x44 CALLDATALOAD DUP2 AND SWAP1 PUSH1 0x64 CALLDATALOAD SWAP1 PUSH1 0x84 CALLDATALOAD SWAP1 PUSH1 0xA4 CALLDATALOAD SWAP1 PUSH1 0xC4 CALLDATALOAD AND PUSH2 0x901 JUMP JUMPDEST CALLVALUE DUP1 ISZERO PUSH2 0x288 JUMPI PUSH1 0x0 DUP1 REVERT JUMPDEST POP PUSH2 0x201 PUSH2 0xB75 JUMP JUMPDEST CALLVALUE DUP1 ISZERO PUSH2 0x29D JUMPI PUSH1 0x0 DUP1 REVERT JUMPDEST POP PUSH2 0x1C2 PUSH2 0xBC6 JUMP JUMPDEST CALLVALUE DUP1 ISZERO PUSH2 0x2B2 JUMPI PUSH1 0x0 DUP1 REVERT JUMPDEST POP PUSH1 0x40 DUP1 MLOAD PUSH1 0x20 PUSH1 0x4 DUP1 CALLDATALOAD DUP1 DUP3 ADD CALLDATALOAD PUSH1 0x1F DUP2 ADD DUP5 SWAP1 DIV DUP5 MUL DUP6 ADD DUP5 ADD SWAP1 SWAP6 MSTORE DUP5 DUP5 MSTORE PUSH2 0x241 SWAP5 CALLDATASIZE SWAP5 SWAP3 SWAP4 PUSH1 0x24 SWAP4 SWAP3 DUP5 ADD SWAP2 SWAP1 DUP2 SWAP1 DUP5 ADD DUP4 DUP3 DUP1 DUP3 DUP5 CALLDATACOPY POP POP PUSH1 0x40 DUP1 MLOAD PUSH1 0x20 PUSH1 0x1F DUP10 CALLDATALOAD DUP12 ADD DUP1 CALLDATALOAD SWAP2 DUP3 ADD DUP4 SWAP1 DIV DUP4 MUL DUP5 ADD DUP4 ADD SWAP1 SWAP5 MSTORE DUP1 DUP4 MSTORE SWAP8 SWAP11 SWAP10 SWAP9 DUP2 ADD SWAP8 SWAP2 SWAP7 POP SWAP2 DUP3 ADD SWAP5 POP SWAP3 POP DUP3 SWAP2 POP DUP5 ADD DUP4 DUP3 DUP1 DUP3 DUP5 CALLDATACOPY POP SWAP5 SWAP8 POP PUSH2 0xC14 SWAP7 POP POP POP POP POP POP POP JUMP JUMPDEST CALLVALUE DUP1 ISZERO PUSH2 0x349 JUMPI PUSH1 0x0 DUP1 REVERT JUMPDEST POP PUSH1 0x40 DUP1 MLOAD PUSH1 0x20 PUSH1 0x4 DUP1 CALLDATALOAD DUP1 DUP3 ADD CALLDATALOAD PUSH1 0x1F DUP2 ADD DUP5 SWAP1 DIV DUP5 MUL DUP6 ADD DUP5 ADD SWAP1 SWAP6 MSTORE DUP5 DUP5 MSTORE PUSH2 0x1C2 SWAP5 CALLDATASIZE SWAP5 SWAP3 SWAP4 PUSH1 0x24 SWAP4 SWAP3 DUP5 ADD SWAP2 SWAP1 DUP2 SWAP1 DUP5 ADD DUP4 DUP3 DUP1 DUP3 DUP5 CALLDATACOPY POP SWAP5 SWAP8 POP PUSH2 0xC64 SWAP7 POP POP POP POP POP POP POP JUMP JUMPDEST CALLVALUE DUP1 ISZERO PUSH2 0x3A2 JUMPI PUSH1 0x0 DUP1 REVERT JUMPDEST POP PUSH2 0x3AE PUSH1 0x4 CALLDATALOAD PUSH2 0xC80 JUMP JUMPDEST PUSH1 0x40 DUP1 MLOAD PUSH1 0x1 PUSH1 0xA0 PUSH1 0x2 EXP SUB SWAP1 SWAP3 AND DUP3 MSTORE MLOAD SWAP1 DUP2 SWAP1 SUB PUSH1 0x20 ADD SWAP1 RETURN JUMPDEST CALLVALUE DUP1 ISZERO PUSH2 0x3D6 JUMPI PUSH1 0x0 DUP1 REVERT JUMPDEST POP PUSH2 0x3DF PUSH2 0xD4F JUMP JUMPDEST PUSH1 0x40 DUP1 MLOAD PUSH28 0xFFFFFFFFFFFFFFFFFFFFFFFFFFFFFFFFFFFFFFFFFFFFFFFFFFFFFFFF NOT SWAP1 SWAP3 AND DUP3 MSTORE MLOAD SWAP1 DUP2 SWAP1 SUB PUSH1 0x20 ADD SWAP1 RETURN JUMPDEST CALLVALUE DUP1 ISZERO PUSH2 0x41D JUMPI PUSH1 0x0 DUP1 REVERT JUMPDEST POP PUSH2 0x241 PUSH1 0x4 CALLDATALOAD PUSH1 0x24 CALLDATALOAD PUSH2 0xD73 JUMP JUMPDEST CALLVALUE DUP1 ISZERO PUSH2 0x438 JUMPI PUSH1 0x0 DUP1 REVERT JUMPDEST POP PUSH2 0x3AE PUSH1 0x4 CALLDATALOAD PUSH2 0xD9D JUMP JUMPDEST CALLVALUE DUP1 ISZERO PUSH2 0x450 JUMPI PUSH1 0x0 DUP1 REVERT JUMPDEST POP PUSH2 0x201 PUSH2 0xE21 JUMP JUMPDEST CALLVALUE DUP1 ISZERO PUSH2 0x465 JUMPI PUSH1 0x0 DUP1 REVERT JUMPDEST POP PUSH2 0x1C2 PUSH2 0xE72 JUMP JUMPDEST CALLVALUE DUP1 ISZERO PUSH2 0x47A JUMPI PUSH1 0x0 DUP1 REVERT JUMPDEST POP PUSH2 0x241 PUSH1 0x4 CALLDATALOAD PUSH2 0xE97 JUMP JUMPDEST CALLVALUE DUP1 ISZERO PUSH2 0x492 JUMPI PUSH1 0x0 DUP1 REVERT JUMPDEST POP PUSH2 0x1C2 PUSH2 0xF00 JUMP JUMPDEST CALLVALUE DUP1 ISZERO PUSH2 0x4A7 JUMPI PUSH1 0x0 DUP1 REVERT JUMPDEST POP PUSH2 0x3AE PUSH2 0xF78 JUMP JUMPDEST CALLVALUE DUP1 ISZERO PUSH2 0x4BC JUMPI PUSH1 0x0 DUP1 REVERT JUMPDEST POP PUSH2 0x3AE PUSH2 0xFCF JUMP JUMPDEST CALLVALUE DUP1 ISZERO PUSH2 0x4D1 JUMPI PUSH1 0x0 DUP1 REVERT JUMPDEST POP PUSH2 0x1C2 PUSH2 0x1026 JUMP JUMPDEST CALLVALUE DUP1 ISZERO PUSH2 0x4E6 JUMPI PUSH1 0x0 DUP1 REVERT JUMPDEST POP PUSH2 0x4EF PUSH2 0x1074 JUMP JUMPDEST PUSH1 0x40 DUP1 MLOAD PUSH8 0xFFFFFFFFFFFFFFFF SWAP5 DUP6 AND DUP2 MSTORE SWAP3 DUP5 AND PUSH1 0x20 DUP5 ADD MSTORE SWAP3 AND DUP2 DUP4 ADD MSTORE SWAP1 MLOAD SWAP1 DUP2 SWAP1 SUB PUSH1 0x60 ADD SWAP1 RETURN JUMPDEST CALLVALUE DUP1 ISZERO PUSH2 0x527 JUMPI PUSH1 0x0 DUP1 REVERT JUMPDEST POP PUSH2 0x1C2 PUSH2 0x107F JUMP JUMPDEST CALLVALUE DUP1 ISZERO PUSH2 0x53C JUMPI PUSH1 0x0 DUP1 REVERT JUMPDEST POP PUSH2 0x241 PUSH1 0x4 CALLDATALOAD PUSH2 0x10A4 JUMP JUMPDEST CALLVALUE DUP1 ISZERO PUSH2 0x554 JUMPI PUSH1 0x0 DUP1 REVERT JUMPDEST POP PUSH2 0x1C2 PUSH2 0x10CC JUMP JUMPDEST CALLVALUE DUP1 ISZERO PUSH2 0x569 JUMPI PUSH1 0x0 DUP1 REVERT JUMPDEST POP PUSH2 0x241 PUSH1 0x4 CALLDATALOAD PUSH2 0x111A JUMP JUMPDEST CALLVALUE DUP1 ISZERO PUSH2 0x581 JUMPI PUSH1 0x0 DUP1 REVERT JUMPDEST POP PUSH2 0x241 PUSH1 0x4 CALLDATALOAD ISZERO ISZERO PUSH2 0x113F JUMP JUMPDEST CALLVALUE DUP1 ISZERO PUSH2 0x59B JUMPI PUSH1 0x0 DUP1 REVERT JUMPDEST POP PUSH2 0x201 PUSH1 0x4 CALLDATALOAD PUSH2 0x11B6 JUMP JUMPDEST CALLVALUE DUP1 ISZERO PUSH2 0x5B3 JUMPI PUSH1 0x0 DUP1 REVERT JUMPDEST POP PUSH2 0x3AE PUSH2 0x123A JUMP JUMPDEST CALLVALUE DUP1 ISZERO PUSH2 0x5C8 JUMPI PUSH1 0x0 DUP1 REVERT JUMPDEST POP PUSH2 0x1C2 PUSH2 0x125F JUMP JUMPDEST CALLVALUE DUP1 ISZERO PUSH2 0x5DD JUMPI PUSH1 0x0 DUP1 REVERT JUMPDEST POP PUSH1 0x40 DUP1 MLOAD PUSH1 0x20 PUSH1 0x4 PUSH1 0x24 DUP1 CALLDATALOAD DUP3 DUP2 ADD CALLDATALOAD PUSH1 0x1F DUP2 ADD DUP6 SWAP1 DIV DUP6 MUL DUP7 ADD DUP6 ADD SWAP1 SWAP7 MSTORE DUP6 DUP6 MSTORE PUSH2 0x1C2 SWAP6 DUP4 CALLDATALOAD PUSH1 0x1 PUSH1 0xA0 PUSH1 0x2 EXP SUB AND SWAP6 CALLDATASIZE SWAP6 PUSH1 0x44 SWAP5 SWAP2 SWAP4 SWAP1 SWAP2 ADD SWAP2 SWAP1 DUP2 SWAP1 DUP5 ADD DUP4 DUP3 DUP1 DUP3 DUP5 CALLDATACOPY POP SWAP5 SWAP8 POP POP SWAP4 CALLDATALOAD SWAP5 POP PUSH2 0x12AD SWAP4 POP POP POP POP JUMP JUMPDEST CALLVALUE DUP1 ISZERO PUSH2 0x646 JUMPI PUSH1 0x0 DUP1 REVERT JUMPDEST POP PUSH2 0x1C2 PUSH1 0x4 CALLDATALOAD PUSH2 0x12C4 JUMP JUMPDEST CALLVALUE DUP1 ISZERO PUSH2 0x65E JUMPI PUSH1 0x0 DUP1 REVERT JUMPDEST POP PUSH2 0x1C2 PUSH2 0x1389 JUMP JUMPDEST CALLVALUE DUP1 ISZERO PUSH2 0x673 JUMPI PUSH1 0x0 DUP1 REVERT JUMPDEST POP PUSH1 0x40 DUP1 MLOAD PUSH1 0x20 PUSH1 0x4 DUP1 CALLDATALOAD DUP1 DUP3 ADD CALLDATALOAD PUSH1 0x1F DUP2 ADD DUP5 SWAP1 DIV DUP5 MUL DUP6 ADD DUP5 ADD SWAP1 SWAP6 MSTORE DUP5 DUP5 MSTORE PUSH2 0x241 SWAP5 CALLDATASIZE SWAP5 SWAP3 SWAP4 PUSH1 0x24 SWAP4 SWAP3 DUP5 ADD SWAP2 SWAP1 DUP2 SWAP1 DUP5 ADD DUP4 DUP3 DUP1 DUP3 DUP5 CALLDATACOPY POP POP PUSH1 0x40 DUP1 MLOAD PUSH1 0x20 PUSH1 0x1F DUP10 CALLDATALOAD DUP12 ADD DUP1 CALLDATALOAD SWAP2 DUP3 ADD DUP4 SWAP1 DIV DUP4 MUL DUP5 ADD DUP4 ADD SWAP1 SWAP5 MSTORE DUP1 DUP4 MSTORE SWAP8 SWAP11 SWAP10 SWAP9 DUP2 ADD SWAP8 SWAP2 SWAP7 POP SWAP2 DUP3 ADD SWAP5 POP SWAP3 POP DUP3 SWAP2 POP DUP5 ADD DUP4 DUP3 DUP1 DUP3 DUP5 CALLDATACOPY POP SWAP5 SWAP8 POP POP POP SWAP3 CALLDATALOAD PUSH4 0xFFFFFFFF AND SWAP4 POP PUSH2 0x13D7 SWAP3 POP POP POP JUMP JUMPDEST CALLVALUE DUP1 ISZERO PUSH2 0x712 JUMPI PUSH1 0x0 DUP1 REVERT JUMPDEST POP PUSH2 0x241 PUSH1 0x24 PUSH1 0x4 DUP1 CALLDATALOAD DUP3 DUP2 ADD SWAP3 SWAP1 DUP3 ADD CALLDATALOAD SWAP2 DUP2 CALLDATALOAD SWAP2 DUP3 ADD SWAP2 ADD CALLDATALOAD PUSH2 0x141D JUMP JUMPDEST CALLVALUE DUP1 ISZERO PUSH2 0x73E JUMPI PUSH1 0x0 DUP1 REVERT JUMPDEST POP PUSH2 0x241 PUSH1 0x1 PUSH1 0xA0 PUSH1 0x2 EXP SUB PUSH1 0x4 CALLDATALOAD AND PUSH2 0x1484 JUMP JUMPDEST CALLVALUE DUP1 ISZERO PUSH2 0x75F JUMPI PUSH1 0x0 DUP1 REVERT JUMPDEST POP PUSH2 0x1C2 PUSH2 0x14A9 JUMP JUMPDEST PUSH1 0x0 PUSH2 0x772 PUSH2 0xE72 JUMP JUMPDEST SWAP1 POP SWAP1 JUMP JUMPDEST PUSH32 0x67D6F42A1ED69C62022F2D160DDC6F2F0ACD37AD1DB0C24F4702D7D3343A4ADD PUSH1 0x0 SWAP1 DUP2 MSTORE PUSH1 0x20 MSTORE PUSH32 0xF6C66672B1A9FE5622677597B0DA8FD180A2C85696EFBCF7FE4B1E0F4F0F6108 SLOAD SWAP1 JUMP JUMPDEST PUSH1 0x0 PUSH1 0x4 PUSH1 0x0 DUP4 PUSH1 0x40 MLOAD PUSH1 0x20 ADD DUP1 DUP1 PUSH32 0x72656C617965644D657373616765730000000000000000000000000000000000 DUP2 MSTORE POP PUSH1 0xF ADD DUP3 PUSH1 0x0 NOT AND PUSH1 0x0 NOT AND DUP2 MSTORE PUSH1 0x20 ADD SWAP2 POP POP PUSH1 0x40 MLOAD PUSH1 0x20 DUP2 DUP4 SUB SUB DUP2 MSTORE SWAP1 PUSH1 0x40 MSTORE PUSH1 0x40 MLOAD DUP1 DUP3 DUP1 MLOAD SWAP1 PUSH1 0x20 ADD SWAP1 DUP1 DUP4 DUP4 JUMPDEST PUSH1 0x20 DUP4 LT PUSH2 0x84A JUMPI DUP1 MLOAD DUP3 MSTORE PUSH1 0x1F NOT SWAP1 SWAP3 ADD SWAP2 PUSH1 0x20 SWAP2 DUP3 ADD SWAP2 ADD PUSH2 0x82B JUMP JUMPDEST MLOAD DUP2 MLOAD PUSH1 0x20 SWAP4 DUP5 SUB PUSH2 0x100 EXP PUSH1 0x0 NOT ADD DUP1 NOT SWAP1 SWAP3 AND SWAP2 AND OR SWAP1 MSTORE PUSH1 0x40 DUP1 MLOAD SWAP3 SWAP1 SWAP5 ADD DUP3 SWAP1 SUB SWAP1 SWAP2 KECCAK256 DUP7 MSTORE DUP6 ADD SWAP6 SWAP1 SWAP6 MSTORE SWAP3 SWAP1 SWAP3 ADD PUSH1 0x0 KECCAK256 SLOAD PUSH1 0xFF AND SWAP6 SWAP5 POP POP POP POP POP JUMP JUMPDEST PUSH2 0x8FB DUP5 DUP5 DUP1 DUP1 PUSH1 0x1F ADD PUSH1 0x20 DUP1 SWAP2 DIV MUL PUSH1 0x20 ADD PUSH1 0x40 MLOAD SWAP1 DUP2 ADD PUSH1 0x40 MSTORE DUP1 SWAP4 SWAP3 SWAP2 SWAP1 DUP2 DUP2 MSTORE PUSH1 0x20 ADD DUP4 DUP4 DUP1 DUP3 DUP5 CALLDATACOPY POP POP PUSH1 0x40 DUP1 MLOAD PUSH1 0x20 PUSH1 0x1F DUP11 ADD DUP2 SWAP1 DIV DUP2 MUL DUP3 ADD DUP2 ADD SWAP1 SWAP3 MSTORE DUP9 DUP2 MSTORE SWAP5 POP DUP9 SWAP4 POP DUP8 SWAP3 POP DUP3 SWAP2 POP DUP5 ADD DUP4 DUP3 DUP1 DUP3 DUP5 CALLDATACOPY POP PUSH4 0xFFFFFFFF SWAP5 POP PUSH2 0x13D7 SWAP4 POP POP POP POP JUMP JUMPDEST POP POP POP POP JUMP JUMPDEST PUSH1 0x40 DUP1 MLOAD PUSH1 0x4 DUP2 MSTORE PUSH1 0x24 DUP2 ADD DUP3 MSTORE PUSH1 0x20 DUP2 ADD DUP1 MLOAD PUSH28 0xFFFFFFFFFFFFFFFFFFFFFFFFFFFFFFFFFFFFFFFFFFFFFFFFFFFFFFFF AND PUSH32 0x6FDE820200000000000000000000000000000000000000000000000000000000 OR DUP2 MSTORE SWAP2 MLOAD DUP2 MLOAD PUSH1 0x0 SWAP4 ADDRESS SWAP4 SWAP3 SWAP2 DUP3 SWAP2 SWAP1 DUP1 DUP4 DUP4 DUP10 JUMPDEST DUP4 DUP2 LT ISZERO PUSH2 0x982 JUMPI DUP2 DUP2 ADD MLOAD DUP4 DUP3 ADD MSTORE PUSH1 0x20 ADD PUSH2 0x96A JUMP JUMPDEST POP POP POP POP SWAP1 POP SWAP1 DUP2 ADD SWAP1 PUSH1 0x1F AND DUP1 ISZERO PUSH2 0x9AF JUMPI DUP1 DUP3 SUB DUP1 MLOAD PUSH1 0x1 DUP4 PUSH1 0x20 SUB PUSH2 0x100 EXP SUB NOT AND DUP2 MSTORE PUSH1 0x20 ADD SWAP2 POP JUMPDEST POP SWAP2 POP POP PUSH1 0x0 PUSH1 0x40 MLOAD DUP1 DUP4 SUB DUP2 PUSH1 0x0 DUP7 GAS CALL SWAP2 POP POP ISZERO DUP1 PUSH2 0xA41 JUMPI POP ADDRESS PUSH1 0x1 PUSH1 0xA0 PUSH1 0x2 EXP SUB AND PUSH4 0x6FDE8202 PUSH1 0x40 MLOAD DUP2 PUSH4 0xFFFFFFFF AND PUSH1 0xE0 PUSH1 0x2 EXP MUL DUP2 MSTORE PUSH1 0x4 ADD PUSH1 0x20 PUSH1 0x40 MLOAD DUP1 DUP4 SUB DUP2 PUSH1 0x0 DUP8 DUP1 EXTCODESIZE ISZERO DUP1 ISZERO PUSH2 0xA09 JUMPI PUSH1 0x0 DUP1 REVERT JUMPDEST POP GAS CALL ISZERO DUP1 ISZERO PUSH2 0xA1D JUMPI RETURNDATASIZE PUSH1 0x0 DUP1 RETURNDATACOPY RETURNDATASIZE PUSH1 0x0 REVERT JUMPDEST POP POP POP POP PUSH1 0x40 MLOAD RETURNDATASIZE PUSH1 0x20 DUP2 LT ISZERO PUSH2 0xA33 JUMPI PUSH1 0x0 DUP1 REVERT JUMPDEST POP MLOAD PUSH1 0x1 PUSH1 0xA0 PUSH1 0x2 EXP SUB AND CALLER EQ JUMPDEST DUP1 PUSH2 0xA4B JUMPI POP CALLER ADDRESS EQ JUMPDEST ISZERO ISZERO PUSH2 0xA56 JUMPI PUSH1 0x0 DUP1 REVERT JUMPDEST PUSH2 0xA5E PUSH2 0xB75 JUMP JUMPDEST ISZERO PUSH2 0xA68 JUMPI PUSH1 0x0 DUP1 REVERT JUMPDEST PUSH2 0xA71 DUP7 PUSH2 0x14F7 JUMP JUMPDEST ISZERO ISZERO PUSH2 0xA7C JUMPI PUSH1 0x0 DUP1 REVERT JUMPDEST PUSH2 0xA86 DUP9 DUP9 PUSH2 0x14FF JUMP JUMPDEST PUSH32 0xAB54F3FBBE62C59B7876A9BF9BD5E0C22DBAE93F4D8EE0438F7CE62B198EB0E0 DUP1 SLOAD PUSH20 0xFFFFFFFFFFFFFFFFFFFFFFFFFFFFFFFFFFFFFFFF NOT AND PUSH1 0x1 PUSH1 0xA0 PUSH1 0x2 EXP SUB DUP9 AND OR SWAP1 SSTORE PUSH1 0x0 PUSH1 0x20 DUP2 SWAP1 MSTORE NUMBER PUSH32 0xE66BEF0282A446F9848E2903380099BB6E431483EE78778868F33B4A154C818B SSTORE PUSH32 0x2670ECC91EC356E32067FD27B36614132D727B84A1E03E08F412A4F2CF075974 SWAP1 MSTORE PUSH32 0x3D7FE2EE9790702383EF0118B516833EF2542132D3CA4AC6C77F62F1230FA610 DUP6 SWAP1 SSTORE PUSH2 0xB47 DUP5 PUSH2 0x164F JUMP JUMPDEST PUSH2 0xB50 DUP4 PUSH2 0x1665 JUMP JUMPDEST PUSH2 0xB59 DUP3 PUSH2 0x16F8 JUMP JUMPDEST PUSH2 0xB61 PUSH2 0x17CF JUMP JUMPDEST PUSH2 0xB69 PUSH2 0xB75 JUMP JUMPDEST SWAP9 SWAP8 POP POP POP POP POP POP POP POP JUMP JUMPDEST PUSH32 0xA6F646CD611241D8073675E00D1A1FF700FBF1B53FCF473DE56D1E6E4B714BA PUSH1 0x0 MSTORE PUSH1 0x4 PUSH1 0x20 MSTORE PUSH32 0x78D888F9B66F3F8BFA10909E31F1E16240DB73449F0500AFDBBE3A70DA457CC SLOAD PUSH1 0xFF AND SWAP1 JUMP JUMPDEST PUSH32 0x916DAEDF6915000FF68CED2F0B6773FE6F2582237F92C3C95BB4D79407230071 PUSH1 0x0 SWAP1 DUP2 MSTORE PUSH1 0x20 MSTORE PUSH32 0xD2EA0FEB732EDB0FFE32EFD33A6B9D24D46B16EB34A4D07CE256537B6F131E42 SLOAD SWAP1 JUMP JUMPDEST PUSH1 0x0 DUP1 PUSH1 0x0 DUP1 PUSH1 0x0 PUSH2 0xC24 PUSH2 0x2BD9 JUMP JUMPDEST PUSH1 0x60 PUSH2 0xC30 DUP10 DUP10 PUSH2 0x1826 JUMP JUMPDEST PUSH2 0xC39 DUP10 PUSH2 0x184E JUMP JUMPDEST SWAP6 SWAP13 POP SWAP4 SWAP11 POP SWAP2 SWAP9 POP SWAP7 POP SWAP5 POP SWAP3 POP SWAP1 POP PUSH2 0xC59 DUP8 DUP8 DUP8 DUP8 DUP8 DUP8 DUP8 PUSH2 0x192E JUMP JUMPDEST POP POP POP POP POP POP POP POP POP JUMP JUMPDEST DUP1 MLOAD PUSH1 0x0 SWAP1 PUSH2 0xC7A SWAP1 PUSH1 0x10 PUSH4 0xFFFFFFFF PUSH2 0x199E AND JUMP JUMPDEST SWAP3 SWAP2 POP POP JUMP JUMPDEST PUSH1 0x0 PUSH1 0x2 PUSH1 0x0 DUP4 PUSH1 0x40 MLOAD PUSH1 0x20 ADD DUP1 DUP1 PUSH32 0x6661696C65644D65737361676552656365697665720000000000000000000000 DUP2 MSTORE POP PUSH1 0x15 ADD DUP3 PUSH1 0x0 NOT AND PUSH1 0x0 NOT AND DUP2 MSTORE PUSH1 0x20 ADD SWAP2 POP POP PUSH1 0x40 MLOAD PUSH1 0x20 DUP2 DUP4 SUB SUB DUP2 MSTORE SWAP1 PUSH1 0x40 MSTORE PUSH1 0x40 MLOAD DUP1 DUP3 DUP1 MLOAD SWAP1 PUSH1 0x20 ADD SWAP1 DUP1 DUP4 DUP4 JUMPDEST PUSH1 0x20 DUP4 LT PUSH2 0xD05 JUMPI DUP1 MLOAD DUP3 MSTORE PUSH1 0x1F NOT SWAP1 SWAP3 ADD SWAP2 PUSH1 0x20 SWAP2 DUP3 ADD SWAP2 ADD PUSH2 0xCE6 JUMP JUMPDEST MLOAD DUP2 MLOAD PUSH1 0x20 SWAP4 DUP5 SUB PUSH2 0x100 EXP PUSH1 0x0 NOT ADD DUP1 NOT SWAP1 SWAP3 AND SWAP2 AND OR SWAP1 MSTORE PUSH1 0x40 DUP1 MLOAD SWAP3 SWAP1 SWAP5 ADD DUP3 SWAP1 SUB SWAP1 SWAP2 KECCAK256 DUP7 MSTORE DUP6 ADD SWAP6 SWAP1 SWAP6 MSTORE SWAP3 SWAP1 SWAP3 ADD PUSH1 0x0 KECCAK256 SLOAD PUSH1 0x1 PUSH1 0xA0 PUSH1 0x2 EXP SUB AND SWAP6 SWAP5 POP POP POP POP POP JUMP JUMPDEST PUSH32 0x2544FBB900000000000000000000000000000000000000000000000000000000 SWAP1 JUMP JUMPDEST PUSH2 0xD7B PUSH2 0xF78 JUMP JUMPDEST PUSH1 0x1 PUSH1 0xA0 PUSH1 0x2 EXP SUB AND CALLER EQ PUSH2 0xD8F JUMPI PUSH1 0x0 DUP1 REVERT JUMPDEST PUSH2 0xD99 DUP3 DUP3 PUSH2 0x14FF JUMP JUMPDEST POP POP JUMP JUMPDEST PUSH1 0x0 PUSH1 0x2 PUSH1 0x0 DUP4 PUSH1 0x40 MLOAD PUSH1 0x20 ADD DUP1 DUP1 PUSH32 0x6661696C65644D65737361676553656E64657200000000000000000000000000 DUP2 MSTORE POP PUSH1 0x13 ADD DUP3 PUSH1 0x0 NOT AND PUSH1 0x0 NOT AND DUP2 MSTORE PUSH1 0x20 ADD SWAP2 POP POP PUSH1 0x40 MLOAD PUSH1 0x20 DUP2 DUP4 SUB SUB DUP2 MSTORE SWAP1 PUSH1 0x40 MSTORE PUSH1 0x40 MLOAD DUP1 DUP3 DUP1 MLOAD SWAP1 PUSH1 0x20 ADD SWAP1 DUP1 DUP4 DUP4 PUSH1 0x20 DUP4 LT PUSH2 0xD05 JUMPI DUP1 MLOAD DUP3 MSTORE PUSH1 0x1F NOT SWAP1 SWAP3 ADD SWAP2 PUSH1 0x20 SWAP2 DUP3 ADD SWAP2 ADD PUSH2 0xCE6 JUMP JUMPDEST PUSH32 0xFFA3A5A0E192028FC343362A39C5688E5A60819A4DC5AB3EE70C25BC25B78DD6 PUSH1 0x0 MSTORE PUSH1 0x4 PUSH1 0x20 MSTORE PUSH32 0x265A43EA29EDE07170A30CB6D77D0AB5810EEE752B72432F7BE348BDE74AA08F SLOAD PUSH1 0xFF AND SWAP1 JUMP JUMPDEST PUSH32 0xE34BB2103DC34F2C144CC216C132D6FFB55DAC57575C22E089161BBE65083304 SLOAD SWAP1 JUMP JUMPDEST PUSH2 0xE9F PUSH2 0xF78 JUMP JUMPDEST PUSH1 0x1 PUSH1 0xA0 PUSH1 0x2 EXP SUB AND CALLER EQ PUSH2 0xEB3 JUMPI PUSH1 0x0 DUP1 REVERT JUMPDEST PUSH32 0x2670ECC91EC356E32067FD27B36614132D727B84A1E03E08F412A4F2CF075974 PUSH1 0x0 SWAP1 DUP2 MSTORE PUSH1 0x20 MSTORE PUSH32 0x3D7FE2EE9790702383EF0118B516833EF2542132D3CA4AC6C77F62F1230FA610 SSTORE JUMP JUMPDEST PUSH1 0x0 PUSH2 0xF0A PUSH2 0xFCF JUMP JUMPDEST PUSH1 0x1 PUSH1 0xA0 PUSH1 0x2 EXP SUB AND PUSH4 0x8D068043 PUSH1 0x40 MLOAD DUP2 PUSH4 0xFFFFFFFF AND PUSH1 0xE0 PUSH1 0x2 EXP MUL DUP2 MSTORE PUSH1 0x4 ADD PUSH1 0x20 PUSH1 0x40 MLOAD DUP1 DUP4 SUB DUP2 PUSH1 0x0 DUP8 DUP1 EXTCODESIZE ISZERO DUP1 ISZERO PUSH2 0xF47 JUMPI PUSH1 0x0 DUP1 REVERT JUMPDEST POP GAS CALL ISZERO DUP1 ISZERO PUSH2 0xF5B JUMPI RETURNDATASIZE PUSH1 0x0 DUP1 RETURNDATACOPY RETURNDATASIZE PUSH1 0x0 REVERT JUMPDEST POP POP POP POP PUSH1 0x40 MLOAD RETURNDATASIZE PUSH1 0x20 DUP2 LT ISZERO PUSH2 0xF71 JUMPI PUSH1 0x0 DUP1 REVERT JUMPDEST POP MLOAD SWAP1 POP SWAP1 JUMP JUMPDEST PUSH32 0x2016836A56B71F0D02689E69E326F4F4C1B9057164EF592671CF0D37C8040C0 PUSH1 0x0 MSTORE PUSH1 0x2 PUSH1 0x20 MSTORE PUSH32 0xB7802E97E87EF2842A6CCE7DA7FFAEAEDAA2F61A6A7870B23D9D01FC9B73712E SLOAD PUSH1 0x1 PUSH1 0xA0 PUSH1 0x2 EXP SUB AND SWAP1 JUMP JUMPDEST PUSH32 0x5A74BB7E202FB8E4BF311841C7D64EC19DF195FEE77D7E7AE749B27921B6DDFE PUSH1 0x0 MSTORE PUSH1 0x2 PUSH1 0x20 MSTORE PUSH32 0xAB54F3FBBE62C59B7876A9BF9BD5E0C22DBAE93F4D8EE0438F7CE62B198EB0E0 SLOAD PUSH1 0x1 PUSH1 0xA0 PUSH1 0x2 EXP SUB AND SWAP1 JUMP JUMPDEST PUSH32 0xB120CEEC05576AD0C710BC6E85F1768535E27554458F05DCBB5C65B8C7A749B0 PUSH1 0x0 SWAP1 DUP2 MSTORE PUSH1 0x20 MSTORE PUSH32 0xE66BEF0282A446F9848E2903380099BB6E431483EE78778868F33B4A154C818B SLOAD SWAP1 JUMP JUMPDEST PUSH1 0x6 PUSH1 0x1 PUSH1 0x0 SWAP1 SWAP2 SWAP3 JUMP JUMPDEST PUSH32 0x7F0FCD9E49860F055DD0C1682D635D309ECB5E3011654C716D9EB59A7DDEC7D2 SLOAD SWAP1 JUMP JUMPDEST PUSH2 0x10AC PUSH2 0xF78 JUMP JUMPDEST PUSH1 0x1 PUSH1 0xA0 PUSH1 0x2 EXP SUB AND CALLER EQ PUSH2 0x10C0 JUMPI PUSH1 0x0 DUP1 REVERT JUMPDEST PUSH2 0x10C9 DUP2 PUSH2 0x1665 JUMP JUMPDEST POP JUMP JUMPDEST PUSH32 0xBBD454018E72A3F6C02BBD785BACC49E46292744F3F6761276723823AA332320 PUSH1 0x0 SWAP1 DUP2 MSTORE PUSH1 0x20 MSTORE PUSH32 0x242329173DFC316001DF0A0C3D5A8F58A7FFB1A8B7D99C268303B9A741BACDF9 SLOAD SWAP1 JUMP JUMPDEST PUSH2 0x1122 PUSH2 0xF78 JUMP JUMPDEST PUSH1 0x1 PUSH1 0xA0 PUSH1 0x2 EXP SUB AND CALLER EQ PUSH2 0x1136 JUMPI PUSH1 0x0 DUP1 REVERT JUMPDEST PUSH2 0x10C9 DUP2 PUSH2 0x164F JUMP JUMPDEST PUSH2 0x1147 PUSH2 0xF78 JUMP JUMPDEST PUSH1 0x1 PUSH1 0xA0 PUSH1 0x2 EXP SUB AND CALLER EQ PUSH2 0x115B JUMPI PUSH1 0x0 DUP1 REVERT JUMPDEST PUSH32 0xFFA3A5A0E192028FC343362A39C5688E5A60819A4DC5AB3EE70C25BC25B78DD6 PUSH1 0x0 MSTORE PUSH1 0x4 PUSH1 0x20 MSTORE PUSH32 0x265A43EA29EDE07170A30CB6D77D0AB5810EEE752B72432F7BE348BDE74AA08F DUP1 SLOAD PUSH1 0xFF NOT AND SWAP2 ISZERO ISZERO SWAP2 SWAP1 SWAP2 OR SWAP1 SSTORE JUMP JUMPDEST PUSH1 0x0 PUSH1 0x4 PUSH1 0x0 DUP4 PUSH1 0x40 MLOAD PUSH1 0x20 ADD DUP1 DUP1 PUSH32 0x6D65737361676543616C6C537461747573000000000000000000000000000000 DUP2 MSTORE POP PUSH1 0x11 ADD DUP3 PUSH1 0x0 NOT AND PUSH1 0x0 NOT AND DUP2 MSTORE PUSH1 0x20 ADD SWAP2 POP POP PUSH1 0x40 MLOAD PUSH1 0x20 DUP2 DUP4 SUB SUB DUP2 MSTORE SWAP1 PUSH1 0x40 MSTORE PUSH1 0x40 MLOAD DUP1 DUP3 DUP1 MLOAD SWAP1 PUSH1 0x20 ADD SWAP1 DUP1 DUP4 DUP4 PUSH1 0x20 DUP4 LT PUSH2 0x84A JUMPI DUP1 MLOAD DUP3 MSTORE PUSH1 0x1F NOT SWAP1 SWAP3 ADD SWAP2 PUSH1 0x20 SWAP2 DUP3 ADD SWAP2 ADD PUSH2 0x82B JUMP JUMPDEST PUSH32 0x7B58B2A669D8E0992EAE9EAEF641092C0F686FD31070E7236865557FA1571B5B SLOAD SWAP1 JUMP JUMPDEST PUSH32 0x1E8ECAAFADDEA96ED9AC6D2642DCDFE1BEBE58A930B1085842D8FC122B371EE5 PUSH1 0x0 SWAP1 DUP2 MSTORE PUSH1 0x20 MSTORE PUSH32 0xD5C78DD9468716CA9BB96BE25D56436811B20AAB3523A9904B12DEEF1CAB239D SLOAD SWAP1 JUMP JUMPDEST PUSH1 0x0 PUSH2 0x12BC DUP5 DUP5 DUP5 PUSH1 0x0 PUSH2 0x19C7 JUMP JUMPDEST SWAP5 SWAP4 POP POP POP POP JUMP JUMPDEST PUSH1 0x0 DUP1 PUSH1 0x0 DUP4 PUSH1 0x40 MLOAD PUSH1 0x20 ADD DUP1 DUP1 PUSH32 0x6661696C65644D65737361676544617461486173680000000000000000000000 DUP2 MSTORE POP PUSH1 0x15 ADD DUP3 PUSH1 0x0 NOT AND PUSH1 0x0 NOT AND DUP2 MSTORE PUSH1 0x20 ADD SWAP2 POP POP PUSH1 0x40 MLOAD PUSH1 0x20 DUP2 DUP4 SUB SUB DUP2 MSTORE SWAP1 PUSH1 0x40 MSTORE PUSH1 0x40 MLOAD DUP1 DUP3 DUP1 MLOAD SWAP1 PUSH1 0x20 ADD SWAP1 DUP1 DUP4 DUP4 JUMPDEST PUSH1 0x20 DUP4 LT PUSH2 0x1348 JUMPI DUP1 MLOAD DUP3 MSTORE PUSH1 0x1F NOT SWAP1 SWAP3 ADD SWAP2 PUSH1 0x20 SWAP2 DUP3 ADD SWAP2 ADD PUSH2 0x1329 JUMP JUMPDEST MLOAD DUP2 MLOAD PUSH1 0x20 SWAP4 DUP5 SUB PUSH2 0x100 EXP PUSH1 0x0 NOT ADD DUP1 NOT SWAP1 SWAP3 AND SWAP2 AND OR SWAP1 MSTORE PUSH1 0x40 DUP1 MLOAD SWAP3 SWAP1 SWAP5 ADD DUP3 SWAP1 SUB SWAP1 SWAP2 KECCAK256 DUP7 MSTORE DUP6 ADD SWAP6 SWAP1 SWAP6 MSTORE SWAP3 SWAP1 SWAP3 ADD PUSH1 0x0 KECCAK256 SLOAD SWAP6 SWAP5 POP POP POP POP POP JUMP JUMPDEST PUSH32 0x2670ECC91EC356E32067FD27B36614132D727B84A1E03E08F412A4F2CF075974 PUSH1 0x0 SWAP1 DUP2 MSTORE PUSH1 0x20 MSTORE PUSH32 0x3D7FE2EE9790702383EF0118B516833EF2542132D3CA4AC6C77F62F1230FA610 SLOAD SWAP1 JUMP JUMPDEST PUSH1 0x0 DUP1 PUSH1 0x0 DUP1 PUSH2 0x13E5 PUSH2 0x2BD9 JUMP JUMPDEST PUSH1 0x60 PUSH2 0x13F1 DUP10 DUP10 PUSH2 0x1826 JUMP JUMPDEST PUSH2 0x13FA DUP10 PUSH2 0x184E JUMP JUMPDEST SWAP6 SWAP12 POP SWAP4 SWAP10 POP SWAP2 SWAP8 POP SWAP1 SWAP6 POP SWAP1 SWAP4 POP SWAP1 SWAP2 POP PUSH2 0xC59 SWAP1 POP DUP7 DUP7 DUP7 DUP11 DUP8 DUP8 DUP8 PUSH2 0x192E JUMP JUMPDEST PUSH2 0x8FB DUP5 DUP5 DUP1 DUP1 PUSH1 0x1F ADD PUSH1 0x20 DUP1 SWAP2 DIV MUL PUSH1 0x20 ADD PUSH1 0x40 MLOAD SWAP1 DUP2 ADD PUSH1 0x40 MSTORE DUP1 SWAP4 SWAP3 SWAP2 SWAP1 DUP2 DUP2 MSTORE PUSH1 0x20 ADD DUP4 DUP4 DUP1 DUP3 DUP5 CALLDATACOPY POP POP PUSH1 0x40 DUP1 MLOAD PUSH1 0x20 PUSH1 0x1F DUP11 ADD DUP2 SWAP1 DIV DUP2 MUL DUP3 ADD DUP2 ADD SWAP1 SWAP3 MSTORE DUP9 DUP2 MSTORE SWAP5 POP DUP9 SWAP4 POP DUP8 SWAP3 POP DUP3 SWAP2 POP DUP5 ADD DUP4 DUP3 DUP1 DUP3 DUP5 CALLDATACOPY POP PUSH2 0xC14 SWAP5 POP POP POP POP POP JUMP JUMPDEST PUSH2 0x148C PUSH2 0xF78 JUMP JUMPDEST PUSH1 0x1 PUSH1 0xA0 PUSH1 0x2 EXP SUB AND CALLER EQ PUSH2 0x14A0 JUMPI PUSH1 0x0 DUP1 REVERT JUMPDEST PUSH2 0x10C9 DUP2 PUSH2 0x16F8 JUMP JUMPDEST PUSH32 0x55B3774520B5993024893D303890BAA4E84B1244A43C60034D1CED2D3CF2B04B PUSH1 0x0 SWAP1 DUP2 MSTORE PUSH1 0x20 MSTORE PUSH32 0xF7D5EEFAB3776D7F0450BD0193564BCB4F832CE313FF2836C450FC63A4B94419 SLOAD SWAP1 JUMP JUMPDEST PUSH1 0x0 SWAP1 EXTCODESIZE GT SWAP1 JUMP JUMPDEST PUSH1 0x0 DUP1 PUSH1 0x0 DUP1 PUSH1 0x0 DUP7 GT DUP1 ISZERO PUSH2 0x1515 JUMPI POP PUSH1 0x0 DUP6 GT JUMPDEST ISZERO ISZERO PUSH2 0x1520 JUMPI PUSH1 0x0 DUP1 REVERT JUMPDEST DUP6 DUP6 EQ ISZERO PUSH2 0x152D JUMPI PUSH1 0x0 DUP1 REVERT JUMPDEST POP PUSH1 0x0 SWAP3 POP DUP3 SWAP2 POP PUSH1 0xFF SWAP1 POP PUSH1 0x1 JUMPDEST DUP4 ISZERO DUP1 PUSH2 0x1547 JUMPI POP DUP3 ISZERO JUMPDEST ISZERO PUSH2 0x158F JUMPI DUP4 ISZERO DUP1 ISZERO PUSH2 0x155B JUMPI POP DUP6 DUP3 DUP8 AND EQ JUMPDEST ISZERO PUSH2 0x1564 JUMPI DUP1 SWAP4 POP JUMPDEST DUP3 ISZERO DUP1 ISZERO PUSH2 0x1573 JUMPI POP DUP5 DUP3 DUP7 AND EQ JUMPDEST ISZERO PUSH2 0x157C JUMPI DUP1 SWAP3 POP JUMPDEST PUSH2 0x100 SWAP2 SWAP1 SWAP2 MUL PUSH1 0xFF OR SWAP1 PUSH1 0x1 ADD PUSH2 0x153C JUMP JUMPDEST POP POP PUSH1 0x0 PUSH1 0x20 DUP2 SWAP1 MSTORE PUSH32 0xF6C66672B1A9FE5622677597B0DA8FD180A2C85696EFBCF7FE4B1E0F4F0F6108 SWAP5 SWAP1 SWAP5 SSTORE PUSH32 0x2F30286A16F86EE067618E1A246990E40C07B7749418A6DD3133F9CFB7E814CC SWAP2 SWAP1 SWAP2 SSTORE PUSH32 0x242329173DFC316001DF0A0C3D5A8F58A7FFB1A8B7D99C268303B9A741BACDF9 SWAP2 SWAP1 SWAP2 SSTORE PUSH32 0xFB792AE4AD11102B93F26A51B3749C2B3667F8B561566A4806D4989692811594 SWAP1 SWAP2 MSTORE PUSH32 0x7B62B32FF48350E85CE95B571FDE6F8B1096BC44A26DB769AD6D0B3A26BF1C6D SSTORE JUMP JUMPDEST PUSH1 0x0 DUP2 GT PUSH2 0x165C JUMPI PUSH1 0x0 DUP1 REVERT JUMPDEST PUSH2 0x10C9 DUP2 PUSH2 0x1AF2 JUMP JUMPDEST PUSH1 0x0 DUP2 GT PUSH2 0x1672 JUMPI PUSH1 0x0 DUP1 REVERT JUMPDEST PUSH32 0x916DAEDF6915000FF68CED2F0B6773FE6F2582237F92C3C95BB4D79407230071 PUSH1 0x0 SWAP1 DUP2 MSTORE PUSH1 0x20 SWAP1 DUP2 MSTORE PUSH32 0xD2EA0FEB732EDB0FFE32EFD33A6B9D24D46B16EB34A4D07CE256537B6F131E42 DUP3 SWAP1 SSTORE PUSH1 0x40 DUP1 MLOAD DUP4 DUP2 MSTORE SWAP1 MLOAD PUSH32 0x4FB76205CD57C896B21511D2114137D8E901B4CCD659E1A0F97D6306795264FB SWAP3 SWAP2 DUP2 SWAP1 SUB SWAP1 SWAP2 ADD SWAP1 LOG1 POP JUMP JUMPDEST PUSH1 0x1 PUSH1 0xA0 PUSH1 0x2 EXP SUB DUP2 AND ISZERO ISZERO PUSH2 0x170D JUMPI PUSH1 0x0 DUP1 REVERT JUMPDEST PUSH32 0x8BE0079C531659141344CD1FD0A4F28419497F9722A3DAAFE3B4186F6B6457E0 PUSH2 0x1736 PUSH2 0xF78 JUMP JUMPDEST PUSH1 0x40 DUP1 MLOAD PUSH1 0x1 PUSH1 0xA0 PUSH1 0x2 EXP SUB SWAP3 DUP4 AND DUP2 MSTORE SWAP2 DUP5 AND PUSH1 0x20 DUP4 ADD MSTORE DUP1 MLOAD SWAP2 DUP3 SWAP1 SUB ADD SWAP1 LOG1 PUSH32 0x2016836A56B71F0D02689E69E326F4F4C1B9057164EF592671CF0D37C8040C0 PUSH1 0x0 MSTORE PUSH1 0x2 PUSH1 0x20 MSTORE PUSH32 0xB7802E97E87EF2842A6CCE7DA7FFAEAEDAA2F61A6A7870B23D9D01FC9B73712E DUP1 SLOAD PUSH20 0xFFFFFFFFFFFFFFFFFFFFFFFFFFFFFFFFFFFFFFFF NOT AND PUSH1 0x1 PUSH1 0xA0 PUSH1 0x2 EXP SUB SWAP3 SWAP1 SWAP3 AND SWAP2 SWAP1 SWAP2 OR SWAP1 SSTORE JUMP JUMPDEST PUSH32 0xA6F646CD611241D8073675E00D1A1FF700FBF1B53FCF473DE56D1E6E4B714BA PUSH1 0x0 MSTORE PUSH1 0x4 PUSH1 0x20 MSTORE PUSH32 0x78D888F9B66F3F8BFA10909E31F1E16240DB73449F0500AFDBBE3A70DA457CC DUP1 SLOAD PUSH1 0xFF NOT AND PUSH1 0x1 OR SWAP1 SSTORE JUMP JUMPDEST PUSH1 0x0 PUSH2 0x1830 PUSH2 0xE72 JUMP JUMPDEST EQ PUSH2 0x183A JUMPI PUSH1 0x0 DUP1 REVERT JUMPDEST PUSH2 0xD99 DUP3 DUP3 PUSH2 0x1847 PUSH2 0xFCF JUMP JUMPDEST PUSH1 0x1 PUSH2 0x1B78 JUMP JUMPDEST PUSH1 0x0 DUP1 PUSH1 0x0 DUP1 PUSH1 0x0 PUSH2 0x185E PUSH2 0x2BD9 JUMP JUMPDEST PUSH1 0x60 PUSH1 0x0 DUP1 PUSH1 0x4F SWAP2 POP PUSH1 0x20 DUP11 ADD MLOAD SWAP9 POP PUSH1 0x1 PUSH1 0xA0 PUSH1 0x2 EXP SUB PUSH1 0x34 DUP12 ADD MLOAD AND SWAP8 POP PUSH1 0x54 DUP11 ADD MLOAD DUP1 PUSH1 0x60 SHR SWAP8 POP PUSH4 0xFFFFFFFF DUP2 PUSH1 0x40 SHR AND SWAP7 POP DUP1 PUSH1 0x1A BYTE SWAP6 POP DUP1 PUSH1 0x18 BYTE PUSH1 0x1 DUP1 DUP3 PUSH1 0x3 SHL SHL SUB DUP2 DUP6 ADD SWAP5 POP DUP1 DUP6 DUP15 ADD MLOAD AND DUP8 MSTORE DUP3 PUSH1 0x19 BYTE SWAP2 POP PUSH1 0x1 DUP1 DUP4 PUSH1 0x3 SHL SHL SUB SWAP1 POP DUP2 DUP6 ADD SWAP5 POP DUP1 DUP6 DUP15 ADD MLOAD AND PUSH1 0x20 DUP9 ADD MSTORE DUP5 DUP14 MLOAD SUB SWAP4 POP POP POP POP DUP1 PUSH1 0x40 MLOAD SWAP1 DUP1 DUP3 MSTORE DUP1 PUSH1 0x1F ADD PUSH1 0x1F NOT AND PUSH1 0x20 ADD DUP3 ADD PUSH1 0x40 MSTORE DUP1 ISZERO PUSH2 0x190D JUMPI DUP2 PUSH1 0x20 ADD PUSH1 0x20 DUP3 MUL DUP1 CODESIZE DUP4 CODECOPY ADD SWAP1 POP JUMPDEST POP SWAP3 POP PUSH1 0x24 DUP3 ADD SWAP2 POP DUP1 DUP3 PUSH1 0x4 CALLDATALOAD ADD PUSH1 0x20 DUP6 ADD CALLDATACOPY POP POP SWAP2 SWAP4 SWAP6 SWAP8 SWAP1 SWAP3 SWAP5 SWAP7 POP JUMP JUMPDEST PUSH2 0x1937 DUP8 PUSH2 0x1E02 JUMP JUMPDEST ISZERO ISZERO PUSH2 0x1942 JUMPI PUSH1 0x0 DUP1 REVERT JUMPDEST PUSH1 0x20 DUP3 ADD MLOAD PUSH2 0x1950 SWAP1 PUSH2 0x1E48 JUMP JUMPDEST ISZERO ISZERO PUSH2 0x195B JUMPI PUSH1 0x0 DUP1 REVERT JUMPDEST PUSH2 0x1964 DUP8 PUSH2 0x7C5 JUMP JUMPDEST ISZERO PUSH2 0x196E JUMPI PUSH1 0x0 DUP1 REVERT JUMPDEST PUSH2 0x1979 DUP8 PUSH1 0x1 PUSH2 0x1E5A JUMP JUMPDEST PUSH2 0x1995 DUP7 DUP7 DUP10 PUSH4 0xFFFFFFFF DUP9 AND DUP8 DUP8 PUSH1 0x0 PUSH1 0x20 MUL ADD MLOAD DUP8 PUSH2 0x1F2C JUMP JUMPDEST POP POP POP POP POP POP POP JUMP JUMPDEST PUSH1 0x0 DUP3 ISZERO ISZERO PUSH2 0x19AF JUMPI POP PUSH1 0x0 PUSH2 0xC7A JUMP JUMPDEST POP DUP2 DUP2 MUL DUP2 DUP4 DUP3 DUP2 ISZERO ISZERO PUSH2 0x19BF JUMPI INVALID JUMPDEST DIV EQ PUSH2 0xC7A JUMPI INVALID JUMPDEST PUSH1 0x0 DUP1 PUSH1 0x60 DUP1 DUP3 PUSH2 0x19D6 PUSH2 0xE72 JUMP JUMPDEST EQ DUP1 PUSH2 0x19E5 JUMPI POP PUSH2 0x19E5 PUSH2 0xE21 JUMP JUMPDEST ISZERO ISZERO PUSH2 0x19F0 JUMPI PUSH1 0x0 DUP1 REVERT JUMPDEST PUSH2 0x19F9 DUP8 PUSH2 0xC64 JUMP JUMPDEST DUP7 LT ISZERO DUP1 ISZERO PUSH2 0x1A0F JUMPI POP PUSH2 0x1A0B PUSH2 0x1389 JUMP JUMPDEST DUP7 GT ISZERO JUMPDEST ISZERO ISZERO PUSH2 0x1A1A JUMPI PUSH1 0x0 DUP1 REVERT JUMPDEST PUSH2 0x1A25 DUP9 DUP8 DUP8 PUSH2 0x1F83 JUMP JUMPDEST SWAP3 POP SWAP3 POP DUP2 DUP8 PUSH1 0x40 MLOAD PUSH1 0x20 ADD DUP1 DUP4 DUP1 MLOAD SWAP1 PUSH1 0x20 ADD SWAP1 DUP1 DUP4 DUP4 JUMPDEST PUSH1 0x20 DUP4 LT PUSH2 0x1A5D JUMPI DUP1 MLOAD DUP3 MSTORE PUSH1 0x1F NOT SWAP1 SWAP3 ADD SWAP2 PUSH1 0x20 SWAP2 DUP3 ADD SWAP2 ADD PUSH2 0x1A3E JUMP JUMPDEST MLOAD DUP2 MLOAD PUSH1 0x20 SWAP4 DUP5 SUB PUSH2 0x100 EXP PUSH1 0x0 NOT ADD DUP1 NOT SWAP1 SWAP3 AND SWAP2 AND OR SWAP1 MSTORE DUP6 MLOAD SWAP2 SWAP1 SWAP4 ADD SWAP3 DUP6 ADD SWAP2 POP DUP1 DUP4 DUP4 JUMPDEST PUSH1 0x20 DUP4 LT PUSH2 0x1AA5 JUMPI DUP1 MLOAD DUP3 MSTORE PUSH1 0x1F NOT SWAP1 SWAP3 ADD SWAP2 PUSH1 0x20 SWAP2 DUP3 ADD SWAP2 ADD PUSH2 0x1A86 JUMP JUMPDEST PUSH1 0x1 DUP4 PUSH1 0x20 SUB PUSH2 0x100 EXP SUB DUP1 NOT DUP3 MLOAD AND DUP2 DUP5 MLOAD AND DUP1 DUP3 OR DUP6 MSTORE POP POP POP POP POP POP SWAP1 POP ADD SWAP3 POP POP POP PUSH1 0x40 MLOAD PUSH1 0x20 DUP2 DUP4 SUB SUB DUP2 MSTORE SWAP1 PUSH1 0x40 MSTORE SWAP1 POP PUSH2 0x1AE6 DUP4 DUP3 PUSH2 0x2039 JUMP JUMPDEST POP SWAP1 SWAP7 SWAP6 POP POP POP POP POP POP JUMP JUMPDEST PUSH32 0x55B3774520B5993024893D303890BAA4E84B1244A43C60034D1CED2D3CF2B04B PUSH1 0x0 SWAP1 DUP2 MSTORE PUSH1 0x20 SWAP1 DUP2 MSTORE PUSH32 0xF7D5EEFAB3776D7F0450BD0193564BCB4F832CE313FF2836C450FC63A4B94419 DUP3 SWAP1 SSTORE PUSH1 0x40 DUP1 MLOAD DUP4 DUP2 MSTORE SWAP1 MLOAD PUSH32 0x52264B89E0FCEAFB26E79FD49EF8A366EB6297483BF4035B027F0C99A7AD512E SWAP3 SWAP2 DUP2 SWAP1 SUB SWAP1 SWAP2 ADD SWAP1 LOG1 POP JUMP JUMPDEST PUSH1 0x0 DUP1 PUSH1 0x0 PUSH1 0x60 PUSH1 0x0 DUP1 PUSH1 0x0 DUP1 PUSH1 0x0 DUP1 PUSH1 0x0 DUP12 DUP1 PUSH2 0x1B9A JUMPI POP PUSH2 0x1B9A DUP16 PUSH2 0x20D6 JUMP JUMPDEST ISZERO ISZERO PUSH2 0x1BA5 JUMPI PUSH1 0x0 DUP1 REVERT JUMPDEST DUP13 PUSH1 0x1 PUSH1 0xA0 PUSH1 0x2 EXP SUB AND PUSH4 0x8D068043 PUSH1 0x40 MLOAD DUP2 PUSH4 0xFFFFFFFF AND PUSH1 0xE0 PUSH1 0x2 EXP MUL DUP2 MSTORE PUSH1 0x4 ADD PUSH1 0x20 PUSH1 0x40 MLOAD DUP1 DUP4 SUB DUP2 PUSH1 0x0 DUP8 DUP1 EXTCODESIZE ISZERO DUP1 ISZERO PUSH2 0x1BE3 JUMPI PUSH1 0x0 DUP1 REVERT JUMPDEST POP GAS CALL ISZERO DUP1 ISZERO PUSH2 0x1BF7 JUMPI RETURNDATASIZE PUSH1 0x0 DUP1 RETURNDATACOPY RETURNDATASIZE PUSH1 0x0 REVERT JUMPDEST POP POP POP POP PUSH1 0x40 MLOAD RETURNDATASIZE PUSH1 0x20 DUP2 LT ISZERO PUSH2 0x1C0D JUMPI PUSH1 0x0 DUP1 REVERT JUMPDEST POP MLOAD PUSH1 0x1 DUP16 ADD MLOAD SWAP1 SWAP12 POP PUSH1 0xFF AND SWAP10 POP DUP11 DUP11 LT ISZERO PUSH2 0x1C29 JUMPI PUSH1 0x0 DUP1 REVERT JUMPDEST PUSH2 0x1C33 DUP16 DUP14 PUSH2 0x20EA JUMP JUMPDEST SWAP9 POP DUP11 PUSH1 0x40 MLOAD SWAP1 DUP1 DUP3 MSTORE DUP1 PUSH1 0x20 MUL PUSH1 0x20 ADD DUP3 ADD PUSH1 0x40 MSTORE DUP1 ISZERO PUSH2 0x1C5F JUMPI DUP2 PUSH1 0x20 ADD PUSH1 0x20 DUP3 MUL DUP1 CODESIZE DUP4 CODECOPY ADD SWAP1 POP JUMPDEST POP SWAP8 POP PUSH1 0x0 SWAP7 POP JUMPDEST DUP11 DUP8 LT ISZERO PUSH2 0x1DF1 JUMPI DUP7 PUSH1 0x20 MUL DUP11 PUSH1 0x21 ADD ADD SWAP3 POP DUP10 PUSH1 0x20 MUL DUP4 ADD SWAP2 POP DUP7 PUSH1 0x2 ADD DUP15 ADD MLOAD SWAP6 POP DUP3 DUP15 ADD MLOAD SWAP5 POP DUP2 DUP15 ADD MLOAD SWAP4 POP PUSH1 0x1 DUP10 DUP8 DUP8 DUP8 PUSH1 0x40 MLOAD PUSH1 0x0 DUP2 MSTORE PUSH1 0x20 ADD PUSH1 0x40 MSTORE PUSH1 0x40 MLOAD DUP1 DUP6 PUSH1 0x0 NOT AND PUSH1 0x0 NOT AND DUP2 MSTORE PUSH1 0x20 ADD DUP5 PUSH1 0xFF AND PUSH1 0xFF AND DUP2 MSTORE PUSH1 0x20 ADD DUP4 PUSH1 0x0 NOT AND PUSH1 0x0 NOT AND DUP2 MSTORE PUSH1 0x20 ADD DUP3 PUSH1 0x0 NOT AND PUSH1 0x0 NOT AND DUP2 MSTORE PUSH1 0x20 ADD SWAP5 POP POP POP POP POP PUSH1 0x20 PUSH1 0x40 MLOAD PUSH1 0x20 DUP2 SUB SWAP1 DUP1 DUP5 SUB SWAP1 PUSH1 0x0 DUP7 GAS CALL ISZERO DUP1 ISZERO PUSH2 0x1D0E JUMPI RETURNDATASIZE PUSH1 0x0 DUP1 RETURNDATACOPY RETURNDATASIZE PUSH1 0x0 REVERT JUMPDEST POP POP POP PUSH1 0x20 PUSH1 0x40 MLOAD SUB MLOAD SWAP1 POP DUP13 PUSH1 0x1 PUSH1 0xA0 PUSH1 0x2 EXP SUB AND PUSH4 0xFACD743B DUP3 PUSH1 0x40 MLOAD DUP3 PUSH4 0xFFFFFFFF AND PUSH1 0xE0 PUSH1 0x2 EXP MUL DUP2 MSTORE PUSH1 0x4 ADD DUP1 DUP3 PUSH1 0x1 PUSH1 0xA0 PUSH1 0x2 EXP SUB AND PUSH1 0x1 PUSH1 0xA0 PUSH1 0x2 EXP SUB AND DUP2 MSTORE PUSH1 0x20 ADD SWAP2 POP POP PUSH1 0x20 PUSH1 0x40 MLOAD DUP1 DUP4 SUB DUP2 PUSH1 0x0 DUP8 DUP1 EXTCODESIZE ISZERO DUP1 ISZERO PUSH2 0x1D75 JUMPI PUSH1 0x0 DUP1 REVERT JUMPDEST POP GAS CALL ISZERO DUP1 ISZERO PUSH2 0x1D89 JUMPI RETURNDATASIZE PUSH1 0x0 DUP1 RETURNDATACOPY RETURNDATASIZE PUSH1 0x0 REVERT JUMPDEST POP POP POP POP PUSH1 0x40 MLOAD RETURNDATASIZE PUSH1 0x20 DUP2 LT ISZERO PUSH2 0x1D9F JUMPI PUSH1 0x0 DUP1 REVERT JUMPDEST POP MLOAD ISZERO ISZERO PUSH2 0x1DAC JUMPI PUSH1 0x0 DUP1 REVERT JUMPDEST PUSH2 0x1DB6 DUP9 DUP3 PUSH2 0x2304 JUMP JUMPDEST ISZERO PUSH2 0x1DC0 JUMPI PUSH1 0x0 DUP1 REVERT JUMPDEST DUP1 DUP9 DUP9 DUP2 MLOAD DUP2 LT ISZERO ISZERO PUSH2 0x1DCF JUMPI INVALID JUMPDEST PUSH1 0x1 PUSH1 0xA0 PUSH1 0x2 EXP SUB SWAP1 SWAP3 AND PUSH1 0x20 SWAP3 DUP4 MUL SWAP1 SWAP2 ADD SWAP1 SWAP2 ADD MSTORE PUSH1 0x1 SWAP1 SWAP7 ADD SWAP6 PUSH2 0x1C67 JUMP JUMPDEST POP POP POP POP POP POP POP POP POP POP POP POP POP POP POP JUMP JUMPDEST PUSH28 0xFFFFFFFFFFFFFFFFFFFFFFFFFFFFFFFFFFFFFFFFFFFFFFFFFFFFFFFF NOT DUP2 AND PUSH31 0x5000000000000000000000000000000000000000000000000000000000000 EQ SWAP2 SWAP1 POP JUMP JUMPDEST PUSH1 0x0 PUSH2 0x1E52 PUSH2 0x777 JUMP JUMPDEST SWAP1 SWAP2 EQ SWAP2 SWAP1 POP JUMP JUMPDEST DUP1 PUSH1 0x4 PUSH1 0x0 DUP5 PUSH1 0x40 MLOAD PUSH1 0x20 ADD DUP1 DUP1 PUSH32 0x72656C617965644D657373616765730000000000000000000000000000000000 DUP2 MSTORE POP PUSH1 0xF ADD DUP3 PUSH1 0x0 NOT AND PUSH1 0x0 NOT AND DUP2 MSTORE PUSH1 0x20 ADD SWAP2 POP POP PUSH1 0x40 MLOAD PUSH1 0x20 DUP2 DUP4 SUB SUB DUP2 MSTORE SWAP1 PUSH1 0x40 MSTORE PUSH1 0x40 MLOAD DUP1 DUP3 DUP1 MLOAD SWAP1 PUSH1 0x20 ADD SWAP1 DUP1 DUP4 DUP4 JUMPDEST PUSH1 0x20 DUP4 LT PUSH2 0x1EDE JUMPI DUP1 MLOAD DUP3 MSTORE PUSH1 0x1F NOT SWAP1 SWAP3 ADD SWAP2 PUSH1 0x20 SWAP2 DUP3 ADD SWAP2 ADD PUSH2 0x1EBF JUMP JUMPDEST MLOAD DUP2 MLOAD PUSH1 0x20 SWAP4 DUP5 SUB PUSH2 0x100 EXP PUSH1 0x0 NOT ADD DUP1 NOT SWAP1 SWAP3 AND SWAP2 AND OR SWAP1 MSTORE PUSH1 0x40 DUP1 MLOAD SWAP3 SWAP1 SWAP5 ADD DUP3 SWAP1 SUB SWAP1 SWAP2 KECCAK256 DUP7 MSTORE DUP6 ADD SWAP6 SWAP1 SWAP6 MSTORE SWAP3 SWAP1 SWAP3 ADD PUSH1 0x0 KECCAK256 DUP1 SLOAD PUSH1 0xFF NOT AND SWAP5 ISZERO ISZERO SWAP5 SWAP1 SWAP5 OR SWAP1 SWAP4 SSTORE POP POP POP POP POP JUMP JUMPDEST PUSH1 0x0 PUSH2 0x1F3C DUP9 DUP9 DUP5 DUP9 DUP11 DUP9 PUSH2 0x235F JUMP JUMPDEST SWAP1 POP PUSH2 0x1F48 DUP7 DUP3 PUSH2 0x2455 JUMP JUMPDEST DUP1 ISZERO ISZERO PUSH2 0x1F6D JUMPI PUSH2 0x1F59 DUP7 DUP4 PUSH2 0x24D8 JUMP JUMPDEST PUSH2 0x1F63 DUP7 DUP9 PUSH2 0x25E7 JUMP JUMPDEST PUSH2 0x1F6D DUP7 DUP10 PUSH2 0x26D5 JUMP JUMPDEST PUSH2 0x1F79 DUP9 DUP9 DUP9 DUP5 PUSH2 0x2758 JUMP JUMPDEST POP POP POP POP POP POP POP POP JUMP JUMPDEST PUSH1 0x0 PUSH1 0x60 PUSH1 0x0 DUP1 PUSH1 0x0 DUP1 PUSH2 0x1F95 PUSH2 0x777 JUMP JUMPDEST SWAP4 POP PUSH2 0x1F9F PUSH2 0x27A6 JUMP JUMPDEST SWAP3 POP PUSH2 0x1FA9 PUSH2 0x10CC JUMP JUMPDEST SWAP2 POP PUSH2 0x1FB3 PUSH2 0x27F4 JUMP JUMPDEST SWAP1 POP PUSH2 0x1FBE DUP5 PUSH2 0x2842 JUMP JUMPDEST SWAP6 POP DUP1 DUP4 PUSH1 0x4F ADD ADD PUSH1 0x40 MLOAD SWAP1 DUP1 DUP3 MSTORE DUP1 PUSH1 0x1F ADD PUSH1 0x1F NOT AND PUSH1 0x20 ADD DUP3 ADD PUSH1 0x40 MSTORE DUP1 ISZERO PUSH2 0x1FF3 JUMPI DUP2 PUSH1 0x20 ADD PUSH1 0x20 DUP3 MUL DUP1 CODESIZE DUP4 CODECOPY ADD SWAP1 POP JUMPDEST POP SWAP5 POP DUP5 MLOAD DUP6 ADD DUP3 DUP2 MSTORE DUP5 DUP3 DUP3 SUB MSTORE DUP8 PUSH1 0x4F DUP8 ADD MSTORE DUP2 PUSH1 0x4E DUP8 ADD MSTORE DUP4 PUSH1 0x4D DUP8 ADD MSTORE DUP9 PUSH1 0x4C DUP8 ADD MSTORE DUP10 PUSH1 0x48 DUP8 ADD MSTORE CALLER PUSH1 0x34 DUP8 ADD MSTORE DUP7 PUSH1 0x20 DUP8 ADD MSTORE POP POP POP POP POP SWAP4 POP SWAP4 SWAP2 POP POP JUMP JUMPDEST PUSH1 0x40 DUP1 MLOAD PUSH1 0x20 DUP1 DUP3 MSTORE DUP4 MLOAD DUP2 DUP4 ADD MSTORE DUP4 MLOAD DUP6 SWAP4 PUSH32 0x482515CE3D9494A37CE83F18B72B363449458435FAFDD7A53DDEA7460FE01B58 SWAP4 DUP7 SWAP4 SWAP1 SWAP3 DUP4 SWAP3 DUP4 ADD SWAP2 DUP6 ADD SWAP1 DUP1 DUP4 DUP4 PUSH1 0x0 JUMPDEST DUP4 DUP2 LT ISZERO PUSH2 0x2098 JUMPI DUP2 DUP2 ADD MLOAD DUP4 DUP3 ADD MSTORE PUSH1 0x20 ADD PUSH2 0x2080 JUMP JUMPDEST POP POP POP POP SWAP1 POP SWAP1 DUP2 ADD SWAP1 PUSH1 0x1F AND DUP1 ISZERO PUSH2 0x20C5 JUMPI DUP1 DUP3 SUB DUP1 MLOAD PUSH1 0x1 DUP4 PUSH1 0x20 SUB PUSH2 0x100 EXP SUB NOT AND DUP2 MSTORE PUSH1 0x20 ADD SWAP2 POP JUMPDEST POP SWAP3 POP POP POP PUSH1 0x40 MLOAD DUP1 SWAP2 SUB SWAP1 LOG2 POP POP JUMP JUMPDEST PUSH1 0x0 PUSH2 0x20E0 PUSH2 0x2945 JUMP JUMPDEST DUP3 MLOAD EQ SWAP1 POP SWAP2 SWAP1 POP JUMP JUMPDEST PUSH1 0x40 DUP1 MLOAD DUP1 DUP3 ADD SWAP1 SWAP2 MSTORE PUSH1 0x1A DUP2 MSTORE PUSH32 0x19457468657265756D205369676E6564204D6573736167653A0A000000000000 PUSH1 0x20 DUP3 ADD MSTORE PUSH1 0x0 SWAP1 PUSH1 0x60 DUP4 ISZERO PUSH2 0x2290 JUMPI DUP2 PUSH2 0x2134 DUP7 MLOAD PUSH2 0x294A JUMP JUMPDEST DUP7 PUSH1 0x40 MLOAD PUSH1 0x20 ADD DUP1 DUP5 DUP1 MLOAD SWAP1 PUSH1 0x20 ADD SWAP1 DUP1 DUP4 DUP4 JUMPDEST PUSH1 0x20 DUP4 LT PUSH2 0x2167 JUMPI DUP1 MLOAD DUP3 MSTORE PUSH1 0x1F NOT SWAP1 SWAP3 ADD SWAP2 PUSH1 0x20 SWAP2 DUP3 ADD SWAP2 ADD PUSH2 0x2148 JUMP JUMPDEST MLOAD DUP2 MLOAD PUSH1 0x20 SWAP4 DUP5 SUB PUSH2 0x100 EXP PUSH1 0x0 NOT ADD DUP1 NOT SWAP1 SWAP3 AND SWAP2 AND OR SWAP1 MSTORE DUP7 MLOAD SWAP2 SWAP1 SWAP4 ADD SWAP3 DUP7 ADD SWAP2 POP DUP1 DUP4 DUP4 JUMPDEST PUSH1 0x20 DUP4 LT PUSH2 0x21AF JUMPI DUP1 MLOAD DUP3 MSTORE PUSH1 0x1F NOT SWAP1 SWAP3 ADD SWAP2 PUSH1 0x20 SWAP2 DUP3 ADD SWAP2 ADD PUSH2 0x2190 JUMP JUMPDEST MLOAD DUP2 MLOAD PUSH1 0x20 SWAP4 DUP5 SUB PUSH2 0x100 EXP PUSH1 0x0 NOT ADD DUP1 NOT SWAP1 SWAP3 AND SWAP2 AND OR SWAP1 MSTORE DUP6 MLOAD SWAP2 SWAP1 SWAP4 ADD SWAP3 DUP6 ADD SWAP2 POP DUP1 DUP4 DUP4 JUMPDEST PUSH1 0x20 DUP4 LT PUSH2 0x21F7 JUMPI DUP1 MLOAD DUP3 MSTORE PUSH1 0x1F NOT SWAP1 SWAP3 ADD SWAP2 PUSH1 0x20 SWAP2 DUP3 ADD SWAP2 ADD PUSH2 0x21D8 JUMP JUMPDEST PUSH1 0x1 DUP4 PUSH1 0x20 SUB PUSH2 0x100 EXP SUB DUP1 NOT DUP3 MLOAD AND DUP2 DUP5 MLOAD AND DUP1 DUP3 OR DUP6 MSTORE POP POP POP POP POP POP SWAP1 POP ADD SWAP4 POP POP POP POP PUSH1 0x40 MLOAD PUSH1 0x20 DUP2 DUP4 SUB SUB DUP2 MSTORE SWAP1 PUSH1 0x40 MSTORE PUSH1 0x40 MLOAD DUP1 DUP3 DUP1 MLOAD SWAP1 PUSH1 0x20 ADD SWAP1 DUP1 DUP4 DUP4 JUMPDEST PUSH1 0x20 DUP4 LT PUSH2 0x225C JUMPI DUP1 MLOAD DUP3 MSTORE PUSH1 0x1F NOT SWAP1 SWAP3 ADD SWAP2 PUSH1 0x20 SWAP2 DUP3 ADD SWAP2 ADD PUSH2 0x223D JUMP JUMPDEST PUSH1 0x1 DUP4 PUSH1 0x20 SUB PUSH2 0x100 EXP SUB DUP1 NOT DUP3 MLOAD AND DUP2 DUP5 MLOAD AND DUP1 DUP3 OR DUP6 MSTORE POP POP POP POP POP POP SWAP1 POP ADD SWAP2 POP POP PUSH1 0x40 MLOAD DUP1 SWAP2 SUB SWAP1 KECCAK256 SWAP3 POP PUSH2 0x22FC JUMP JUMPDEST PUSH1 0x40 DUP1 MLOAD SWAP1 DUP2 ADD PUSH1 0x40 MSTORE DUP1 PUSH1 0x3 DUP2 MSTORE PUSH1 0x20 ADD PUSH32 0x3130340000000000000000000000000000000000000000000000000000000000 DUP2 MSTORE POP SWAP1 POP DUP2 DUP2 DUP7 PUSH1 0x40 MLOAD PUSH1 0x20 ADD DUP1 DUP5 DUP1 MLOAD SWAP1 PUSH1 0x20 ADD SWAP1 DUP1 DUP4 DUP4 PUSH1 0x20 DUP4 LT PUSH2 0x2167 JUMPI DUP1 MLOAD DUP3 MSTORE PUSH1 0x1F NOT SWAP1 SWAP3 ADD SWAP2 PUSH1 0x20 SWAP2 DUP3 ADD SWAP2 ADD PUSH2 0x2148 JUMP JUMPDEST POP POP SWAP3 SWAP2 POP POP JUMP JUMPDEST PUSH1 0x0 DUP1 JUMPDEST DUP4 MLOAD DUP2 LT ISZERO PUSH2 0x2353 JUMPI DUP3 PUSH1 0x1 PUSH1 0xA0 PUSH1 0x2 EXP SUB AND DUP5 DUP3 DUP2 MLOAD DUP2 LT ISZERO ISZERO PUSH2 0x2329 JUMPI INVALID JUMPDEST SWAP1 PUSH1 0x20 ADD SWAP1 PUSH1 0x20 MUL ADD MLOAD PUSH1 0x1 PUSH1 0xA0 PUSH1 0x2 EXP SUB AND EQ ISZERO PUSH2 0x234B JUMPI PUSH1 0x1 SWAP2 POP PUSH2 0x2358 JUMP JUMPDEST PUSH1 0x1 ADD PUSH2 0x2308 JUMP JUMPDEST PUSH1 0x0 SWAP2 POP JUMPDEST POP SWAP3 SWAP2 POP POP JUMP JUMPDEST PUSH1 0x0 DUP1 PUSH2 0x236B DUP9 PUSH2 0x2A71 JUMP JUMPDEST PUSH2 0x2374 DUP5 PUSH2 0x2A95 JUMP JUMPDEST PUSH2 0x237D DUP4 PUSH2 0x2AB9 JUMP JUMPDEST DUP5 PUSH4 0xFFFFFFFF EQ DUP1 PUSH2 0x239D JUMPI POP DUP5 PUSH1 0x40 GAS PUSH1 0x3F MUL DUP2 ISZERO ISZERO PUSH2 0x239A JUMPI INVALID JUMPDEST DIV GT JUMPDEST ISZERO ISZERO PUSH2 0x23A8 JUMPI PUSH1 0x0 DUP1 REVERT JUMPDEST DUP7 PUSH1 0x1 PUSH1 0xA0 PUSH1 0x2 EXP SUB AND DUP6 DUP8 PUSH1 0x40 MLOAD DUP1 DUP3 DUP1 MLOAD SWAP1 PUSH1 0x20 ADD SWAP1 DUP1 DUP4 DUP4 PUSH1 0x0 JUMPDEST DUP4 DUP2 LT ISZERO PUSH2 0x23DE JUMPI DUP2 DUP2 ADD MLOAD DUP4 DUP3 ADD MSTORE PUSH1 0x20 ADD PUSH2 0x23C6 JUMP JUMPDEST POP POP POP POP SWAP1 POP SWAP1 DUP2 ADD SWAP1 PUSH1 0x1F AND DUP1 ISZERO PUSH2 0x240B JUMPI DUP1 DUP3 SUB DUP1 MLOAD PUSH1 0x1 DUP4 PUSH1 0x20 SUB PUSH2 0x100 EXP SUB NOT AND DUP2 MSTORE PUSH1 0x20 ADD SWAP2 POP JUMPDEST POP SWAP2 POP POP PUSH1 0x0 PUSH1 0x40 MLOAD DUP1 DUP4 SUB DUP2 PUSH1 0x0 DUP8 DUP8 CALL SWAP3 POP POP POP SWAP1 POP PUSH2 0x242C DUP2 PUSH2 0x2ADD JUMP JUMPDEST PUSH2 0x2436 PUSH1 0x0 PUSH2 0x2A71 JUMP JUMPDEST PUSH2 0x2440 PUSH1 0x0 PUSH2 0x2A95 JUMP JUMPDEST PUSH2 0x244A PUSH1 0x0 PUSH2 0x2AB9 JUMP JUMPDEST SWAP8 SWAP7 POP POP POP POP POP POP POP JUMP JUMPDEST DUP1 PUSH1 0x4 PUSH1 0x0 DUP5 PUSH1 0x40 MLOAD PUSH1 0x20 ADD DUP1 DUP1 PUSH32 0x6D65737361676543616C6C537461747573000000000000000000000000000000 DUP2 MSTORE POP PUSH1 0x11 ADD DUP3 PUSH1 0x0 NOT AND PUSH1 0x0 NOT AND DUP2 MSTORE PUSH1 0x20 ADD SWAP2 POP POP PUSH1 0x40 MLOAD PUSH1 0x20 DUP2 DUP4 SUB SUB DUP2 MSTORE SWAP1 PUSH1 0x40 MSTORE PUSH1 0x40 MLOAD DUP1 DUP3 DUP1 MLOAD SWAP1 PUSH1 0x20 ADD SWAP1 DUP1 DUP4 DUP4 PUSH1 0x20 DUP4 LT PUSH2 0x1EDE JUMPI DUP1 MLOAD DUP3 MSTORE PUSH1 0x1F NOT SWAP1 SWAP3 ADD SWAP2 PUSH1 0x20 SWAP2 DUP3 ADD SWAP2 ADD PUSH2 0x1EBF JUMP JUMPDEST DUP1 PUSH1 0x40 MLOAD DUP1 DUP3 DUP1 MLOAD SWAP1 PUSH1 0x20 ADD SWAP1 DUP1 DUP4 DUP4 JUMPDEST PUSH1 0x20 DUP4 LT PUSH2 0x2508 JUMPI DUP1 MLOAD DUP3 MSTORE PUSH1 0x1F NOT SWAP1 SWAP3 ADD SWAP2 PUSH1 0x20 SWAP2 DUP3 ADD SWAP2 ADD PUSH2 0x24E9 JUMP JUMPDEST MLOAD DUP2 MLOAD PUSH1 0x20 SWAP4 DUP5 SUB PUSH2 0x100 EXP PUSH1 0x0 NOT ADD DUP1 NOT SWAP1 SWAP3 AND SWAP2 AND OR SWAP1 MSTORE PUSH1 0x40 DUP1 MLOAD SWAP3 SWAP1 SWAP5 ADD DUP3 SWAP1 SUB DUP3 KECCAK256 PUSH32 0x6661696C65644D65737361676544617461486173680000000000000000000000 DUP4 DUP4 ADD MSTORE PUSH1 0x35 DUP1 DUP5 ADD DUP11 SWAP1 MSTORE DUP6 MLOAD DUP1 DUP6 SUB SWAP1 SWAP2 ADD DUP2 MSTORE PUSH1 0x55 SWAP1 SWAP4 ADD SWAP5 DUP6 SWAP1 MSTORE DUP3 MLOAD SWAP1 SWAP7 POP PUSH1 0x0 SWAP6 POP DUP6 SWAP5 SWAP3 SWAP4 POP DUP3 SWAP2 DUP5 ADD SWAP1 DUP1 DUP4 DUP4 JUMPDEST PUSH1 0x20 DUP4 LT PUSH2 0x25A5 JUMPI DUP1 MLOAD DUP3 MSTORE PUSH1 0x1F NOT SWAP1 SWAP3 ADD SWAP2 PUSH1 0x20 SWAP2 DUP3 ADD SWAP2 ADD PUSH2 0x2586 JUMP JUMPDEST MLOAD DUP2 MLOAD PUSH1 0x20 SWAP4 DUP5 SUB PUSH2 0x100 EXP PUSH1 0x0 NOT ADD DUP1 NOT SWAP1 SWAP3 AND SWAP2 AND OR SWAP1 MSTORE PUSH1 0x40 DUP1 MLOAD SWAP3 SWAP1 SWAP5 ADD DUP3 SWAP1 SUB SWAP1 SWAP2 KECCAK256 DUP7 MSTORE DUP6 ADD SWAP6 SWAP1 SWAP6 MSTORE SWAP3 SWAP1 SWAP3 ADD PUSH1 0x0 KECCAK256 SWAP4 SWAP1 SWAP4 SSTORE POP POP POP POP POP JUMP JUMPDEST DUP1 PUSH1 0x2 PUSH1 0x0 DUP5 PUSH1 0x40 MLOAD PUSH1 0x20 ADD DUP1 DUP1 PUSH32 0x6661696C65644D65737361676552656365697665720000000000000000000000 DUP2 MSTORE POP PUSH1 0x15 ADD DUP3 PUSH1 0x0 NOT AND PUSH1 0x0 NOT AND DUP2 MSTORE PUSH1 0x20 ADD SWAP2 POP POP PUSH1 0x40 MLOAD PUSH1 0x20 DUP2 DUP4 SUB SUB DUP2 MSTORE SWAP1 PUSH1 0x40 MSTORE PUSH1 0x40 MLOAD DUP1 DUP3 DUP1 MLOAD SWAP1 PUSH1 0x20 ADD SWAP1 DUP1 DUP4 DUP4 JUMPDEST PUSH1 0x20 DUP4 LT PUSH2 0x266B JUMPI DUP1 MLOAD DUP3 MSTORE PUSH1 0x1F NOT SWAP1 SWAP3 ADD SWAP2 PUSH1 0x20 SWAP2 DUP3 ADD SWAP2 ADD PUSH2 0x264C JUMP JUMPDEST MLOAD DUP2 MLOAD PUSH1 0x20 SWAP4 DUP5 SUB PUSH2 0x100 EXP PUSH1 0x0 NOT ADD DUP1 NOT SWAP1 SWAP3 AND SWAP2 AND OR SWAP1 MSTORE PUSH1 0x40 DUP1 MLOAD SWAP3 SWAP1 SWAP5 ADD DUP3 SWAP1 SUB SWAP1 SWAP2 KECCAK256 DUP7 MSTORE DUP6 ADD SWAP6 SWAP1 SWAP6 MSTORE SWAP3 SWAP1 SWAP3 ADD PUSH1 0x0 KECCAK256 DUP1 SLOAD PUSH20 0xFFFFFFFFFFFFFFFFFFFFFFFFFFFFFFFFFFFFFFFF NOT AND PUSH1 0x1 PUSH1 0xA0 PUSH1 0x2 EXP SUB SWAP6 SWAP1 SWAP6 AND SWAP5 SWAP1 SWAP5 OR SWAP1 SWAP4 SSTORE POP POP POP POP POP JUMP JUMPDEST DUP1 PUSH1 0x2 PUSH1 0x0 DUP5 PUSH1 0x40 MLOAD PUSH1 0x20 ADD DUP1 DUP1 PUSH32 0x6661696C65644D65737361676553656E64657200000000000000000000000000 DUP2 MSTORE POP PUSH1 0x13 ADD DUP3 PUSH1 0x0 NOT AND PUSH1 0x0 NOT AND DUP2 MSTORE PUSH1 0x20 ADD SWAP2 POP POP PUSH1 0x40 MLOAD PUSH1 0x20 DUP2 DUP4 SUB SUB DUP2 MSTORE SWAP1 PUSH1 0x40 MSTORE PUSH1 0x40 MLOAD DUP1 DUP3 DUP1 MLOAD SWAP1 PUSH1 0x20 ADD SWAP1 DUP1 DUP4 DUP4 PUSH1 0x20 DUP4 LT PUSH2 0x266B JUMPI DUP1 MLOAD DUP3 MSTORE PUSH1 0x1F NOT SWAP1 SWAP3 ADD SWAP2 PUSH1 0x20 SWAP2 DUP3 ADD SWAP2 ADD PUSH2 0x264C JUMP JUMPDEST PUSH1 0x40 DUP1 MLOAD DUP3 ISZERO ISZERO DUP2 MSTORE SWAP1 MLOAD DUP4 SWAP2 PUSH1 0x1 PUSH1 0xA0 PUSH1 0x2 EXP SUB DUP1 DUP8 AND SWAP3 SWAP1 DUP9 AND SWAP2 PUSH32 0x27333EDB8BDCD40A0AE944FB121B5E2D62EA782683946654A0F5E607A908D578 SWAP2 SWAP1 DUP2 SWAP1 SUB PUSH1 0x20 ADD SWAP1 LOG4 POP POP POP POP JUMP JUMPDEST PUSH32 0xE504AE1FD6471EEA80F18B8532A61A9BB91FBA4F5B837F80A1CFB6752350AF44 PUSH1 0x0 SWAP1 DUP2 MSTORE PUSH1 0x20 MSTORE PUSH32 0x2F30286A16F86EE067618E1A246990E40C07B7749418A6DD3133F9CFB7E814CC SLOAD SWAP1 JUMP JUMPDEST PUSH32 0xFB792AE4AD11102B93F26A51B3749C2B3667F8B561566A4806D4989692811594 PUSH1 0x0 SWAP1 DUP2 MSTORE PUSH1 0x20 MSTORE PUSH32 0x7B62B32FF48350E85CE95B571FDE6F8B1096BC44A26DB769AD6D0B3A26BF1C6D SLOAD SWAP1 JUMP JUMPDEST PUSH1 0x0 DUP1 PUSH1 0x0 PUSH2 0x284F PUSH2 0x2B34 JUMP JUMPDEST SWAP2 POP PUSH2 0x285D DUP3 PUSH1 0x1 ADD PUSH2 0x2B82 JUMP JUMPDEST PUSH1 0x40 DUP1 MLOAD PUSH1 0x20 DUP1 DUP3 ADD DUP8 SWAP1 MSTORE PUSH13 0x1000000000000000000000000 ADDRESS MUL DUP3 DUP5 ADD MSTORE DUP3 MLOAD PUSH1 0x34 DUP2 DUP5 SUB ADD DUP2 MSTORE PUSH1 0x54 SWAP1 SWAP3 ADD SWAP3 DUP4 SWAP1 MSTORE DUP2 MLOAD SWAP2 SWAP3 SWAP2 DUP3 SWAP2 DUP5 ADD SWAP1 DUP1 DUP4 DUP4 JUMPDEST PUSH1 0x20 DUP4 LT PUSH2 0x28BD JUMPI DUP1 MLOAD DUP3 MSTORE PUSH1 0x1F NOT SWAP1 SWAP3 ADD SWAP2 PUSH1 0x20 SWAP2 DUP3 ADD SWAP2 ADD PUSH2 0x289E JUMP JUMPDEST MLOAD DUP2 MLOAD PUSH1 0x0 NOT PUSH1 0x20 SWAP5 SWAP1 SWAP5 SUB PUSH2 0x100 EXP SWAP4 SWAP1 SWAP4 ADD SWAP3 DUP4 AND SWAP3 NOT AND SWAP2 SWAP1 SWAP2 OR SWAP1 MSTORE PUSH1 0x40 MLOAD SWAP3 ADD DUP3 SWAP1 SUB SWAP1 SWAP2 KECCAK256 PUSH8 0xFFFFFFFFFFFFFFFF DUP7 AND PUSH28 0xFFFFFFFFFFFFFFFFFFFFFFFFFFFFFFFFFFFFFFFF0000000000000000 SWAP1 SWAP2 AND SWAP1 DUP2 OR PUSH31 0x5000000000000000000000000000000000000000000000000000000000000 OR SWAP7 POP SWAP4 POP POP POP POP POP POP SWAP2 SWAP1 POP JUMP JUMPDEST PUSH1 0x68 SWAP1 JUMP JUMPDEST PUSH1 0x60 PUSH1 0x0 DUP1 DUP3 DUP2 DUP6 ISZERO ISZERO PUSH2 0x2993 JUMPI PUSH1 0x40 DUP1 MLOAD DUP1 DUP3 ADD SWAP1 SWAP2 MSTORE PUSH1 0x1 DUP2 MSTORE PUSH32 0x3000000000000000000000000000000000000000000000000000000000000000 PUSH1 0x20 DUP3 ADD MSTORE SWAP5 POP PUSH2 0x2A68 JUMP JUMPDEST DUP6 SWAP4 POP JUMPDEST DUP4 ISZERO PUSH2 0x29AE JUMPI PUSH1 0x1 SWAP1 SWAP3 ADD SWAP2 PUSH1 0xA DUP5 DIV SWAP4 POP PUSH2 0x2997 JUMP JUMPDEST DUP3 PUSH1 0x40 MLOAD SWAP1 DUP1 DUP3 MSTORE DUP1 PUSH1 0x1F ADD PUSH1 0x1F NOT AND PUSH1 0x20 ADD DUP3 ADD PUSH1 0x40 MSTORE DUP1 ISZERO PUSH2 0x29DC JUMPI DUP2 PUSH1 0x20 ADD PUSH1 0x20 DUP3 MUL DUP1 CODESIZE DUP4 CODECOPY ADD SWAP1 POP JUMPDEST POP SWAP2 POP POP PUSH1 0x0 NOT DUP3 ADD JUMPDEST DUP6 ISZERO PUSH2 0x2A64 JUMPI DUP2 MLOAD PUSH1 0x0 NOT DUP3 ADD SWAP2 PUSH32 0x100000000000000000000000000000000000000000000000000000000000000 PUSH1 0x30 PUSH1 0xA DUP11 MOD ADD MUL SWAP2 DUP5 SWAP2 SWAP1 DUP2 LT PUSH2 0x2A29 JUMPI INVALID JUMPDEST SWAP1 PUSH1 0x20 ADD ADD SWAP1 PUSH31 0xFFFFFFFFFFFFFFFFFFFFFFFFFFFFFFFFFFFFFFFFFFFFFFFFFFFFFFFFFFFFFF NOT AND SWAP1 DUP2 PUSH1 0x0 BYTE SWAP1 MSTORE8 POP PUSH1 0xA DUP7 DIV SWAP6 POP PUSH2 0x29E6 JUMP JUMPDEST DUP2 SWAP5 POP JUMPDEST POP POP POP POP SWAP2 SWAP1 POP JUMP JUMPDEST PUSH32 0x7B58B2A669D8E0992EAE9EAEF641092C0F686FD31070E7236865557FA1571B5B SSTORE JUMP JUMPDEST PUSH32 0xE34BB2103DC34F2C144CC216C132D6FFB55DAC57575C22E089161BBE65083304 SSTORE JUMP JUMPDEST PUSH32 0x7F0FCD9E49860F055DD0C1682D635D309ECB5E3011654C716D9EB59A7DDEC7D2 SSTORE JUMP JUMPDEST DUP1 DUP1 PUSH2 0x2B29 JUMPI POP PUSH1 0x0 CALLDATALOAD PUSH28 0xFFFFFFFFFFFFFFFFFFFFFFFFFFFFFFFFFFFFFFFFFFFFFFFFFFFFFFFF NOT AND PUSH32 0x3F7658FD00000000000000000000000000000000000000000000000000000000 EQ JUMPDEST ISZERO ISZERO PUSH2 0x10C9 JUMPI PUSH1 0x0 DUP1 REVERT JUMPDEST PUSH32 0x7AB1577440DD7BEDF920CB6DE2F9FC6BF7BA98C78C85A3FA1F8311AAC95E1759 PUSH1 0x0 SWAP1 DUP2 MSTORE PUSH1 0x20 MSTORE PUSH32 0xA9B0F75B23E377B9B22D27FEACA5D8A12329C0049EBCE1DC695B905F3AA4CD00 SLOAD SWAP1 JUMP JUMPDEST PUSH32 0x7AB1577440DD7BEDF920CB6DE2F9FC6BF7BA98C78C85A3FA1F8311AAC95E1759 PUSH1 0x0 SWAP1 DUP2 MSTORE PUSH1 0x20 MSTORE PUSH8 0xFFFFFFFFFFFFFFFF AND PUSH32 0xA9B0F75B23E377B9B22D27FEACA5D8A12329C0049EBCE1DC695B905F3AA4CD00 SSTORE JUMP JUMPDEST PUSH1 0x40 DUP1 MLOAD DUP1 DUP3 ADD DUP3 MSTORE SWAP1 PUSH1 0x2 SWAP1 DUP3 SWAP1 DUP1 CODESIZE DUP4 CODECOPY POP SWAP2 SWAP3 SWAP2 POP POP JUMP STOP LOG1 PUSH6 0x627A7A723058 KECCAK256 SHL MSIZE PUSH8 0x1E130636DED192FD PUSH5 0x623BC18541 SHL PUSH20 0x126CEC9018A12D93D6D0E41E0200290000000000 "
        },
        "methodIdentifiers": {
          "allowReentrantRequests()": "4d4cb7a2",
          "decimalShift()": "dae5f0fd",
          "deployedAtBlock()": "9a454b99",
          "destinationChainId()": "b0750611",
          "executeSignatures(bytes,bytes)": "3f7658fd",
          "failedMessageDataHash(bytes32)": "e37c3289",
          "failedMessageReceiver(bytes32)": "3f9a8e7e",
          "failedMessageSender(bytes32)": "4a610b04",
          "gasPrice()": "fe173b97",
          "getBridgeInterfacesVersion()": "9cb7595a",
          "getBridgeMode()": "437764df",
          "getMinimumGasUsage(bytes)": "3f768c06",
          "initialize(uint256,uint256,address,uint256,uint256,uint256,address)": "25fbf4ee",
          "isInitialized()": "392e53cd",
          "maxGasPerTx()": "e5789d03",
          "messageCallStatus(bytes32)": "cb08a10c",
          "messageId()": "669f618b",
          "messageSender()": "d67bdd25",
          "messageSourceChainId()": "9e307dff",
          "owner()": "8da5cb5b",
          "relayedMessages(bytes32)": "21d800ec",
          "requireToPassMessage(address,bytes,uint256)": "dc8601b3",
          "requiredBlockConfirmations()": "3f0a9f65",
          "requiredSignatures()": "8d068043",
          "safeExecuteSignatures(bytes,bytes)": "eaa820d7",
          "safeExecuteSignaturesWithAutoGasLimit(bytes,bytes)": "23caab49",
          "safeExecuteSignaturesWithGasLimit(bytes,bytes,uint32)": "e6d562a1",
          "setAllowReentrantRequests(bool)": "c2231ad2",
          "setChainIds(uint256,uint256)": "467ad35a",
          "setGasPrice(uint256)": "bf1fe420",
          "setMaxGasPerTx(uint256)": "7bac29c7",
          "setRequiredBlockConfirmations(uint256)": "acf5c689",
          "sourceChainId()": "1544298e",
          "transactionHash()": "0ac1c313",
          "transferOwnership(address)": "f2fde38b",
          "validatorContract()": "99439089"
        }
      }
    }
  }
}