{
  "contracts/Validatable.sol": {
    "Validatable": {
      "abi": [
        {
          "constant": true,
          "inputs": [],
          "name": "requiredSignatures",
          "outputs": [
            {
              "name": "",
              "type": "uint256"
            }
          ],
          "payable": false,
          "stateMutability": "view",
          "type": "function"
        },
        {
          "constant": true,
          "inputs": [],
          "name": "validatorContract",
          "outputs": [
            {
              "name": "",
              "type": "address"
            }
          ],
          "payable": false,
          "stateMutability": "view",
          "type": "function"
        }
      ],
      "evm": {
        "bytecode": {
          "linkReferences": {},
          "object": "608060405234801561001057600080fd5b506101e3806100206000396000f30060806040526004361061004b5763ffffffff7c01000000000000000000000000000000000000000000000000000000006000350416638d06804381146100505780639943908914610077575b600080fd5b34801561005c57600080fd5b506100656100b5565b60408051918252519081900360200190f35b34801561008357600080fd5b5061008c610153565b6040805173ffffffffffffffffffffffffffffffffffffffff9092168252519081900360200190f35b60006100bf610153565b73ffffffffffffffffffffffffffffffffffffffff16638d0680436040518163ffffffff167c0100000000000000000000000000000000000000000000000000000000028152600401602060405180830381600087803b15801561012257600080fd5b505af1158015610136573d6000803e3d6000fd5b505050506040513d602081101561014c57600080fd5b5051905090565b7f5a74bb7e202fb8e4bf311841c7d64ec19df195fee77d7e7ae749b27921b6ddfe60005260026020527fab54f3fbbe62c59b7876a9bf9bd5e0c22dbae93f4d8ee0438f7ce62b198eb0e05473ffffffffffffffffffffffffffffffffffffffff16905600a165627a7a72305820049f7d53664f9b13e6c5325dfcc0431df79242716907940789511158150208740029",
          "opcodes": "PUSH1 0x80 PUSH1 0x40 MSTORE CALLVALUE DUP1 ISZERO PUSH2 0x10 JUMPI PUSH1 0x0 DUP1 REVERT JUMPDEST POP PUSH2 0x1E3 DUP1 PUSH2 0x20 PUSH1 0x0 CODECOPY PUSH1 0x0 RETURN STOP PUSH1 0x80 PUSH1 0x40 MSTORE PUSH1 0x4 CALLDATASIZE LT PUSH2 0x4B JUMPI PUSH4 0xFFFFFFFF PUSH29 0x100000000000000000000000000000000000000000000000000000000 PUSH1 0x0 CALLDATALOAD DIV AND PUSH4 0x8D068043 DUP2 EQ PUSH2 0x50 JUMPI DUP1 PUSH4 0x99439089 EQ PUSH2 0x77 JUMPI JUMPDEST PUSH1 0x0 DUP1 REVERT JUMPDEST CALLVALUE DUP1 ISZERO PUSH2 0x5C JUMPI PUSH1 0x0 DUP1 REVERT JUMPDEST POP PUSH2 0x65 PUSH2 0xB5 JUMP JUMPDEST PUSH1 0x40 DUP1 MLOAD SWAP2 DUP3 MSTORE MLOAD SWAP1 DUP2 SWAP1 SUB PUSH1 0x20 ADD SWAP1 RETURN JUMPDEST CALLVALUE DUP1 ISZERO PUSH2 0x83 JUMPI PUSH1 0x0 DUP1 REVERT JUMPDEST POP PUSH2 0x8C PUSH2 0x153 JUMP JUMPDEST PUSH1 0x40 DUP1 MLOAD PUSH20 0xFFFFFFFFFFFFFFFFFFFFFFFFFFFFFFFFFFFFFFFF SWAP1 SWAP3 AND DUP3 MSTORE MLOAD SWAP1 DUP2 SWAP1 SUB PUSH1 0x20 ADD SWAP1 RETURN JUMPDEST PUSH1 0x0 PUSH2 0xBF PUSH2 0x153 JUMP JUMPDEST PUSH20 0xFFFFFFFFFFFFFFFFFFFFFFFFFFFFFFFFFFFFFFFF AND PUSH4 0x8D068043 PUSH1 0x40 MLOAD DUP2 PUSH4 0xFFFFFFFF AND PUSH29 0x100000000000000000000000000000000000000000000000000000000 MUL DUP2 MSTORE PUSH1 0x4 ADD PUSH1 0x20 PUSH1 0x40 MLOAD DUP1 DUP4 SUB DUP2 PUSH1 0x0 DUP8 DUP1 EXTCODESIZE ISZERO DUP1 ISZERO PUSH2 0x122 JUMPI PUSH1 0x0 DUP1 REVERT JUMPDEST POP GAS CALL ISZERO DUP1 ISZERO PUSH2 0x136 JUMPI RETURNDATASIZE PUSH1 0x0 DUP1 RETURNDATACOPY RETURNDATASIZE PUSH1 0x0 REVERT JUMPDEST POP POP POP POP PUSH1 0x40 MLOAD RETURNDATASIZE PUSH1 0x20 DUP2 LT ISZERO PUSH2 0x14C JUMPI PUSH1 0x0 DUP1 REVERT JUMPDEST POP MLOAD SWAP1 POP SWAP1 JUMP JUMPDEST PUSH32 0x5A74BB7E202FB8E4BF311841C7D64EC19DF195FEE77D7E7AE749B27921B6DDFE PUSH1 0x0 MSTORE PUSH1 0x2 PUSH1 0x20 MSTORE PUSH32 0xAB54F3FBBE62C59B7876A9BF9BD5E0C22DBAE93F4D8EE0438F7CE62B198EB0E0 SLOAD PUSH20 0xFFFFFFFFFFFFFFFFFFFFFFFFFFFFFFFFFFFFFFFF AND SWAP1 JUMP STOP LOG1 PUSH6 0x627A7A723058 KECCAK256 DIV SWAP16 PUSH30 0x53664F9B13E6C5325DFCC0431DF792427169079407895111581502087400 0x29 "
        },
        "methodIdentifiers": {
          "requiredSignatures()": "8d068043",
          "validatorContract()": "99439089"
        }
      }
    }
  }
}