{
  "contracts/upgradeability/UpgradeabilityOwnerStorage.sol": {
    "UpgradeabilityOwnerStorage": {
      "abi": [
        {
          "constant": true,
          "inputs": [],
          "name": "upgradeabilityOwner",
          "outputs": [
            {
              "name": "",
              "type": "address"
            }
          ],
          "payable": false,
          "stateMutability": "view",
          "type": "function"
        }
      ],
      "evm": {
        "bytecode": {
          "linkReferences": {},
          "object": "608060405234801561001057600080fd5b5060c68061001f6000396000f300608060405260043610603e5763ffffffff7c01000000000000000000000000000000000000000000000000000000006000350416636fde820281146043575b600080fd5b348015604e57600080fd5b506055607e565b6040805173ffffffffffffffffffffffffffffffffffffffff9092168252519081900360200190f35b60005473ffffffffffffffffffffffffffffffffffffffff16905600a165627a7a72305820eba08363c90e0dc2df274f5608668757da8ec2751460bb400c036a3f205099d30029",
          "opcodes": "PUSH1 0x80 PUSH1 0x40 MSTORE CALLVALUE DUP1 ISZERO PUSH2 0x10 JUMPI PUSH1 0x0 DUP1 REVERT JUMPDEST POP PUSH1 0xC6 DUP1 PUSH2 0x1F PUSH1 0x0 CODECOPY PUSH1 0x0 RETURN STOP PUSH1 0x80 PUSH1 0x40 MSTORE PUSH1 0x4 CALLDATASIZE LT PUSH1 0x3E JUMPI PUSH4 0xFFFFFFFF PUSH29 0x100000000000000000000000000000000000000000000000000000000 PUSH1 0x0 CALLDATALOAD DIV AND PUSH4 0x6FDE8202 DUP2 EQ PUSH1 0x43 JUMPI JUMPDEST PUSH1 0x0 DUP1 REVERT JUMPDEST CALLVALUE DUP1 ISZERO PUSH1 0x4E JUMPI PUSH1 0x0 DUP1 REVERT JUMPDEST POP PUSH1 0x55 PUSH1 0x7E JUMP JUMPDEST PUSH1 0x40 DUP1 MLOAD PUSH20 0xFFFFFFFFFFFFFFFFFFFFFFFFFFFFFFFFFFFFFFFF SWAP1 SWAP3 AND DUP3 MSTORE MLOAD SWAP1 DUP2 SWAP1 SUB PUSH1 0x20 ADD SWAP1 RETURN JUMPDEST PUSH1 0x0 SLOAD PUSH20 0xFFFFFFFFFFFFFFFFFFFFFFFFFFFFFFFFFFFFFFFF AND SWAP1 JUMP STOP LOG1 PUSH6 0x627A7A723058 KECCAK256 0xeb LOG0 DUP4 PUSH4 0xC90E0DC2 0xdf 0x27 0x4f JUMP ADDMOD PUSH7 0x8757DA8EC27514 PUSH1 0xBB BLOCKHASH 0xc SUB PUSH11 0x3F205099D3002900000000 "
        },
        "methodIdentifiers": {
          "upgradeabilityOwner()": "6fde8202"
        }
      }
    }
  }
}