{
  "contracts/upgradeability/UpgradeabilityStorage.sol": {
    "UpgradeabilityStorage": {
      "abi": [
        {
          "constant": true,
          "inputs": [],
          "name": "version",
          "outputs": [
            {
              "name": "",
              "type": "uint256"
            }
          ],
          "payable": false,
          "stateMutability": "view",
          "type": "function"
        },
        {
          "constant": true,
          "inputs": [],
          "name": "implementation",
          "outputs": [
            {
              "name": "",
              "type": "address"
            }
          ],
          "payable": false,
          "stateMutability": "view",
          "type": "function"
        }
      ],
      "evm": {
        "bytecode": {
          "linkReferences": {},
          "object": "608060405234801561001057600080fd5b5060fa8061001f6000396000f30060806040526004361060485763ffffffff7c010000000000000000000000000000000000000000000000000000000060003504166354fd4d508114604d5780635c60da1b146071575b600080fd5b348015605857600080fd5b50605f60ac565b60408051918252519081900360200190f35b348015607c57600080fd5b50608360b2565b6040805173ffffffffffffffffffffffffffffffffffffffff9092168252519081900360200190f35b60005490565b60015473ffffffffffffffffffffffffffffffffffffffff16905600a165627a7a72305820911a5d5b5f41f4ebdc70b7efa0b88f2720f210c178672df56c0a197a2bad947f0029",
          "opcodes": "PUSH1 0x80 PUSH1 0x40 MSTORE CALLVALUE DUP1 ISZERO PUSH2 0x10 JUMPI PUSH1 0x0 DUP1 REVERT JUMPDEST POP PUSH1 0xFA DUP1 PUSH2 0x1F PUSH1 0x0 CODECOPY PUSH1 0x0 RETURN STOP PUSH1 0x80 PUSH1 0x40 MSTORE PUSH1 0x4 CALLDATASIZE LT PUSH1 0x48 JUMPI PUSH4 0xFFFFFFFF PUSH29 0x100000000000000000000000000000000000000000000000000000000 PUSH1 0x0 CALLDATALOAD DIV AND PUSH4 0x54FD4D50 DUP2 EQ PUSH1 0x4D JUMPI DUP1 PUSH4 0x5C60DA1B EQ PUSH1 0x71 JUMPI JUMPDEST PUSH1 0x0 DUP1 REVERT JUMPDEST CALLVALUE DUP1 ISZERO PUSH1 0x58 JUMPI PUSH1 0x0 DUP1 REVERT JUMPDEST POP PUSH1 0x5F PUSH1 0xAC JUMP JUMPDEST PUSH1 0x40 DUP1 MLOAD SWAP2 DUP3 MSTORE MLOAD SWAP1 DUP2 SWAP1 SUB PUSH1 0x20 ADD SWAP1 RETURN JUMPDEST CALLVALUE DUP1 ISZERO PUSH1 0x7C JUMPI PUSH1 0x0 DUP1 REVERT JUMPDEST POP PUSH1 0x83 PUSH1 0xB2 JUMP JUMPDEST PUSH1 0x40 DUP1 MLOAD PUSH20 0xFFFFFFFFFFFFFFFFFFFFFFFFFFFFFFFFFFFFFFFF SWAP1 SWAP3 AND DUP3 MSTORE MLOAD SWAP1 DUP2 SWAP1 SUB PUSH1 0x20 ADD SWAP1 RETURN JUMPDEST PUSH1 0x0 SLOAD SWAP1 JUMP JUMPDEST PUSH1 0x1 SLOAD PUSH20 0xFFFFFFFFFFFFFFFFFFFFFFFFFFFFFFFFFFFFFFFF AND SWAP1 JUMP STOP LOG1 PUSH6 0x627A7A723058 KECCAK256 SWAP2 BYTE 0x5d JUMPDEST 0x5f COINBASE DELEGATECALL 0xeb 0xdc PUSH17 0xB7EFA0B88F2720F210C178672DF56C0A19 PUSH27 0x2BAD947F0029000000000000000000000000000000000000000000 "
        },
        "methodIdentifiers": {
          "implementation()": "5c60da1b",
          "version()": "54fd4d50"
        }
      }
    }
  }
}