{
  "contracts/DecimalShiftBridge.sol": {
    "DecimalShiftBridge": {
      "abi": [
        {
          "constant": true,
          "inputs": [],
          "name": "decimalShift",
          "outputs": [
            {
              "name": "",
              "type": "int256"
            }
          ],
          "payable": false,
          "stateMutability": "view",
          "type": "function"
        }
      ],
      "evm": {
        "bytecode": {
          "linkReferences": {},
          "object": "6080604052348015600f57600080fd5b5060e18061001e6000396000f300608060405260043610603e5763ffffffff7c0100000000000000000000000000000000000000000000000000000000600035041663dae5f0fd81146043575b600080fd5b348015604e57600080fd5b5060556067565b60408051918252519081900360200190f35b7f1e8ecaafaddea96ed9ac6d2642dcdfe1bebe58a930b1085842d8fc122b371ee560009081526020527fd5c78dd9468716ca9bb96be25d56436811b20aab3523a9904b12deef1cab239d54905600a165627a7a72305820913a5f6be8d04f2a76dee7b7ac2f916413e7ec4faf772b569994940a657935ea0029",
          "opcodes": "PUSH1 0x80 PUSH1 0x40 MSTORE CALLVALUE DUP1 ISZERO PUSH1 0xF JUMPI PUSH1 0x0 DUP1 REVERT JUMPDEST POP PUSH1 0xE1 DUP1 PUSH2 0x1E PUSH1 0x0 CODECOPY PUSH1 0x0 RETURN STOP PUSH1 0x80 PUSH1 0x40 MSTORE PUSH1 0x4 CALLDATASIZE LT PUSH1 0x3E JUMPI PUSH4 0xFFFFFFFF PUSH29 0x100000000000000000000000000000000000000000000000000000000 PUSH1 0x0 CALLDATALOAD DIV AND PUSH4 0xDAE5F0FD DUP2 EQ PUSH1 0x43 JUMPI JUMPDEST PUSH1 0x0 DUP1 REVERT JUMPDEST CALLVALUE DUP1 ISZERO PUSH1 0x4E JUMPI PUSH1 0x0 DUP1 REVERT JUMPDEST POP PUSH1 0x55 PUSH1 0x67 JUMP JUMPDEST PUSH1 0x40 DUP1 MLOAD SWAP2 DUP3 MSTORE MLOAD SWAP1 DUP2 SWAP1 SUB PUSH1 0x20 ADD SWAP1 RETURN JUMPDEST PUSH32 0x1E8ECAAFADDEA96ED9AC6D2642DCDFE1BEBE58A930B1085842D8FC122B371EE5 PUSH1 0x0 SWAP1 DUP2 MSTORE PUSH1 0x20 MSTORE PUSH32 0xD5C78DD9468716CA9BB96BE25D56436811B20AAB3523A9904B12DEEF1CAB239D SLOAD SWAP1 JUMP STOP LOG1 PUSH6 0x627A7A723058 KECCAK256 SWAP2 GASPRICE 0x5f PUSH12 0xE8D04F2A76DEE7B7AC2F9164 SGT 0xe7 0xec 0x4f 0xaf PUSH24 0x2B569994940A657935EA0029000000000000000000000000 "
        },
        "methodIdentifiers": {
          "decimalShift()": "dae5f0fd"
        }
      }
    }
  }
}