{
  "contracts/upgradeability/EternalStorageProxy.sol": {
    "EternalStorageProxy": {
      "abi": [
        {
          "constant": false,
          "inputs": [
            {
              "name": "version",
              "type": "uint256"
            },
            {
              "name": "implementation",
              "type": "address"
            }
          ],
          "name": "upgradeTo",
          "outputs": [],
          "payable": false,
          "stateMutability": "nonpayable",
          "type": "function"
        },
        {
          "constant": true,
          "inputs": [],
          "name": "version",
          "outputs": [
            {
              "name": "",
              "type": "uint256"
            }
          ],
          "payable": false,
          "stateMutability": "view",
          "type": "function"
        },
        {
          "constant": true,
          "inputs": [],
          "name": "implementation",
          "outputs": [
            {
              "name": "",
              "type": "address"
            }
          ],
          "payable": false,
          "stateMutability": "view",
          "type": "function"
        },
        {
          "constant": true,
          "inputs": [],
          "name": "upgradeabilityOwner",
          "outputs": [
            {
              "name": "",
              "type": "address"
            }
          ],
          "payable": false,
          "stateMutability": "view",
          "type": "function"
        },
        {
          "constant": false,
          "inputs": [
            {
              "name": "version",
              "type": "uint256"
            },
            {
              "name": "implementation",
              "type": "address"
            },
            {
              "name": "data",
              "type": "bytes"
            }
          ],
          "name": "upgradeToAndCall",
          "outputs": [],
          "payable": true,
          "stateMutability": "payable",
          "type": "function"
        },
        {
          "constant": false,
          "inputs": [
            {
              "name": "newOwner",
              "type": "address"
            }
          ],
          "name": "transferProxyOwnership",
          "outputs": [],
          "payable": false,
          "stateMutability": "nonpayable",
          "type": "function"
        },
        {
          "payable": true,
          "stateMutability": "payable",
          "type": "fallback"
        },
        {
          "anonymous": false,
          "inputs": [
            {
              "indexed": false,
              "name": "previousOwner",
              "type": "address"
            },
            {
              "indexed": false,
              "name": "newOwner",
              "type": "address"
            }
          ],
          "name": "ProxyOwnershipTransferred",
          "type": "event"
        },
        {
          "anonymous": false,
          "inputs": [
            {
              "indexed": false,
              "name": "version",
              "type": "uint256"
            },
            {
              "indexed": true,
              "name": "implementation",
              "type": "address"
            }
          ],
          "name": "Upgraded",
          "type": "event"
        }
      ],
      "evm": {
        "bytecode": {
          "linkReferences": {},
          "object": "60806040526100163364010000000061001b810204565b61003d565b60068054600160a060020a031916600160a060020a0392909216919091179055565b6103e08061004c6000396000f3006080604052600436106100775763ffffffff7c01000000000000000000000000000000000000000000000000000000006000350416633ad06d1681146100c257806354fd4d50146100e85780635c60da1b1461010f5780636fde820214610140578063a9c45fcb14610155578063f1739cae14610179575b600061008161019a565b9050600160a060020a038116151561009857600080fd5b60405136600082376000803683855af43d82016040523d6000833e8080156100be573d83f35b3d83fd5b3480156100ce57600080fd5b506100e6600435600160a060020a03602435166101a9565b005b3480156100f457600080fd5b506100fd6101d3565b60408051918252519081900360200190f35b34801561011b57600080fd5b5061012461019a565b60408051600160a060020a039092168252519081900360200190f35b34801561014c57600080fd5b506101246101d9565b6100e6600480359060248035600160a060020a0316916044359182019101356101e8565b34801561018557600080fd5b506100e6600160a060020a0360043516610250565b600854600160a060020a031690565b6101b16101d9565b600160a060020a031633146101c557600080fd5b6101cf82826102d8565b5050565b60075490565b600654600160a060020a031690565b6101f06101d9565b600160a060020a0316331461020457600080fd5b61020e84846101a9565b30600160a060020a03163483836040518083838082843782019150509250505060006040518083038185875af192505050151561024a57600080fd5b50505050565b6102586101d9565b600160a060020a0316331461026c57600080fd5b600160a060020a038116151561028157600080fd5b7f5a3e66efaa1e445ebd894728a69d6959842ea1e97bd79b892797106e270efcd96102aa6101d9565b60408051600160a060020a03928316815291841660208301528051918290030190a16102d58161037d565b50565b600854600160a060020a03828116911614156102f357600080fd5b6102fc816103ac565b151561030757600080fd5b600754821161031557600080fd5b600782905560088054600160a060020a03831673ffffffffffffffffffffffffffffffffffffffff1990911681179091556040805184815290517f4289d6195cf3c2d2174adf98d0e19d4d2d08887995b99cb7b100e7ffe795820e9181900360200190a25050565b6006805473ffffffffffffffffffffffffffffffffffffffff1916600160a060020a0392909216919091179055565b6000903b11905600a165627a7a72305820e3f977e249baf7dc5a2407f26aa7e4cae17696a2bff47208bf027346f7397f0d0029",
          "opcodes": "PUSH1 0x80 PUSH1 0x40 MSTORE PUSH2 0x16 CALLER PUSH5 0x100000000 PUSH2 0x1B DUP2 MUL DIV JUMP JUMPDEST PUSH2 0x3D JUMP JUMPDEST PUSH1 0x6 DUP1 SLOAD PUSH1 0x1 PUSH1 0xA0 PUSH1 0x2 EXP SUB NOT AND PUSH1 0x1 PUSH1 0xA0 PUSH1 0x2 EXP SUB SWAP3 SWAP1 SWAP3 AND SWAP2 SWAP1 SWAP2 OR SWAP1 SSTORE JUMP JUMPDEST PUSH2 0x3E0 DUP1 PUSH2 0x4C PUSH1 0x0 CODECOPY PUSH1 0x0 RETURN STOP PUSH1 0x80 PUSH1 0x40 MSTORE PUSH1 0x4 CALLDATASIZE LT PUSH2 0x77 JUMPI PUSH4 0xFFFFFFFF PUSH29 0x100000000000000000000000000000000000000000000000000000000 PUSH1 0x0 CALLDATALOAD DIV AND PUSH4 0x3AD06D16 DUP2 EQ PUSH2 0xC2 JUMPI DUP1 PUSH4 0x54FD4D50 EQ PUSH2 0xE8 JUMPI DUP1 PUSH4 0x5C60DA1B EQ PUSH2 0x10F JUMPI DUP1 PUSH4 0x6FDE8202 EQ PUSH2 0x140 JUMPI DUP1 PUSH4 0xA9C45FCB EQ PUSH2 0x155 JUMPI DUP1 PUSH4 0xF1739CAE EQ PUSH2 0x179 JUMPI JUMPDEST PUSH1 0x0 PUSH2 0x81 PUSH2 0x19A JUMP JUMPDEST SWAP1 POP PUSH1 0x1 PUSH1 0xA0 PUSH1 0x2 EXP SUB DUP2 AND ISZERO ISZERO PUSH2 0x98 JUMPI PUSH1 0x0 DUP1 REVERT JUMPDEST PUSH1 0x40 MLOAD CALLDATASIZE PUSH1 0x0 DUP3 CALLDATACOPY PUSH1 0x0 DUP1 CALLDATASIZE DUP4 DUP6 GAS DELEGATECALL RETURNDATASIZE DUP3 ADD PUSH1 0x40 MSTORE RETURNDATASIZE PUSH1 0x0 DUP4 RETURNDATACOPY DUP1 DUP1 ISZERO PUSH2 0xBE JUMPI RETURNDATASIZE DUP4 RETURN JUMPDEST RETURNDATASIZE DUP4 REVERT JUMPDEST CALLVALUE DUP1 ISZERO PUSH2 0xCE JUMPI PUSH1 0x0 DUP1 REVERT JUMPDEST POP PUSH2 0xE6 PUSH1 0x4 CALLDATALOAD PUSH1 0x1 PUSH1 0xA0 PUSH1 0x2 EXP SUB PUSH1 0x24 CALLDATALOAD AND PUSH2 0x1A9 JUMP JUMPDEST STOP JUMPDEST CALLVALUE DUP1 ISZERO PUSH2 0xF4 JUMPI PUSH1 0x0 DUP1 REVERT JUMPDEST POP PUSH2 0xFD PUSH2 0x1D3 JUMP JUMPDEST PUSH1 0x40 DUP1 MLOAD SWAP2 DUP3 MSTORE MLOAD SWAP1 DUP2 SWAP1 SUB PUSH1 0x20 ADD SWAP1 RETURN JUMPDEST CALLVALUE DUP1 ISZERO PUSH2 0x11B JUMPI PUSH1 0x0 DUP1 REVERT JUMPDEST POP PUSH2 0x124 PUSH2 0x19A JUMP JUMPDEST PUSH1 0x40 DUP1 MLOAD PUSH1 0x1 PUSH1 0xA0 PUSH1 0x2 EXP SUB SWAP1 SWAP3 AND DUP3 MSTORE MLOAD SWAP1 DUP2 SWAP1 SUB PUSH1 0x20 ADD SWAP1 RETURN JUMPDEST CALLVALUE DUP1 ISZERO PUSH2 0x14C JUMPI PUSH1 0x0 DUP1 REVERT JUMPDEST POP PUSH2 0x124 PUSH2 0x1D9 JUMP JUMPDEST PUSH2 0xE6 PUSH1 0x4 DUP1 CALLDATALOAD SWAP1 PUSH1 0x24 DUP1 CALLDATALOAD PUSH1 0x1 PUSH1 0xA0 PUSH1 0x2 EXP SUB AND SWAP2 PUSH1 0x44 CALLDATALOAD SWAP2 DUP3 ADD SWAP2 ADD CALLDATALOAD PUSH2 0x1E8 JUMP JUMPDEST CALLVALUE DUP1 ISZERO PUSH2 0x185 JUMPI PUSH1 0x0 DUP1 REVERT JUMPDEST POP PUSH2 0xE6 PUSH1 0x1 PUSH1 0xA0 PUSH1 0x2 EXP SUB PUSH1 0x4 CALLDATALOAD AND PUSH2 0x250 JUMP JUMPDEST PUSH1 0x8 SLOAD PUSH1 0x1 PUSH1 0xA0 PUSH1 0x2 EXP SUB AND SWAP1 JUMP JUMPDEST PUSH2 0x1B1 PUSH2 0x1D9 JUMP JUMPDEST PUSH1 0x1 PUSH1 0xA0 PUSH1 0x2 EXP SUB AND CALLER EQ PUSH2 0x1C5 JUMPI PUSH1 0x0 DUP1 REVERT JUMPDEST PUSH2 0x1CF DUP3 DUP3 PUSH2 0x2D8 JUMP JUMPDEST POP POP JUMP JUMPDEST PUSH1 0x7 SLOAD SWAP1 JUMP JUMPDEST PUSH1 0x6 SLOAD PUSH1 0x1 PUSH1 0xA0 PUSH1 0x2 EXP SUB AND SWAP1 JUMP JUMPDEST PUSH2 0x1F0 PUSH2 0x1D9 JUMP JUMPDEST PUSH1 0x1 PUSH1 0xA0 PUSH1 0x2 EXP SUB AND CALLER EQ PUSH2 0x204 JUMPI PUSH1 0x0 DUP1 REVERT JUMPDEST PUSH2 0x20E DUP5 DUP5 PUSH2 0x1A9 JUMP JUMPDEST ADDRESS PUSH1 0x1 PUSH1 0xA0 PUSH1 0x2 EXP SUB AND CALLVALUE DUP4 DUP4 PUSH1 0x40 MLOAD DUP1 DUP4 DUP4 DUP1 DUP3 DUP5 CALLDATACOPY DUP3 ADD SWAP2 POP POP SWAP3 POP POP POP PUSH1 0x0 PUSH1 0x40 MLOAD DUP1 DUP4 SUB DUP2 DUP6 DUP8 GAS CALL SWAP3 POP POP POP ISZERO ISZERO PUSH2 0x24A JUMPI PUSH1 0x0 DUP1 REVERT JUMPDEST POP POP POP POP JUMP JUMPDEST PUSH2 0x258 PUSH2 0x1D9 JUMP JUMPDEST PUSH1 0x1 PUSH1 0xA0 PUSH1 0x2 EXP SUB AND CALLER EQ PUSH2 0x26C JUMPI PUSH1 0x0 DUP1 REVERT JUMPDEST PUSH1 0x1 PUSH1 0xA0 PUSH1 0x2 EXP SUB DUP2 AND ISZERO ISZERO PUSH2 0x281 JUMPI PUSH1 0x0 DUP1 REVERT JUMPDEST PUSH32 0x5A3E66EFAA1E445EBD894728A69D6959842EA1E97BD79B892797106E270EFCD9 PUSH2 0x2AA PUSH2 0x1D9 JUMP JUMPDEST PUSH1 0x40 DUP1 MLOAD PUSH1 0x1 PUSH1 0xA0 PUSH1 0x2 EXP SUB SWAP3 DUP4 AND DUP2 MSTORE SWAP2 DUP5 AND PUSH1 0x20 DUP4 ADD MSTORE DUP1 MLOAD SWAP2 DUP3 SWAP1 SUB ADD SWAP1 LOG1 PUSH2 0x2D5 DUP2 PUSH2 0x37D JUMP JUMPDEST POP JUMP JUMPDEST PUSH1 0x8 SLOAD PUSH1 0x1 PUSH1 0xA0 PUSH1 0x2 EXP SUB DUP3 DUP2 AND SWAP2 AND EQ ISZERO PUSH2 0x2F3 JUMPI PUSH1 0x0 DUP1 REVERT JUMPDEST PUSH2 0x2FC DUP2 PUSH2 0x3AC JUMP JUMPDEST ISZERO ISZERO PUSH2 0x307 JUMPI PUSH1 0x0 DUP1 REVERT JUMPDEST PUSH1 0x7 SLOAD DUP3 GT PUSH2 0x315 JUMPI PUSH1 0x0 DUP1 REVERT JUMPDEST PUSH1 0x7 DUP3 SWAP1 SSTORE PUSH1 0x8 DUP1 SLOAD PUSH1 0x1 PUSH1 0xA0 PUSH1 0x2 EXP SUB DUP4 AND PUSH20 0xFFFFFFFFFFFFFFFFFFFFFFFFFFFFFFFFFFFFFFFF NOT SWAP1 SWAP2 AND DUP2 OR SWAP1 SWAP2 SSTORE PUSH1 0x40 DUP1 MLOAD DUP5 DUP2 MSTORE SWAP1 MLOAD PUSH32 0x4289D6195CF3C2D2174ADF98D0E19D4D2D08887995B99CB7B100E7FFE795820E SWAP2 DUP2 SWAP1 SUB PUSH1 0x20 ADD SWAP1 LOG2 POP POP JUMP JUMPDEST PUSH1 0x6 DUP1 SLOAD PUSH20 0xFFFFFFFFFFFFFFFFFFFFFFFFFFFFFFFFFFFFFFFF NOT AND PUSH1 0x1 PUSH1 0xA0 PUSH1 0x2 EXP SUB SWAP3 SWAP1 SWAP3 AND SWAP2 SWAP1 SWAP2 OR SWAP1 SSTORE JUMP JUMPDEST PUSH1 0x0 SWAP1 EXTCODESIZE GT SWAP1 JUMP STOP LOG1 PUSH6 0x627A7A723058 KECCAK256 0xe3 0xf9 PUSH24 0xE249BAF7DC5A2407F26AA7E4CAE17696A2BFF47208BF0273 0x46 0xf7 CODECOPY PUSH32 0xD00290000000000000000000000000000000000000000000000000000000000 "
        },
        "methodIdentifiers": {
          "implementation()": "5c60da1b",
          "transferProxyOwnership(address)": "f1739cae",
          "upgradeTo(uint256,address)": "3ad06d16",
          "upgradeToAndCall(uint256,address,bytes)": "a9c45fcb",
          "upgradeabilityOwner()": "6fde8202",
          "version()": "54fd4d50"
        }
      }
    }
  }
}