{
  "_format": "hh-sol-artifact-1",
  "contractName": "UpgradeabilityStorage",
  "sourceName": "contracts/upgradeability/UpgradeabilityStorage.sol",
  "abi": [
    {
      "constant": true,
      "inputs": [],
      "name": "version",
      "outputs": [
        {
          "name": "",
          "type": "uint256"
        }
      ],
      "payable": false,
      "stateMutability": "view",
      "type": "function"
    },
    {
      "constant": true,
      "inputs": [],
      "name": "implementation",
      "outputs": [
        {
          "name": "",
          "type": "address"
        }
      ],
      "payable": false,
      "stateMutability": "view",
      "type": "function"
    }
  ],
  "bytecode": "0x608060405234801561001057600080fd5b5060fa8061001f6000396000f30060806040526004361060485763ffffffff7c010000000000000000000000000000000000000000000000000000000060003504166354fd4d508114604d5780635c60da1b146071575b600080fd5b348015605857600080fd5b50605f60ac565b60408051918252519081900360200190f35b348015607c57600080fd5b50608360b2565b6040805173ffffffffffffffffffffffffffffffffffffffff9092168252519081900360200190f35b60005490565b60015473ffffffffffffffffffffffffffffffffffffffff16905600a165627a7a72305820911a5d5b5f41f4ebdc70b7efa0b88f2720f210c178672df56c0a197a2bad947f0029",
  "linkReferences": {},
  "deployedLinkReferences": {}
}