{
  "_format": "hh-sol-artifact-1",
  "contractName": "UpgradeabilityProxy",
  "sourceName": "contracts/upgradeability/UpgradeabilityProxy.sol",
  "abi": [
    {
      "constant": true,
      "inputs": [],
      "name": "version",
      "outputs": [
        {
          "name": "",
          "type": "uint256"
        }
      ],
      "payable": false,
      "stateMutability": "view",
      "type": "function"
    },
    {
      "constant": true,
      "inputs": [],
      "name": "implementation",
      "outputs": [
        {
          "name": "",
          "type": "address"
        }
      ],
      "payable": false,
      "stateMutability": "view",
      "type": "function"
    },
    {
      "payable": true,
      "stateMutability": "payable",
      "type": "fallback"
    },
    {
      "anonymous": false,
      "inputs": [
        {
          "indexed": false,
          "name": "version",
          "type": "uint256"
        },
        {
          "indexed": true,
          "name": "implementation",
          "type": "address"
        }
      ],
      "name": "Upgraded",
      "type": "event"
    }
  ],
  "bytecode": "0x608060405234801561001057600080fd5b50610156806100206000396000f30060806040526004361061004b5763ffffffff7c010000000000000000000000000000000000000000000000000000000060003504166354fd4d5081146100a35780635c60da1b146100ca575b6000610055610108565b905073ffffffffffffffffffffffffffffffffffffffff8116151561007957600080fd5b60405136600082376000803683855af43d82016040523d6000833e80801561009f573d83f35b3d83fd5b3480156100af57600080fd5b506100b8610124565b60408051918252519081900360200190f35b3480156100d657600080fd5b506100df610108565b6040805173ffffffffffffffffffffffffffffffffffffffff9092168252519081900360200190f35b60015473ffffffffffffffffffffffffffffffffffffffff1690565b600054905600a165627a7a72305820856edb9ed99bfca5cb825743da99368e36180163651aae7451e64b4783b07b030029",
  "linkReferences": {},
  "deployedLinkReferences": {}
}