{
  "_format": "hh-sol-artifact-1",
  "contractName": "MessageRelay",
  "sourceName": "contracts/MessageRelay.sol",
  "abi": [
    {
      "constant": true,
      "inputs": [
        {
          "name": "_txHash",
          "type": "bytes32"
        }
      ],
      "name": "relayedMessages",
      "outputs": [
        {
          "name": "",
          "type": "bool"
        }
      ],
      "payable": false,
      "stateMutability": "view",
      "type": "function"
    }
  ],
  "bytecode": "0x608060405234801561001057600080fd5b50610166806100206000396000f3006080604052600436106100405763ffffffff7c010000000000000000000000000000000000000000000000000000000060003504166321d800ec8114610045575b600080fd5b34801561005157600080fd5b5061005d600435610071565b604080519115158252519081900360200190f35b6000600460008360405160200180807f72656c617965644d657373616765730000000000000000000000000000000000815250600f0182600019166000191681526020019150506040516020818303038152906040526040518082805190602001908083835b602083106100f65780518252601f1990920191602091820191016100d7565b51815160209384036101000a600019018019909216911617905260408051929094018290039091208652850195909552929092016000205460ff16959450505050505600a165627a7a7230582046ce2eadf5743529fc24d79b72593ab315a8883a887fd83a1dca0b0066e129050029",
  "linkReferences": {},
  "deployedLinkReferences": {}
}