{
  "_format": "hh-sol-artifact-1",
  "contractName": "Initializable",
  "sourceName": "contracts/Initializable.sol",
  "abi": [
    {
      "constant": true,
      "inputs": [],
      "name": "isInitialized",
      "outputs": [
        {
          "name": "",
          "type": "bool"
        }
      ],
      "payable": false,
      "stateMutability": "view",
      "type": "function"
    }
  ],
  "bytecode": "0x6080604052348015600f57600080fd5b5060e68061001e6000396000f300608060405260043610603e5763ffffffff7c0100000000000000000000000000000000000000000000000000000000600035041663392e53cd81146043575b600080fd5b348015604e57600080fd5b5060556069565b604080519115158252519081900360200190f35b7f0a6f646cd611241d8073675e00d1a1ff700fbf1b53fcf473de56d1e6e4b714ba60005260046020527f078d888f9b66f3f8bfa10909e31f1e16240db73449f0500afdbbe3a70da457cc5460ff16905600a165627a7a723058201515de8348b5c388dc78f522f817e865c580de6654dabcf7cd2c5375d109f7ef0029",
  "linkReferences": {},
  "deployedLinkReferences": {}
}