{
  "_format": "hh-sol-artifact-1",
  "contractName": "DecimalShiftBridge",
  "sourceName": "contracts/DecimalShiftBridge.sol",
  "abi": [
    {
      "constant": true,
      "inputs": [],
      "name": "decimalShift",
      "outputs": [
        {
          "name": "",
          "type": "int256"
        }
      ],
      "payable": false,
      "stateMutability": "view",
      "type": "function"
    }
  ],
  "bytecode": "0x6080604052348015600f57600080fd5b5060e18061001e6000396000f300608060405260043610603e5763ffffffff7c0100000000000000000000000000000000000000000000000000000000600035041663dae5f0fd81146043575b600080fd5b348015604e57600080fd5b5060556067565b60408051918252519081900360200190f35b7f1e8ecaafaddea96ed9ac6d2642dcdfe1bebe58a930b1085842d8fc122b371ee560009081526020527fd5c78dd9468716ca9bb96be25d56436811b20aab3523a9904b12deef1cab239d54905600a165627a7a72305820913a5f6be8d04f2a76dee7b7ac2f916413e7ec4faf772b569994940a657935ea0029",
  "linkReferences": {},
  "deployedLinkReferences": {}
}